:020000040800F2
:10000000404D002081020008D32700082522000867
:10001000D1270008B10300087D2F00080000000070
:10002000000000000000000000000000C101000806
:1000300099040008000000001D0200087D29000846
:100040009B0200089B0200089B0200089B0200081C
:100050009B0200089B0200089B0200089B0200080C
:100060009B0200089B0200089B0200089B020008FC
:10007000ED0300089B020008F90300089B0200083A
:100080009B0200089B0200089B0200089B020008DC
:10009000B50300089B0200089B0200089B020008B1
:1000A0009B0200089B0200089B0200089B020008BC
:1000B0009B0200089B0200089B0200089B020008AC
:1000C0009B0200089B0200089B0200089B0200089C
:1000D0009B020008592F00089B020008652F0008AA
:1000E0009B0200089B0200089B0200089B0200087C
:1000F0009B020008492A00089B0200089B02000896
:100100009B0200089B0200089B0200089B0200085B
:100110009B0200089B0200089B0200089B0200084B
:100120009B0200089B020008050400081104000857
:100130009B0200089B0200089B0200089B0200082B
:10014000C10300089B0200089B0200089B020008F4
:100150009B0200089B0200089B020008712F000808
:100160009B0200089B0200089B0200089B020008FB
:100170009B0200089B0200089B0200080000000090
:100180009B0200089B0200089B0200089B020008DB
:100190009B0200089B0200089B0200089B020008CB
:1001A00000000000000000009B020008DFF80CD0F7
:1001B00000F0ECF800480047E1310008404D002015
:1001C0002C4B19680868B0E8F04F80F30988BFF33A
:1001D0006F8F4FF0000080F311887047000000001F
:1001E00008480068006880F308884FF0000080F33A
:1001F000148862B661B6BFF34F8FBFF36F8F00DF15
:1002000000BF00BF08ED00E0DFF80C00016841F41A
:1002100070010160704700BF88ED00E0EFF30980D6
:10022000BFF36F8F134B1A681EF0100F08BF20ED3D
:10023000108A20E9F04F106009B44FF0500080F3AD
:100240001188BFF34F8FBFF36F8F03F03BFC4FF06C
:10025000000080F3118809BC19680868B0E8F04F05
:100260001EF0100F08BFB0EC108A80F30988BFF3AE
:100270006F8F70472C000020EFF30580704700005F
:100280000648804706480047FEE7FEE7FEE7FEE730
:10029000FEE7FEE7FEE7FEE7FEE7FEE72D2A0008A1
:1002A000AD0100082DE9F05F0546002092469B460F
:1002B00088460646814640241BE02846414647467C
:1002C000224600F053F853465A46C01A914110D3C3
:1002D00011461846224600F03AF82D1A67EB01083D
:1002E0004F4622460120002100F031F817EB0009AB
:1002F0004E41201EA4F10104DFDC484631462A4667
:100300004346BDE8F09F40EA01039B0703D009E0A4
:1003100008C9121F08C0042AFAD203E011F8013BF1
:1003200000F8013B521EF9D27047D2B201E000F84A
:10033000012B491EFBD270470022F6E710B5134689
:100340000A4604461946FFF7F0FF204610BD202A52
:1003500004DB203A00FA02F1002070479140C2F11C
:10036000200320FA03F3194390407047202A04DB4E
:10037000203A21FA02F00021704721FA02F3D0401E
:10038000C2F120029140084319467047064C074DC0
:1003900006E0E06840F0010394E807009847103455
:1003A000AC42F6D3FFF706FFD83E0008F83E00083F
:1003B000FEE70000014800F0E2B90000140600204A
:1003C000014800F0DCB900003C0600201CB59BB2DF
:1003D00092B2CDE900238BB282B20249024803F007
:1003E00087F91CBD8C00002014060020014800F095
:1003F00047BC0000500B0020014800F041BC000049
:10040000B00B0020014800F03BBC0000F00A0020C7
:10041000014800F035BC00001009002001681823D5
:10042000CAB2103AB2FBF3F2054B6FF30901032A8B
:100430009B5CC36500D9091D8165084670470000B3
:10044000A03E000810B5014600208B698A6A4FF073
:10045000C07453B1B3F5005F15D072B1012A0CD04E
:10046000022A0AD0032A09D104E01AB1012A06D0CF
:10047000022A03D1C96AC90100D5012010BDC96A89
:10048000A142FAD010BD002AF7D0012AF2D0022AE8
:10049000F3D0032AF3D010BD7047704790F82020A6
:1004A000012A07D0022A05D0416A41F48021416225
:1004B00001207047006842690A434261002070478A
:1004C000F0B590F820500468A468012D05D0022DE5
:1004D00003D0416A41F4802153E014F0406F01D110
:1004E000E5004BD5C4F30164022C03D9416A41F401
:1004F000000146E00125A5401D608D684FF4C073E2
:100500009DB1CE6835434E6845EAC605066803EBE3
:100510000417F5514FF4C275076805EB04150E6911
:100520007E51097D012905D009E00E88CD6845EA94
:100530004655EBE701684E5946F480764E511179E5
:10054000D2F805504FF4C67641EA0525016806EB5E
:1005500004168D511178D2F801204FF4C47541EA88
:100560000221026805EB04155151006803EB0411E8
:10057000425842F0010242500020F0BD416A41F46D
:10058000001141620120F0BD10B590F82020012A31
:1005900007D0022A05D0416A41F48021416201203E
:1005A00010BD3B48D0F8002242F00102C0F8002202
:1005B000D0F8002222F47C52C0F80022D0F80022A9
:1005C0004B6A42EA0322C0F800220A7D02F01F03B0
:1005D00001229A40D0F81C329343C0F81C32CB69F8
:1005E000B3B9D0F80C329343C0F80C328C894B6805
:1005F00064F31F434C6900EBC404C4F840320C8917
:100600000B6864F31F434C6900EBC404C4F8443224
:10061000CB69012B16D1D0F80C321343C0F80C3241
:100620000C884B6864F31F434C6900EBC404C4F8A6
:1006300040320C89CB6864F31F434C6900EBC4045F
:10064000C4F844328B69002BD0F804320ED0134327
:10065000C0F804320B69002BD0F8143208D01343D1
:10066000C0F81432096A012904D008E09343EFE787
:100670009343F5E7D0F81C121143C0F81C12D0F8D0
:10068000001221F00101C0F80012002010BD00008E
:1006900000640040704730B590F82040012C05D030
:1006A000022C03D0416A41F480215DE004680029F6
:1006B00055D02469A40754D04FF4D874056804EBCE
:1006C00001142D5915F00405956005682D594ED07B
:1006D000ED08556005682C5904F00204D4604FF40D
:1006E000DA74056804EB01142D5905F00F05156146
:1006F00005682D59C5F30725956105682C59240C0B
:1007000054614FF4DC72046802EB0112A4581C70AF
:100710000468A458240A5C700468A458240C9C70D3
:100720000468A258120EDA704FF4DE72046802EB0D
:100730000112A4581C710468A458240A5C7104684E
:10074000A458240C9C710468A258120EDA71006837
:1007500081B1016941F020010161002030BDE468F0
:10076000A8E7416A41F400114162012030BD6D0DDE
:100770001560AFE7C16841F02001C160EDE72DE9E8
:10078000F05F0546006800244669D0F80490876849
:10079000D0F80CB0D0F810A0D0F81880F10748D0ED
:1007A000F90714D001218160B80703D5284600F06D
:1007B0004EFA0CE0780702D54FF4006407E03807E2
:1007C00002D54FF4805402E0284600F03FFAF805C5
:1007D00016D529684FF480708860B80503D528467F
:1007E00000F037FA0CE0780502D544F4005407E035
:1007F000380502D544F4804402E0284600F028FA87
:10080000F80316D529684FF480308860B80303D503
:10081000284600F020FA0CE0780302D544F40044A6
:1008200007E0380302D544F4803402E0284600F0A3
:1008300011FA300707D55FEACB6004D5296810208C
:1008400044F40074C86070074FF0080707D55FEAEA
:100850000B7004D52868C760284600F099F9B007E6
:1008600006D52868C068800702D0284600F092F9B3
:10087000700607D55FEACA6004D52968102044F4E1
:1008800080640861B00607D55FEA0A7004D528685D
:100890000761284600F0AAF9F00606D52868006925
:1008A000800702D0284600F0A2F9B00308D55FEA1D
:1008B000C96005D5296810204860284600F098F9DD
:1008C000F00307D55FEA097004D528684760284619
:1008D00000F0C2F9300446D55FEA497040D5F00512
:1008E00004D55FEAC87001D044F00104B00504D516
:1008F0005FEA887001D544F00204700504D55FEA10
:10090000487001D544F00404300529D518F0700F63
:1009100026D008F07000402815D006DC102809D039
:1009200020280AD0302816D10AE050280ED060289E
:1009300011D10EE044F008040DE044F010040AE088
:1009400044F0200407E044F0400404E044F0800454
:1009500001E044F480742868816921F070018161AC
:10096000296804204860002C05D0686A204368622A
:100970002846FFF78FFEBDE8F09F70B5040003D056
:1009800094F8200010B104E0012070BD204600F072
:1009900081F82068016821F00201016000F0ACFBE1
:1009A0000546052604E000F0A7FB401B0A2811D8E5
:1009B000206840688007F6D42068016841F0010192
:1009C000016000F099FB05460BE000F095FB401B31
:1009D0000A2806D9606A40F40030606284F820601A
:1009E000D2E720684068C007EFD0207E0128206849
:1009F00001683DD021F080010160607E01282068FF
:100A0000016838D021F040010160A07E01282068F3
:100A1000016833D021F020010160E07E01282068C8
:100A200001682ED041F010010160207F012820686C
:100A3000016829D021F008010160607F0128206849
:100A4000016824D021F004010160D4E902010843C7
:100A5000D4E90412114308436168491E0843216820
:100A6000C86100206062012084F82000002070BD71
:100A700041F08001C0E741F04001C5E741F02001AD
:100A8000CAE721F01001CFE741F00801D4E741F0B7
:100A90000401D9E7F0B587B0044614216846FFF792
:100AA0004BFC364B3648DFF8D0E01968D4F800C06C
:100AB000334A03250226092710300024491CF44537
:100AC00022D11960012907D1016841F0007101604C
:100AD000006800F000700590106840F00800106099
:100AE0001068CDE9005600F00800CDE904706946B1
:100AF0002448CDE9024500F00FFA00220521142018
:100B000000F086FB142033E0DFF87CE0F44531D1BF
:100B1000D0F800C04CF0806CC0F800C0D0F800C025
:100B200001290CF0806CCDF814C0196007D1016860
:100B300041F000710160006800F0007005901068DD
:100B400040F002001060106802AB00F00200059057
:100B50004FF44050CDE9000683E8B00069460B48E9
:100B600000F0DAF900220521402000F051FB40207E
:100B700000F040FB07B0F0BD00640040140000200E
:100B800030380240000C024000680040000402407F
:100B9000704700001CB56B46124A00211248FFF74F
:100BA0007AFD10480068A0F50071053905D00129CB
:100BB00003D0022901D003290FD1401FC0B200EB9E
:100BC000C0010848843000EB8100016A4A1C3229C8
:100BD0000262694602DC02F0CFFA1CBD02F0D1FAD3
:100BE0001CBD0000A40000201406002070477047C0
:100BF0007047000070B5044690F82000012804D02A
:100C0000606A40F40020606218E0022084F820004E
:100C10002068016821F00101016000F06DFA0546CD
:100C20000EE000BF00F068FA401B0A2808D9606A8D
:100C300040F400306062052084F82000012070BD7F
:100C400020684068C007EDD1606270BD7047704792
:100C50007047704770477047704790F83510022909
:100C600003D08021416501207047052180F83510AF
:100C70000068016821F00101016000207047000058
:100C80002DE9F84304464FF00009CDF80090634881
:100C90004FF41651A56D0068B0FBF1F72E6894F87B
:100CA0005C10082000FA01F131420FD021680A6877
:100CB00052070BD50A6822F004020A6094F85C100F
:100CC0008840A860606D40F00100606594F85C1099
:100CD0004FF0010808FA01F0304208D02168496954
:100CE000090604D5A860606D40F00200606594F8C4
:100CF0005C1004208840304208D0216809688907C8
:100D000004D5A860606D40F00400606594F85C1044
:100D100010208840304218D021680968090714D58E
:100D2000A86020680168490304D50068000308D55D
:100D3000A16C07E00168C90503D4016821F008012E
:100D40000160216C09B12046884794F85C1020208E
:100D50008840304231D021680968C9062DD5A86085
:100D600094F8350005282068016806D0490347D566
:100D7000006800031DD4616C1CE021F016010160C5
:100D80002068416921F080014161206C08B9A06CA4
:100D900020B12068016821F00801016094F85C101E
:100DA0003F208840A86084F8349084F83580216D15
:100DB0001FE0E16B09B120468847606D00282BD009
:100DC000606DC00714D0052084F8350020680168E4
:100DD00021F0010101600098401C0090B84203D846
:100DE00020680068C007F6D184F8349084F8358014
:100DF000E16C002910D001B02046BDE8F04308475F
:100E00000168C905D5D4016821F01001016084F89A
:100E1000349084F83580CCE7BDE8F88328000020C2
:100E20002DE9F041044600F067F906465CB1002563
:100E300084F83450022084F835002068016821F0DD
:100E4000010101600DE00120BDE8F08100F054F9DE
:100E5000801B052805D920206065032084F8350013
:100E6000F2E720680068C007F0D1226811682048C6
:100E70000140D4E901031843D4E90336334318434E
:100E800063691843A3691843E3691843236A184345
:100E90000843616A042903D1D4E90B1319430843B9
:100EA000106020684069666A20F0070130460E43F2
:100EB000012704280CD1A06A0643E06A40B120460D
:100EC000FFF7C0FA20B14020606584F83570BAE7BA
:100ED000206846612046FFF7A1FA94F85C203F2184
:100EE00091408160656584F835700020ACE70000B2
:100EF0003F8010F070B5044600F0FEF80546601C17
:100F000002D004480078044400F0F6F8401BA042E8
:100F1000FAD370BD1C0000202DE9F84F00224FF0DD
:100F2000010803254FF00F0E0B6808FA02F4234066
:100F3000A3426ED14E68012E05D0022E03D0112E91
:100F400001D0122E12D186684FEA420C05FA0CF736
:100F5000BE43CF6807FA0CF7374387604668A6435D
:100F60000C79C4F30014944034434460C6685700BD
:100F700005FA07FC8C6826EA0C06BC403443C460C2
:100F80004C68022C01D0122C13D1D40800EB84043D
:100F9000A346D4F8209054074FEAD46A0EFA0AF612
:100FA00029EA06090E6906FA0AF646EA0906CBF8A6
:100FB000206004680E7924EA0C0406F00306BE40A3
:100FC000264306604C68E4006FD53B4C266846F427
:100FD00080462660246822F0030604F480440094CE
:100FE000364C3444A446D4F808489607360F0EFA17
:100FF00006F7BC43324FB84201D100272EE0314FF3
:10100000B84201D1012729E02F4FB84202D102276F
:1010100024E04AE02D4FB84201D103271EE02C4FB7
:10102000B84201D1042719E02A4FB84201D105275F
:1010300014E0294FB84201D106270FE0274FB842EC
:1010400001D107270AE0264FB84201D1082705E061
:10105000244FB84201D1092700E00A27B7402743AF
:10106000CCF80878204E34684F689C43FF0300D5C5
:101070001C4334601C4E361D34684F689C43BF03CC
:1010800000D51C433460184E083634684F689C43C2
:10109000FF0200D51C433460134E0C3634684F6891
:1010A0009C43BF0200D51C433460521C102AFFF43D
:1010B0003BAFBDE8F88F00004438024000300140EB
:1010C000000002400004024000080240000C024000
:1010D000001002400014024000180240001C0240B0
:1010E0000020024000240240003C01400AB181611E
:1010F00070470904FBE70000014880687047000062
:101100001C00002002488168027811448160704709
:101110001C0000200B4810B5016841F4007101600B
:10112000016841F480610160016841F480710160EF
:10113000032000F08DF8002000F006F800F03EF8E3
:10114000002010BD003C024010B5014688B00022CE
:101150002D2000F05DF82D2000F04CF813480024FD
:10116000016841F480710160006805A900F4807095
:101170000690684600F018F900F036F90C49400076
:10118000B0FBF1F10C480B4A491E026040F2E73215
:10119000C0E90324C0E9011400F02CFC10B10120C7
:1011A00008B010BD044800F071FCF9E74038024077
:1011B00040420F0000200040100C00200C4882B07C
:1011C000016841F480410160006800F480400090B3
:1011D0000748001F016841F080510160006800224B
:1011E00000F0805000900F21901E02B000F010B867
:1011F00044380240002809DB00F01F020121914021
:101200004009800000F1E020C0F8001170470000A4
:10121000F0B40E4B1B680C46C3F30223C3F1070561
:10122000042D00D90425191D072901D2002300E04F
:10123000DB1E012606FA05F1491E214099409E4019
:10124000761E16403143F0BC01F099BE0CED00E073
:10125000064900F0070208684FF6FF03184040EA0D
:101260000220034A10430860704700000CED00E0C4
:101270000000FA052DE9F0470E46050065D0DFF8BD
:101280001481D8F80000F7B200F00F00B04207D286
:1012900088F80070D8F8000000F00F00B04254D178
:1012A00028683D4C810712D5400703D5206840F4DB
:1012B000E05020602878000703D5206840F46040A3
:1012C00020602068A96820F0F0000843206028789A
:1012D000C0072DD0304968680839012812D002288B
:1012E00013D0032811D00968890700292DDA216855
:1012F00021F0030101432160FFF7FEFE814641F228
:10130000883A0EE009688903EFE709688901ECE78C
:10131000FFF7F2FEA0EB0901514502D90320BDE819
:10132000F0872068696800F00C00B0EB810FEFD106
:10133000D8F80010404601F00F01B14207D90770FC
:10134000006800F00F00B04201D00120E7E72878E4
:10135000400705D52068E96820F4E0500843206084
:101360002878000706D52068296920F4604040EA03
:10137000C100206000F058F82168084AC1F3031149
:10138000515CC8400649086006480068FFF7DCFE6B
:101390000020C4E7003C024008380240A83E000894
:1013A00028000020200000200F2202600C4A136851
:1013B00003F003034360136803F0F00383601368D2
:1013C00003F4E053C36012684FF4E05303EAD2021F
:1013D00002610448006800F00F00086070470000D8
:1013E00008380240003C024004480549006809688A
:1013F000044AC1F38221515CC84070472800002094
:1014000008380240B83E00080448054900680968E9
:10141000044AC1F34231515CC840704728000020A3
:1014200008380240B83E0008154810B5006810F0B2
:101430000C02144813D01449042A0FD0082A0ED1E4
:101440000F4C241F2268236802F03F025B0207D57D
:101450002068C0F38810A0FB010106E0084610BD1B
:101460002168C1F38811A1FB00010023FEF71AFFD8
:101470002168C1F30141491C4900B0FBF1F010BDE6
:10148000083802400024F400001BB7002DE9F84F93
:10149000040076D02078DFF838A3CE4DC00749D0BD
:1014A000DAF800105046C1F38101012908D0006824
:1014B000C0F3810002280AD1281D0068400206D529
:1014C0002868800336D560680028E2D032E0606882
:1014D000B0F5803F10D0B0F5A02F286810D020F4D0
:1014E00080302860286820F4802028606068A0B1DF
:1014F000FFF702FE06460CE0286840F48030F4E76F
:1015000040F480202860F7E7FFF7F6FD801B642891
:1015100073D828688003F7D50CE0FFF7EDFD064689
:1015200005E000BFFFF7E8FD801B6428F0D82868BD
:101530008003F7D42078DFF8A08280074FF00009FD
:101540003ED5DAF80010504611F00C0F09D00068B3
:10155000C0F3810002280BD19D48001F00684002A3
:1015600006D42868800715D5E068012809D111E064
:10157000E068B8B10120C8F80000FFF7BDFD0646DD
:1015800005E020E1FFF7B8FD801B0228C0D82868DD
:101590008007F7D52868216920F0F80040EAC100EB
:1015A00028600DE0C8F80090FFF7A6FD064604E0AD
:1015B000FFF7A2FD801B02281FD828688007F7D4F8
:1015C0002078000722D5824E844861696C3671B15B
:1015D00001210160FFF790FD074604E0FFF78CFD55
:1015E000C01B022809D830688007F7D50EE0C0F884
:1015F0000090FFF781FD074605E082E0FFF77CFDE4
:10160000C01B02287DD830688007F7D420784007B7
:1016100068D5DFF8BCB100270BF1380BDBF8000010
:10162000C0000BD4DBF8001041F08051CBF8001063
:10163000DBF80000012700F080500090684E306811
:10164000C00510D4306840F480703060FFF754FD5E
:10165000009005E0FFF750FD0099401A022850D88D
:101660003068C005F6D55A4EA068683601280FD0FC
:101670000528306810D020F001003060306820F07C
:1016800004003060A068B8B1FFF736FD00900FE0AD
:10169000306840F00100F4E740F004003060F7E704
:1016A000FFF72AFD0099411A41F28830814266D83D
:1016B00030688007F4D50EE0FFF71EFD009007E0CC
:1016C000FFF71AFD0099411A41F28830814256D83D
:1016D00030688007F4D42FB1DBF8001021F080517E
:1016E000CBF80010A069D0B3DAF800205146C2F35D
:1016F0008102022A4AD00228484607D0C8F8600072
:1017000000E03CE0FFF7F8FC04463BE04746C8F841
:101710006000FFF7F1FC064605E000BFFFF7ECFCB8
:10172000801B02282BD828688001F7D4D4E9070150
:101730000843A16A2B4A490802EB0141626A41EA67
:101740008211084394F82C1040EA01612048001FE0
:10175000016001203866FFF7CFFC044605E034E065
:10176000FFF7CAFC001B022809D828688001F7D5BA
:101770002BE000BFFFF7C0FC001B022802D90320AA
:10178000BDE8F88F28688001F4D41EE00128F7D066
:101790000868E26900F48001914214D1226A00F0E5
:1017A0003F0191420FD147F6C071626A01409142F8
:1017B00009D1A26A00F44031914204D1E16A00F0FB
:1017C0007060884201D00120DAE70020D8E70000ED
:1017D000083802400038024000004742800E47426D
:1017E000007000400000FFFF70B5040005D0002528
:1017F000A56294F8510010B106E0012070BD84F894
:101800005050204600F030F8022084F85100206843
:10181000016821F040010160D4E901010843D4E9E5
:1018200003121143084361690843218B01F40071DD
:101830000843E1690843216A0843A16A0843216813
:101840000860A069042101EA1040616A0843216828
:1018500048602068C16921F40061C16165650120AB
:1018600084F85100002070BD70B586B00646142182
:101870006846FEF761FD2049306888423AD11F482A
:101880000025016841F480110160006800F48010B7
:1018900005901A481438016841F020010160006881
:1018A000694600F0200005904FF46070009002201F
:1018B000CDE9010503200390052004901048FFF7AF
:1018C0002BFB114C0F4820604FF08060C4E90105EC
:1018D0000014C4E9035065614FF44030A561C4E9C8
:1018E000075020466562FFF79BFA08B1FEF7D5FD69
:1018F000F464A66306B070BD005001404438024055
:1019000000140240586402401009002070477047DC
:1019100010B590F83C20012A22D0012280F83C200A
:10192000CA688C6822F4407222434C6822F48062B8
:1019300022430C6822F4006222430C6922F4805294
:1019400022434C6922F400522243C969002322F445
:1019500080420A4301684A6480F83C30002010BD90
:10196000022010BD70B590F83C20012A32D001242D
:1019700080F83C40022280F83D2003685A689D6848
:1019800022F070060A6832435A60134B02689A428A
:1019900014D0B2F1804F11D0104B9A420ED0104BA0
:1019A0009A420BD00F4B9A4208D00F4B9A4205D067
:1019B0000E4B9A4202D00E4B9A4204D1496825F050
:1019C00080031943916080F83D40002180F83C106D
:1019D000084670BD022070BD0000014000040040B8
:1019E00000080040000C004000040140004001409D
:1019F0000018004010B5040003D094F83D0010B169
:101A000007E0012010BD002084F83C00204600F0D3
:101A10000DF8022084F83D00211D206801F01AF81D
:101A2000012084F83D00002010BD000008B50168C9
:101A30001248814208D11248016841F00101016059
:101A4000006800F001000BE00D480E4A001F9142B3
:101A500008D1016841F002010160006800F0020055
:101A6000009008BD084A9142FBD1016841F0400155
:101A70000160006800F04000F2E700000000014053
:101A80004438024000040040001800400168CA6861
:101A900042F00102CA600068816801F0070106296E
:101AA00003D0016841F0010101600020704770B56A
:101AB000044690F83C00012817D0012584F83C50DA
:101AC000022084F83D002068826822F0770222F428
:101AD0007F4282600868502830D00DDC20284DD02D
:101AE00005DC98B310283BD148E0022070BD3028B7
:101AF00044D0402834D139E0602828D0702806D05E
:101B0000B0F5805F2CD0B0F5005F29D10AE0CB683A
:101B1000D1E90121206801F001F82068816841F0D5
:101B2000770109E0CB68D1E90121206800F0F6FFD8
:101B30002068816841F48041816011E0CA68496889
:101B4000206801F0BFF85021206807E016E0CA685D
:101B50004968206801F0C7F86021206800F0E8FFBC
:101B600084F83D50002084F83C0070BDCA68496884
:101B7000206801F0A7F840212068EFE722680146BD
:101B80001046EBE7704770B50446006801694FF0F6
:101B90000005C943890715D4C168C943890711D411
:101BA000E91E0161012020772068806980072046B6
:101BB00002D0FFF7E7FF04E000F004F9204600F050
:101BC00086F9257720680169C943490717D4C16898
:101BD000C943490713D46FF0040101610220207743
:101BE0002068806910F4407F204602D0FFF7CAFFCA
:101BF00004E000F0E7F8204600F069F92577206856
:101C00000169C943090716D4C168C943090712D439
:101C10006FF008010161042020772068C069800707
:101C2000204602D0FFF7AEFF04E000F0CBF82046DC
:101C300000F04DF9257720680169C943C90617D41A
:101C4000C168C943C90613D46FF0100101610820AF
:101C500020772068C06910F4407F204602D0FFF74B
:101C600091FF04E000F0AEF8204600F030F925774F
:101C700020680169C943C90708D1C168C943C907B8
:101C800004D1891E0161204600F022F92068016913
:101C9000C943090609D4C168C943090605D46FF0D0
:101CA000800101612046FFF731FE20680169C943C8
:101CB000490609D4C168C943490605D46FF04001FB
:101CC0000161204600F00EF920680169C9438906C8
:101CD0000BD4C168C943890607D46FF020010161A4
:101CE0002046BDE87040FFF712BE70BD70B586B0EB
:101CF000044614216846FEF71FFB2A4A2168002586
:101D0000294802240126914222D1016841F00101B3
:101D10000160016801F001010591016841F01001C5
:101D200001600068694600F0100005904FF44070B3
:101D30008DE83100CDE903561C48FFF7EDF84FF46C
:101D4000C0408DE83100CDE903566946184811E0DE
:101D5000184A914212D1016841F002010160006805
:101D6000694600F00200059020208DE83100CDE9A1
:101D700003541148FFF7D0F806B070BD0F4A9142E6
:101D8000FAD1016841F0800101600068694600F005
:101D90008000059040208DE851000920CDE90340E6
:101DA0000748E7E7000001403038024000000240E9
:101DB00000100240000400400004024000180040EF
:101DC000001C0240704770B5044690F83C000D4678
:101DD00001280DD0012684F83C60022084F83D00E3
:101DE00042B1042A18D0082A2AD00C2A4DD139E051
:101DF000022070BD206800F0A3FE2068816941F0D8
:101E0000080181612068816921F0040181612068F5
:101E100081692A69114311E0206800F0C1FE206841
:101E2000816941F4006181612068816921F48061E8
:101E30008161206881692A6941EA0221816124E087
:101E4000206800F0E3FE2068C16941F00801C1612B
:101E50002068C16921F00401C1612068C1692A6953
:101E6000114311E0206800F005FF2068C16941F4CA
:101E70000061C1612068C16921F48061C16120688D
:101E8000C1692A6941EA0221C16184F83D600020EC
:101E900084F83C0070BD10B5040003D094F83D00F8
:101EA00010B107E0012010BD002084F83C0020465E
:101EB00000F00CF8022084F83D00211D206800F09D
:101EC000C9FD012084F83D00002010BD7047704717
:101ED00000680349884201D1FFF714B97047000038
:101EE000002000407047704770B5026804461068D3
:101EF000D168536910F00F0F53D003F0010501F4BE
:101F000090762E435FD0C20705D0CA0503D5E26B99
:101F100042F00102E263420705D5DA0703D0E26B23
:101F200042F00202E263820705D5DA0703D0E26BD2
:101F300042F00402E263020707D501F020022A43BF
:101F400003D0E26B42F00802E263E26B002A34D075
:101F5000800604D5880602D5204600F0ECFE2068F5
:101F60004069E16BC0F3801001F008010143204695
:101F700024D000F0D2FE2068416949061AD5416993
:101F800021F040014161606BA0B11B490165606BAC
:101F9000FEF763FE002810D0606B016DBDE8704055
:101FA000084783060FD58B060DD52046BDE8704047
:101FB00000F0C1BE2046FFF796FF70BDFFF793FF0C
:101FC0000020E06370BD030606D50B0604D520464D
:101FD000BDE8704000F08EBF4006F3D54806F1D54D
:101FE000D168204621F04001D160202184F83910C9
:101FF00000F017F970BD00000B2D000870B504004B
:1020000004D094F83900002510B106E0012070BD1D
:1020100084F83850204600F023F8242084F8390052
:102020002068C16821F40051C160204600F0CEFE56
:102030002068016921F4904101612068416921F023
:102040002A0141612068C16841F40051C160E56323
:10205000202084F8390084F83A00002070BD000088
:102060002DE9F04786B0064614216846FEF764F96C
:102070006248DFF88481D6F800C060491438022233
:1020800001230325072700244FF000694FF4806ADD
:10209000C44533D1D1F800C04CF0100CC1F800C0D9
:1020A000096801F010010591016841F00201016029
:1020B0000068694600F002000590C0208DE8AD0080
:1020C0004F48FEF729FF504D4E482860C5E901945E
:1020D000C5E9034A6C61AC61EC612C6228466C6214
:1020E000FEF79EFE08B1FEF7D8F9756300220521C0
:1020F0002520AE63FFF78CF8252054E0DFF80C8133
:10210000C44555D13D49091FD1F800C04CF4802C7D
:10211000C1F800C0096801F480210591016841F00F
:10212000080101600068694600F0080005904FF45E
:1021300040708DE8AD003648FEF7EEFE324D354872
:1021400060354F462860C5E90194C5E9034A6C61D2
:10215000AC61EC612C62D04628466C62FEF760FEF2
:1021600008B1FEF79AF97563AE63274D2948C0356B
:102170003030E5E802074020A5E81101224845F883
:102180001449C030AC61EC612C626C62FEF748FE11
:1021900008B1FEF782F93563002205212720AE63DE
:1021A000FFF736F82720FFF725F806B0BDE8F087DF
:1021B000194CA445F9D10C6844F020040C6009685E
:1021C00001F020010591016841F0400101600068C3
:1021D000694600F0400005904FF484408DE82D00E2
:1021E000082004900D48FEF797FE002205214720A5
:1021F000FFF70EF84720D6E70010014044380240B0
:102200000004024040640240F00A00200048004000
:10221000000C0240286002400014014000180240F7
:1022200070477047FEE700000F4810B50D49016088
:102230000321416000214FF410228160C0E90312A4
:102240004FF400124261017641768176C1760177C2
:102250004177FEF792FB002803D0BDE81040FEF75F
:102260001CB910BD00640040140600200F4810B5D2
:102270000D4901600321416000214FF4102281606B
:10228000C0E903124FF40012426101764176817673
:10229000C17601774177FEF770FB002803D0BDE8D7
:1022A0001040FEF7FAB810BD006800403C06002060
:1022B000194808B5016841F480010160016801F422
:1022C00080010091016841F4001101600068002262
:1022D00000F40010009005210C20FEF799FF0C205F
:1022E000FEF788FF002205210E20FEF791FF0E2049
:1022F000FEF780FF002205213A20FEF789FF3A20F1
:10230000FEF778FF002205213B20FEF781FFBDE8A4
:1023100008403B20FEF76EBF3038024010B58EB04B
:102320001C220B496846FDF7EEFF0021684600F0CD
:102330008AFF084C06491C2220601C3107A8FDF7C3
:10234000E2FF002107A800F07EFF20600EB010BD64
:10235000683E0008180000202DE9F04F87B01421D6
:102360006846FDF7E9FF51480025016841F010017A
:102370000160016801F010010591016841F002015E
:102380000160016801F002010591016841F040011E
:102390000160016801F040010591016841F001010F
:1023A0000160016801F001010591016841F0080137
:1023B0000160016801F008010591016841F0040124
:1023C0000160016801F004010591016841F080019C
:1023D0000160016801F080010591016841F0200170
:1023E00001600068DFF8C88000F02000059000223E
:1023F00040F604014046FEF779FEDFF8B8A042F24D
:10240000FE17002239465046FEF770FEDFF8A8900E
:1024100000223C214846FEF769FEDFF8A0B000220A
:1024200044F240015846FEF761FE01240420CDE944
:1024300000040226CDE9024669464046FEF76CFDDF
:10244000200200901E48CDE9010569461D48FEF7AF
:1024500063FD0097CDE90145694650460395FEF7B7
:102460005BFD3C20CDE90004029469464846039494
:10247000FEF752FD4020CDE90004CDE90246694651
:102480005846FEF749FDE0028DE8310069464046B6
:102490000395FEF741FDA0038DE8310069465846DB
:1024A0000395FEF739FD07B0BDE8F08F30380240E4
:1024B0000010024000180240001C024000140240BC
:1024C0000000111000040240104810B50E490160D0
:1024D0004FF48271416000218160C1604FF400724D
:1024E0000161C0E905123022C0E907214162816221
:1024F0000A21C162FFF778F9002803D0BDE8104037
:10250000FDF7CBBF10BD000000500140B80800200F
:1025100010B58CB000240794089409941C216846D7
:102520000A94FDF709FF1A48184901605321C0E9D0
:10253000011440F6C311C0E903148461FFF75AFA8D
:1025400008B1FDF7AAFF4FF48050079007A9104883
:10255000FFF7ADFA08B1FDF7A0FF0D48FFF79BFCB0
:1025600008B1FDF79AFF6020CDE900040294002233
:10257000694607480494FFF726FC08B1FDF78DFF74
:102580000348FFF7B3FB0CB010BD0000001800407B
:10259000F009002010B596B000240F941094119407
:1025A000129413941C2168461494FDF7C5FE202153
:1025B00007A8FDF7C1FE354833490160A721C0E9EE
:1025C000011444F62061C0E9031444618461FFF7FB
:1025D00011FA08B1FDF761FF4FF480500F900FA979
:1025E0002A48FFF764FA08B1FDF757FF2748FFF7BD
:1025F00052FC08B1FDF751FF139413A9234814941A
:10260000FFF7B0F908B1FDF748FF602000904FF4E4
:10261000FA60CDE90104039404940594002269460C
:102620001A480694FFF7CFFB08B1FDF736FF0422E6
:1026300069461648FFF7C7FB08B1FDF72EFF0822D1
:1026400069461248FFF7BFFB08B1FDF726FF0C22D1
:1026500069460E48FFF7B7FB08B1FDF71EFF079468
:10266000089409944FF400500A94CDE90B4007A94F
:1026700006480E94FFF74CF908B1FDF70EFF03482A
:10268000FFF734FB16B010BD0000014070090020B8
:1026900010B58EB000240794089409940A940B9402
:1026A0001C2168460C94FDF747FE1D481B4901603C
:1026B0005321C0E90114C46004618461FFF79AF9F1
:1026C00008B1FDF7EAFE4FF48050079007A91448BF
:1026D000FFF7EDF908B1FDF7E0FE1148FFF7DBFB6E
:1026E00008B1FDF7DAFE0B940BA90D480C94FFF727
:1026F00039F908B1FDF7D1FE6020CDE9000402945C
:102700000422694606480494FFF75DFB08B1FDF713
:10271000C4FE0348FFF7EAFA0EB010BD0004004003
:10272000B00900200C4810B50A4901600B4941600E
:10273000002181600C22C160C0E904128161C16185
:10274000FFF75CFC002803D0BDE81040FDF7A5BEF4
:1027500010BD000000100140300A0020A0860100DA
:102760000C4810B50A4901604FF4E1314160002185
:1027700081600C22C160C0E904128161C161FFF770
:102780003DFC002803D0BDE81040FDF786BE10BD1B
:1027900000480040700A00200C4810B50A4901604A
:1027A0004FF4E1314160002181600C22C160C0E939
:1027B00004128161C161FFF721FC002803D0BDE84C
:1027C0001040FDF76ABE10BD00140140B00A0020A1
:1027D000FEE770479FED502AA0B1D0ED101AC0ED72
:1027E000111A90ED0F1A80ED101AC0ED060A80ED57
:1027F000070A30EEC00A80ED0F0A017829B10129DD
:102800003BD086E0B0EE420A7047D0ED010A60EEA0
:10281000801AC0ED091AD0ED0A0A90ED022A42EEA4
:10282000000A30EE410AC0ED0A0A90ED0D2A80ED53
:102830000E2A90ED0C2A80ED0D2A80ED0C0A90ED09
:10284000031A21EE001A80ED0B1A90ED050AF4EE42
:10285000C00AF1EE10FA09DCB1EE400AF4EEC00A4B
:10286000F1EE10FA02D390ED0A0A01E080ED0A0AB7
:1028700031EE800A30EE010A39E010EE101AB1F1A3
:10288000804F06DC10EE101AB1F1404F01D880EDF8
:102890000F2A90ED0F0A90ED012A70EE410A60EECA
:1028A000820AC0ED090A90ED022A22EE002A80ED8C
:1028B0000A2AD0ED0D2A70EE820AC0ED0E2AD0ED64
:1028C0000C2AC0ED0D2AF0EE002A01EE620A30EE6D
:1028D000210A80ED0C0A90ED031A21EE000A80ED2A
:1028E0000B0A30EE800AD0ED080A30EE200A80EDA7
:1028F000080AD0ED040AB4EEE00AF1EE10FA06DCA4
:10290000F1EE600AB4EEE00AF1EE10FA01D2C0ED89
:10291000080A90ED080A704700000000002826D041
:10292000002A24D0017092ED001A80ED011A92ED78
:10293000011A80ED021A92ED021A80ED031A80ED61
:10294000040A9FED0B0AC0ED050A80ED0E0A80ED2A
:102950000D0A80ED0C0A80ED0B0A80ED0A0A80ED6D
:10296000090A80ED110A80ED100A80ED0F0A704708
:1029700000000000012000F05AFCFBE710B55020D9
:1029800080F31188BFF34F8FBFF36F8F01F09AF977
:1029900018B104494FF080500860002080F311887E
:1029A00010BD000004ED00E030B593B03021684662
:1029B000FDF7C2FC14210CA8FDF7BEFC1948002548
:1029C000016841F080510160006800F08050119072
:1029D0001548016841F4404101600068022400F498
:1029E0004040119001200090000401908001CDE949
:1029F000064006200890A820CDE9090404200B9089
:102A00006846FEF743FD0CA90F2081E831004FF422
:102A1000A0500F90E002109005210CA8FEF72AFCB0
:102A200013B030BD403802400070004005480168D6
:102A300041F47001016003494FF000608039086083
:102A40007047000088ED00E00148FFF79CB80000E7
:102A5000100C0020F0B50268254C264D264E274F5D
:102A6000274B4FF0804CA04209D0604507D0A842C8
:102A700005D0B04203D0B84201D0984204D122F030
:102A8000700E4A6842EA0E02A0421BD0604519D07F
:102A9000A84217D0B04215D0B84213D0984211D0F6
:102AA000184DA8420ED0184DA8420BD0174DA84281
:102AB00008D0174DA84205D0164DA84202D0164D99
:102AC000A84203D122F44075CA682A434D6922F016
:102AD00080022A4302608A68C2620A688262A04257
:102AE00001D0984201D10969016301214161F0BD22
:102AF000000001400004004000080040000C0040BD
:102B000000040140004001400044014000480140F1
:102B100000180040001C00400020004010B58468F0
:102B200042EA032224F47F440A432243826010BD18
:102B3000826822F070020A4342F007018160704708
:102B4000F0B5026A22F001020262036A42688469F7
:102B5000124E24F073050C682C4323F002058B6899
:102B60002B430D4DA84201D0B04205D123F00807F8
:102B7000CB683B4323F00403A84201D0B04205D107
:102B80004D6922F4407215438A692A434260846188
:102B9000496841630362F0BD000001400004014048
:102BA000F0B5026A22F010020262026A4368846988
:102BB0000D6824F4E64444EA05248D6822F02002DE
:102BC00042EA05120F4D104EA84201D0B04206D184
:102BD000CF6822F0800242EA071222F04002A842A7
:102BE00001D0B04207D14D6923F4406343EA850325
:102BF0008D6943EA850343608461496881630262A9
:102C0000F0BD00000000014000040140F0B5026A80
:102C100022F480720262026A4368C46922F400727C
:102C200024F073050C68124E2C438D6842EA05228D
:102C30000E4DA84201D0B04206D1CF6822F4006206
:102C400042EA072222F48062A84201D0B04207D1B2
:102C50004D6923F4405343EA05138D6943EA051394
:102C60004360C4614968C1630262F0BD0000014075
:102C70000004014030B5026A22F480520262046A04
:102C80004268C3690D6823F4E64343EA05238D686F
:102C900024F4005444EA0534084DA84202D0084DFB
:102CA000A84204D14D6922F4804242EA8512426072
:102CB000C36149680164046230BD00000000014046
:102CC0000004014010B5036A046A24F001040462A0
:102CD000846924F0F00444EA021423F00A020A434F
:102CE0008461026210BD10B5036A23F01003036211
:102CF0008369046A23F4704343EA023224F0A00398
:102D000043EA01118261016210BD10B5806B0021A0
:102D1000C185C184FFF7E7F810BD0168CA6822F4D5
:102D20009072CA6001684A6922F001024A6120215A
:102D300080F83A10704710B590F83A10222901D067
:102D4000022010BD8168B1F5805F11D001690029B2
:102D500001681FD0496801F07F03816A4A1C8262C2
:102D60000B70C18D491E0904090CC18518D02BE0D8
:102D70000269816A002A0268526805D0D2B20A80CC
:102D8000816A491C8162ECE7C2F308020A80816A09
:102D9000891CF7E74A68816A4B1C83620A70E0E786
:102DA0000168CA6822F02002CA600168CA6822F479
:102DB0008072CA6001684A6922F001024A612021DA
:102DC00080F83A10FFF72CFA002010BD2DE9F041F1
:102DD000044600680169E26821F440511143016131
:102DE0002169A068E26908436169114308432168C9
:102DF000CA6849F20C639A430243CA602068416979
:102E0000A26921F4407111434161E06919276425E9
:102E10003226B0F5004F354A354920684FF000089A
:102E200006D0884201D0904236D1FEF7EDFA35E067
:102E3000884201D0904202D1FEF7E6FA01E0FEF7A7
:102E4000D3FA61684A18A0FB070148EB0803FDF7B5
:102E500029FA0146B0FBF5F00201B1FBF5F06FF085
:102E60001803584301EB800006EBC000B0FBF5F0FF
:102E700000F0F80002EB4002B1FBF5F0584301EB23
:102E8000800006EBC000B0FBF5F000F00700216801
:102E900010448860BDE8F081FEF7A6FA61688B0FE8
:102EA0008A00A0FB0701FDF7FDF90146B0FBF5F034
:102EB0006FF01802504301EB800006EB0010B0FBEE
:102EC000F5F000F0F002B1FBF5F002EB0012B1FBFF
:102ED000F5F06FF01803584301EB800006EB00108B
:102EE000B0FBF5F000F00F00D1E700000014014046
:102EF0000010014090F83910212901D002207047BC
:102F00008168B1F5805F016A0BD04A1C02620268D9
:102F100009785160C18C491E0904090CC1840ED086
:102F200017E009880268C1F30801516001690029AE
:102F3000016A02D0491C0162ECE7891CFBE70168C9
:102F4000CA6822F08002CA600068C16841F040018E
:102F5000C1600020704700000148FEF7C5BF0000B7
:102F6000300A00200148FEF7BFBF0000700A0020B1
:102F70000148FEF7B9BF0000B00A0020FEE70907CC
:102F8000090E002804DB00F1E02080F800147047EF
:102F900000F00F0000F1E02080F8141D704702E0FF
:102FA00008C8121F08C1002AFAD1704770470020D4
:102FB00001E001C1121F002AFBD170472DE9F04149
:102FC00006462DED028B00259FED138A05EBC5000B
:102FD00006EB8004F0EE480AC4ED050A06EBC007D4
:102FE00094ED030A07F53470FFF7F4FB84ED060A4D
:102FF000F0EE400A94ED020A07F5D870FFF7EAFBFD
:10300000BDEEC00A6D1C042D10EE100A2084DDDB1D
:10301000BDEC028BBDE8F0810080BB4530B40028D8
:103020003ED000219FED1F0A01EBC103491C50F85F
:1030300023400429B4F9062000EE902A00EB830215
:1030400000EBC303F8EEE00AC2ED040AB4F9025043
:1030500000EE905AF8EEE00AC2ED020AD3ED780ACB
:1030600060EE800AC2ED010AD4ED040AF8EEE00A2F
:10307000C2ED030AD8DB0C4990ED020A81ED020A89
:1030800090ED060A81ED030A90ED030A81ED000A36
:1030900090ED050A054881ED010A30BCFFF78EBFAF
:1030A00030BC70476F12033B000000202402002058
:1030B0002DED048B40F2651000F0A0FC224E9FED38
:1030C000238ADFED238A9FED239ADFED239A0024E4
:1030D000E0B200F047F8014604EBC40006EBC0057F
:1030E00046F8201005F5D870F0EE480AB0EE680AF0
:1030F0001A4A0021FFF712FC184A05F53470F0EE69
:10310000490AB0EE690A0C320021FFF707FC641C83
:10311000042CDDDB3046FFF781FF0B4C104D0A48D5
:10312000FFF77CFFB4F98C30B4F96820B4F944108F
:10313000B4F92000FDF74AF9022000F05FFC0020FE
:1031400000F006FB2861EAE72402002000803B45EE
:1031500000008046000000000000C843503E000808
:103160000000002000F00300024900EBC00001EB6A
:103170008000704728010020098849BA4181818375
:10318000704710B5B0F90A308381C28882804288C6
:103190000280026982610A8852BA42814C88D31A3D
:1031A00064BA44808C88B3F5805F64BAC48089793E
:1031B0000172B0F90E1001DD491E03E013F5805FC6
:1031C00001DA491CC181B0F90E1002EB4131B0F9AE
:1031D0001C20891A1322016191FBF2F1416110BD9B
:1031E000FDF798FFFFF7E0FBFFF7B6F8FFF760F891
:1031F000FFF71AF8FFF73AF8FFF766F9FFF7CAF991
:10320000FFF746FAFFF784F9FFF78CFAFFF7A8FA01
:10321000FFF7C2FA00F006FBFFF780F800F00EF8A7
:10322000FEE701460020842900D0C81C704710B575
:1032300000B9012000F0E2FB002010BD10B500F045
:1032400003FC002010BD7FB50D4604464169B0F96E
:10325000080081B1A16971B1FFF7E3FFD4E905125C
:103260008DE80700D4E900102B46226900F0FFFC2E
:10327000039004B070BDFFF7D4FF03A9CDE90001AE
:10328000208A2B4682B2D4E9001000F0C3FC01284A
:1032900001D00020EDE70398EBE700002DE9F041B5
:1032A000184C0F46054666692068001D00F03CFA80
:1032B00038B9206890F82C1001208840A16981431A
:1032C000A161681C07D137B12168BDE8F0410E4803
:1032D000091D00F013BB20683544B54245602168E4
:1032E00005D2A068BDE8F041091D00F0EFBA6068A2
:1032F000091D00F0EBFA206B854200D22563BDE882
:10330000F08100002C0000202C0D00202DE9F04160
:10331000054600F0FFFA2E4C2069401C2061206811
:103320002C4F10B1E06940B32DE0256020690128E1
:1033300029D1002606EB860007EB800000F0B8FAE2
:10334000761C072EF6D323488C3000F0B1FA2148C2
:10335000A03000F0ADFA1F48B43000F0A9FA1D48C3
:10336000C83000F0A5FA1B48DC3000F0A1FA19487B
:103370008C3060601430A06005E02068E96AC06AA3
:10338000884200D82560E06A401CE062E96A0120BA
:10339000A26988401043A06101EB810007EB800027
:1033A000291D00F0ABFA00F0D5FAE06900280CD036
:1033B0002068E96AC06A884207D207494FF0805006
:1033C0000860BFF34F8FBFF36F8FBDE8F08100003F
:1033D0002C000020500C002004ED00E010B5044645
:1033E00090F8510058B101280CD002280FD050207D
:1033F00080F31188BFF34F8FBFF36F8FFEE7206B11
:1034000000F0BCFA2046BDE8104000F0B7BA10BD8D
:1034100010484FF47051420706D0C01D0D4920F0EE
:103420000700411AC1F570510B4A00230144C2E95B
:1034300000030839103A21F0070111604B600B605E
:103440000B1AC0E9001393604FF000405360D06046
:1034500070470000400D002078000020144E154CED
:10346000A6F1C8074FF08058DFF84C9012E000BF7B
:1034700000F050FAF068C568281D00F055F9206981
:10348000401E2061E068401EE06000F063FA2846BC
:10349000FFF7A4FFE0680028EAD138680128F9D9CD
:1034A000C9F80080BFF34F8FBFF36F8FF2E70000C2
:1034B000180D00202C00002004ED00E02DE9F0475D
:1034C0000E46DDE909841746824691009946089D1B
:1034D000A522206BFCF729FF6FF00301206B01EBA5
:1034E0008701084420F00707780707D0502080F3B1
:1034F0001188BFF34F8FBFF36F8FFEE72218315C47
:1035000082F83410315C11B1401C1028F6D300262B
:1035100084F84360072D00D30625E562C4E91156FF
:10352000201D00F0D0F904F1180000F0CCF924615E
:10353000C5F107006462A061E66484F850604A4601
:103540005146384600F0BEF82060B8F1000F01D0B7
:10355000C8F80040BDE8F08730B5114900E01146D9
:103560000A688242FBD34B685C18844203D14068EE
:1035700018444860084643681C18944209D1084C16
:10358000103C2468A24209D052681A4442600A687A
:1035900012680260814200D0086030BD0460F9E723
:1035A0007800002006484168096829B14168C96867
:1035B000C9684968016370474FF0FF31FAE70000BE
:1035C0002C00002008484068401C4FF0500080F359
:1035D000118804D0BFF34F8FBFF36F8FFEE7BFF3A7
:1035E0004F8FBFF36F8FFEE7800000202DE9F04181
:1035F0000546002700F05EFA314E306808B9FFF743
:1036000007FFF06805424BD1C5B3083568070ED0F7
:1036100005F00700C0F108000544680707D05020F6
:1036200080F31188BFF34F8FBFF36F8FFEE72DB389
:103630007068854234D82248103001460C6801E099
:1036400020460C466168A94202D221680029F7D1C0
:1036500031688C4224D007682168016060680837AF
:10366000411B10290FD96019420708D0502080F360
:103670001188BFF34F8FBFF36F8FFEE710E04160FB
:103680006560FFF769FF61687068401A7060B26832
:10369000904200D2B060F06801430020C4E900010C
:1036A00000F074FB780707D0502080F31188BFF337
:1036B0004F8FBFF36F8FFEE73846BDE8F081000003
:1036C0006800002010B5031F4FF080741C601B1FA2
:1036D00021F001011960191F044B0B6014390A60B5
:1036E000091F6FF0020244380A6010BDC53500089A
:1036F0007CB5160A8DF800608DF801201A0ADDE904
:1037000006548DF802202A0A8DF804208DF8055001
:10371000220A8DF806208DF803308DF80740082323
:103720006A4600F06CF87CBDD0E9013201699A600C
:10373000D0E901235A604A68824201D182684A6016
:10374000002202610868401E086008687047000097
:1037500008B9064800680021006B01E0401C491CC4
:103760000278A52AFAD0C1F38F0070472C00002000
:103770002DE9FF4F87B09C468846DDE91601DDE95B
:1037800014230DF16C0E9EE8F00ECDE900016146A8
:10379000404600F02CF88DE8F00E0DF1600E09980F
:1037A0009EE80E0000F014F809990798FCF7ECFE6B
:1037B00002E06420FDF79EFB0798FDF71BFA002846
:1037C000F7D107980BB00221BDE8F04FFCF766BEB9
:1037D00070B5049E069D0A9C80E84E000021C0E959
:1037E000041581610121C161C0E9081470BD30B5C3
:1037F000DDE9034580E83E000121017530BDF8B5E3
:1038000015460C4606460B6102E00A20FDF772FBE6
:103810006B462A4621463046FCF752FE0028F4D17A
:10382000F8BD0000F0B58FB000240125079408947E
:103830000827CDE90247CDE90A450E26144ACDE90D
:103840000C560694099405940494009440F2FF13D6
:10385000A2F134010F480194FFF78AFFCDE9084631
:103860000794CDE902471B20CDE90A45084ACDE976
:103870000C50069405944032049400946B02A2F11B
:10388000180101940448FFF773FF0FB0F0BD00006A
:10389000C0000020140600203C060020034B0360FB
:1038A00003F1540008608020106070476406002017
:1038B00000F108014FF0FF32C0E90112C16001615F
:1038C00000210160704700210161704730B50B682D
:1038D0005A1C02D000F1080202E0026904E022460C
:1038E000546825689D42FAD953684B6099608A6094
:1038F000516008610168491C016030BD42684A603E
:1039000093688B6093685960916008610168491CF5
:1039100001607047502080F31188BFF34F8FBFF3D1
:103920006F8F0A494868401C486001280CD108483C
:10393000006810F0FF0F07D0502080F31188BFF30C
:103940004F8FBFF36F8FFEE77047000080000020AD
:1039500004ED00E00849486828B1401E486001D1E4
:1039600080F311887047502080F31188BFF34F8F88
:10397000BFF36F8FFEE700008000002070B50028C5
:1039800027D0144DA0F108046168E868014207D10E
:10399000502080F31188BFF34F8FBFF36F8FFEE786
:1039A00022683AB1502080F31188BFF34F8FBFF3E4
:1039B0006F8FFEE78143616000F07CF860686968A2
:1039C000084468602046FFF7C7FDBDE8704000F07E
:1039D000DDB970BD680000204FF0E02000210161DA
:1039E000816105494FF47A720968B1FBF2F1491E11
:1039F00041610721016170472800002010B50200D5
:103A000014D00F48806B38B1502080F31188BFF379
:103A10004F8FBFF36F8FFEE700F04CF80021104688
:103A2000FFF73CFC00F0B2F9002807D105494FF040
:103A300080500860BFF34F8FBFF36F8F10BD000041
:103A40002C00002004ED00E010B586B000240394A3
:103A500005AA04A903A80494FFF720FFDDE90301E8
:103A60000094CDE9011000230EA11048059A00F042
:103A7000FEF80F490028486311D0502080F31188C8
:103A8000BFF34F8FBFF36F8F4FF0FF3008630120FC
:103A9000C8614C6106B0BDE8104000F041B806B006
:103AA00010BD000049444C45000000005D34000892
:103AB0002C0000200248816B491C81637047000084
:103AC0002C0000201448816B11B101214162704724
:103AD000002141628169B1FA81F1C1F11F0101EB5D
:103AE00081020E4951F822306BB101EB820101F1E4
:103AF00008034A6852684A609A4201D152684A6093
:103B0000D16801607047502080F31188BFF34F8F58
:103B1000BFF36F8FFEE700002C000020500C002048
:103B20001CB537480168374A914207D1502080F3CD
:103B30001188BFF34F8FBFF36F8FFEE700683149E5
:103B4000491E884207D1502080F31188BFF34F8F60
:103B5000BFF36F8FFEE72C4908780190FF200870B3
:103B600008788DF800009DF800009DF8002000F016
:103B7000F000904207D0502080F31188BFF34F8FA0
:103B8000BFF36F8FFEE79DF80000204B00F0500060
:103B900018700720986005E09DF8002052008DF80D
:103BA0000020401E9DF800201206F5D498600328DE
:103BB00007D0502080F31188BFF34F8FBFF36F8F72
:103BC000FEE74FF440709860019808700C48203070
:103BD000016841F470010160016841F070410160C9
:103BE000FFF7FAFE00205860FCF70EFB084801685A
:103BF00041F040410160FCF7F3FA00201CBD0000D9
:103C000000ED00E071C20F4100E400E08000002000
:103C100034EF00E02DE9FF5F8346DDE90E8799462A
:103C200016468A469000FFF7E1FC05001CD05420A0
:103C3000FFF7DCFC040014D00020256384F8510059
:103C4000CDE90240CDE900874B4632465146584601
:103C5000FFF734FC2046FFF759FB012004B0BDE814
:103C6000F09F2846FFF78AFE4FF0FF30F6E7F0B5E9
:103C700085B0DDE90B640A9DA6B1DCB1542700973D
:103C80002663022684F85160002604AFCDE902467F
:103C9000CDE90057FFF712FC2046FFF737FB0498E9
:103CA00005B0F0BD502080F31188BFF34F8FBFF3F4
:103CB0006F8FFEE7502080F31188BFF34F8FBFF363
:103CC0006F8FFEE72DE9F0412E4C0027A06B40B12D
:103CD000206A401C2062606A00B101273846BDE8B6
:103CE000F0816669761C666113D16068006838B13E
:103CF000502080F31188BFF34F8FBFF36F8FFEE723
:103D00006068A1686160A060A06A401CA062FFF7C3
:103D100049FC206BDFF87080864209D36068006838
:103D200080B16068C068C568686886420DD220634B
:103D30002068C06A00EB800158F821000128CAD928
:103D40000127C8E74FF0FF30F1E7281DFFF7ECFC33
:103D5000A86A18B105F11800FFF7E6FCE86A01212E
:103D6000A26981401143A16100EB800108EB810051
:103D7000291DFFF7C3FDE86A2168C96A8842CDD3CF
:103D80000127CBE72C000020500C00202DE9F04744
:103D90002C4D00242746A86B38B1FFF7BBFDA86B5C
:103DA000401EA863A86B40B146E0502080F3118804
:103DB000BFF34F8FBFF36F8FFEE72969224E0120BB
:103DC000D1B3A6F1B40980463068E8B1F068C468A0
:103DD00004F11800FFF7A8FC201DFFF7A5FCE06A1E
:103DE000AA6908FA00F11143A96100EB800109EB0F
:103DF0008100211DFFF782FDE06A2968C96A8842B7
:103E0000E2D3C5F82480DFE70CB1FFF7CBFB2C6AC7
:103E100044B14646FFF756FF00B16E62641EF9D109
:103E200000202862686A38B108490127380708600D
:103E3000BFF34F8FBFF36F8FFFF78CFD3846BDE8A0
:103E4000F08700002C000020040D002004ED00E0AD
:103E5000000080410000803F00000000CDCC4C3EBF
:103E60000000000000004040CC3E0008752900081A
:103E700000000000000000008000000000000000C2
:103E800000000000C03E0008B13000080000000043
:103E90000000000000020000000000000000000020
:103EA00000061016000610160000000000000000BA
:103EB00001020304060708090000000001020304D0
:103EC000636861737369735461736B0064656661E1
:103ED000756C745461736B00F83E0008000000209C
:103EE0008C0000009E2F0008843F00088C000020FA
:103EF000B44C0000AE2F00080000000000000000DD
:103F000000000000000000000000000000000000B1
:103F10000000000001000000100000000000000090
:103F20000024F40000000000000000000000000079
:103F30000000000000000000000000000000000081
:103F40000000000000000000000000000000000071
:103F50000000000000000000000000000000000061
:103F60000000000000000000000000000000000051
:103F7000000000000000000000000000AAAAAAAA99
:043F8000000000003D
:04000005080001AD41
:00000001FF
