:020000040800F2
:10000000A87A0020D1020008374C0008893800087F
:10001000354C0008390B0008DD67000800000000BF
:1000200000000000000000000000000011020008B5
:10003000D90E0008000000006D020008916200085F
:10004000EB020008EB020008EB020008EB020008DC
:10005000EB020008EB020008DB0E0008EB020008D0
:10006000EB020008E10E0008E70E0008EB020008B2
:10007000EB020008EB020008EB020008EB020008AC
:10008000EB020008EB020008EB020008EB0200089C
:100090003D0B0008EB020008EB020008ED0E000823
:1000A000EB020008EB020008EB020008EB0200087C
:1000B000EB020008EB020008EB020008EB0200086C
:1000C000EB020008EB020008EB020008EB0200085C
:1000D000EB020008EB020008EB02000829670008A9
:1000E000EB020008EB020008EB020008EB0200083C
:1000F000EB020008EB020008EB020008EB0200082C
:10010000EB020008EB020008EB020008EB0200081B
:10011000EB020008EB020008EB020008EB0200080B
:10012000EB020008750B0008810B0008EB020008C9
:10013000EB020008EB020008EB020008EB020008EB
:10014000490B0008EB020008EB020008EB02000874
:10015000EB020008450E0008510E0008EB020008F3
:10016000EB020008EB020008EB020008EB020008BB
:10017000EB020008EB020008EB02000800000000A0
:10018000EB020008EB020008DFF80CD000F0E4F905
:100190000048004765780008A87A00200246D2E8A7
:1001A0004F0F411CC2E8431F03B1F8E770470246F6
:1001B00052E8000F411C42E8001303B1F8E7704712
:1001C000024652E8000F42E8001303B1F9E7704716
:1001D000024652E8000F830103D3BFF32F8F0020A4
:1001E000704700F00040084342E8000303B1F0E725
:1001F0007047024652E8000F800103D2BFF32F8FF1
:100200000020704742E8001303B1F3E70120704774
:100210002C4B19680868B0E8F04F80F30988BFF3E9
:100220006F8F4FF0000080F31188704700000000CE
:1002300008480068006880F308884FF0000080F3E9
:10024000148862B661B6BFF34F8FBFF36F8F00DFC4
:1002500000BF00BF08ED00E0DFF80C00016841F4CA
:1002600070010160704700BF88ED00E0EFF3098086
:10027000BFF36F8F134B1A681EF0100F08BF20EDED
:10028000108A20E9F04F106009B44FF0500080F35D
:100290001188BFF34F8FBFF36F8F08F0EDF84FF069
:1002A000000080F3118809BC19680868B0E8F04FB5
:1002B0001EF0100F08BFB0EC108A80F30988BFF35E
:1002C0006F8F7047C8000020EFF305807047000073
:1002D0000648804706480047FEE7FEE7FEE7FEE7E0
:1002E000FEE7FEE7FEE7FEE7FEE7FEE72D63000818
:1002F000890100082DE9F05F0546002092469B46E3
:1003000088460646814640241BE02846414647462B
:10031000224600F089F853465A46C01A914110D33C
:1003200011461846224600F070F82D1A67EB0108B6
:100330004F4622460120002100F067F817EB000924
:100340004E41201EA4F10104DFDC484631462A4616
:100350004346BDE8F09F40EA01039B0703D009E054
:1003600008C9121F08C0042AFAD203E011F8013BA1
:1003700000F8013B521EF9D27047D2B201E000F8FA
:10038000012B491EFBD270470022F6E710B5134639
:100390000A4604461946FFF7F0FF204610BD421CEE
:1003A00010F8011B0029FBD1801A704700F00042B1
:1003B00030F000400AD0C10D01F56071C0F31600A5
:1003C00042EA0151C208400711437047002001462C
:1003D000704701F0004330B421F0004150EA0102BF
:1003E00006D00A0DA2F56072C1F31301002A02DCE7
:1003F00030BC00207047440F44EAC104C100E0183B
:1004000030BC00EBC25000F01FB8202A04DB203AB9
:1004100000FA02F1002070479140C2F1200320FA57
:1004200003F3194390407047202A04DB203A21FA55
:1004300002F00021704721FA02F3D040C2F12002FD
:1004400091400843194670470029A8BF7047401CD7
:10045000490008BF20F00100704710B4B0FA80FCDA
:1004600000FA0CF050EA010404BF10BC704749B117
:10047000CCF1200421FA04F411FA0CF118BF012187
:1004800021430843A3EB0C01CB1D4FEA00614FEA67
:10049000102042BF002010BC704700EBC350104436
:1004A0000029A4BF10BC7047401C490008BF20F0C1
:1004B000010010BC70472DE9F04D00231A461B1AAD
:1004C0008A4103DB00200146BDE8F08DC1F30A52EA
:1004D000C1F3130141F480154FF0000BD10702D195
:1004E00000186D41521E0027044640F2FF113846A5
:1004F00001EB620A3E468046024600204FF480111E
:10050000FFF792FFC2197141BB1846EB0100B4EB33
:10051000030C75EB000C04D3E41A65EB00051746D9
:100520000E46241908F101006D4180463428E3DDB0
:10053000F91946EB0600091BA84103D24FF0FF3220
:10054000134601E0002213461BEB070046EB0A515D
:10055000BDE8F04D00F012B8064C074D06E0E0682B
:1005600040F0010394E8070098471034AC42F6D3FA
:10057000FFF70EFEC0890008E089000810B5141EC0
:1005800073F1000408DA401C41F1000192185B414C
:100590001A4301D120F0010010BD2DE9F04D924623
:1005A0009B4611B1B1FA81F202E0B0FA80F220323A
:1005B0009046FFF72AFF04460F4640EA0A0041EA48
:1005C0000B0153465A46084313D0114653EA010023
:1005D00019D0C8F140025046FFF726FF05460E46E7
:1005E000504659464246FFF710FF084305D0012008
:1005F00004E020463946BDE8F08D0020054346EA78
:10060000E0762C4337430A986305E40AA0EB080020
:100610000022FD0A44EA47540A3002D50020014670
:10062000E9E7010510196941DDE90845001969414B
:10063000BDE8F04DA2E770B58C1810F8015B15F01D
:10064000070301D110F8013B2A1106D110F8012B44
:1006500003E010F8016B01F8016B5B1EF9D12B0769
:1006600005D40023521E0DD401F8013BFAE710F81F
:10067000013BCB1A921C03E013F8015B01F8015B0C
:10068000521EF9D5A142D8D3002070BD464910B5FD
:100690004A6822F440324A604A6843681A434A6012
:1006A00001684A6822F480724A6001684A680369F6
:1006B00042EA03224A6001684A6822F040724A60B6
:1006C00001684A6883681A434A6001688A6822F4AC
:1006D00000628A6001688A68C3681A438A60816A16
:1006E0006FF07062D14201688A6822F070628A609D
:1006F00001688A680CD0836A1A438A6001688A6834
:1007000022F040528A6001688A68C36A1A4301E095
:1007100022F040528A6001688A6822F002028A60F0
:1007200001688A68037E42EA43028A6090F82010DA
:10073000002901684A680FD042F400624A600168EB
:100740004A6822F460424A6001684A68174C436A6A
:1007500004EB43331A4301E022F400624A6001686B
:10076000CA6A22F47002CA620168CA6A838B104C9A
:1007700004EB03531A43CA6201688A6822F40072C8
:100780008A6001688A6890F8303042EA43228A60C1
:1007900001688A6822F480628A6001688A68406918
:1007A00042EA8020886010BD0023014000E0FFFF86
:1007B0000000F0FFB7EE000A80ED000A9FED040A8A
:1007C00080ED010A80ED020A80ED030A7047000007
:1007D0000000000093EC033AD2EC031A91EC030AF8
:1007E00003F08CBF01221021014801F093BC0000EE
:1007F0000000024000221021014801F08BBC0000E3
:10080000000002407047000001221146014801F03B
:1008100081BC00000004024000220121014801F0D7
:1008200079BC00000004024030B5437804781B0214
:100830001BB2234300EE103A194CB8EEC00AD4EDB7
:10084000000A20EE200A81ED000AC37885781B0299
:100850001BB22B4300EE103AD4ED000AB8EEC00AEA
:1008600020EE200A81ED010A437904791B021BB2B4
:10087000234300EE103AB8EEC00A20EE200ADFED66
:10088000090A81ED020AD0F8060020F07F4000EE50
:10089000100AB8EE400A20EE200A82ED000A30BDB0
:1008A0000C00002000401C42704707F01CB806F006
:1008B00091BD000010B542780378120212B21A43BB
:1008C00000EE102A124BB8EEC00AD3ED010A20EE5A
:1008D000200A81ED000AC2788478120212B2224303
:1008E00000EE102AD3ED010AB8EEC00A20EE200A6D
:1008F00081ED010A42790079120212B2024300EE40
:10090000102AB8EEC00A20EE200A81ED020A10BDBE
:100910000C00002010B5FFF775FFFFF7C5FF06F0CC
:100920003DFA08B1802402E006F0A4F9044606F07E
:1009300003FC10B144F0400010BD06F08FFB2043D3
:1009400010BD00002DE9FC410746002016460D466B
:1009500000900190FFF74EFF922000F0BDF80622B4
:100960006946122000F09AF8FFF73CFF9DF801005D
:100970009DF80010000200B2084300EE100A464C39
:10098000B8EEC00AD4ED000A20EE200A85ED000A78
:100990009DF803009DF80210000200B2084300EE2B
:1009A000100AD4ED000AB8EEC00A20EE200A85ED48
:1009B000010A9DF805009DF80410000200B20843EA
:1009C00000EE100AB8EEC00A20EE200A85ED020AF9
:1009D000FFF722FF08226946002000F05FF8FFF7CA
:1009E00013FF9DF800000F2830D19DF803009DF8FB
:1009F0000210000200B2084300EE100AD4ED010A12
:100A0000B8EEC00A20EE200A87ED000A9DF8050026
:100A10009DF80410000200B2084300EE100AD4ED65
:100A2000010AB8EEC00A20EE200A87ED010A9DF8FF
:100A300007009DF80610000200B2084300EE100AFD
:100A4000B8EEC00A20EE200A87ED020AFFF7D2FEB8
:100A5000A22000F041F802226946222000F01EF890
:100A6000FFF7C0FE9DF800009DF80110C00040EAAD
:100A70005110B0F5806F01DBA0F5006000EE100AA8
:100A8000B4EE001AF8EEC00AB3EE070A00EE810ACF
:100A900086ED000ABDE8FC810C00002070B514460C
:100AA0000D4640F0800000F017F806E0552000F0F9
:100AB00013F8641E05F8010BE4B2002CF6D170BDEA
:100AC00010B50C4640F0800000F006F8552000F00C
:100AD00003F8207010BD000001B582B04FF47A70A9
:100AE0000090012301AA02A9024802F019FA9DF818
:100AF00004000EBD480C002002784078D20042EA83
:100B00005010B0F5806F01DBA0F5006000EE100A18
:100B1000B4EE001AF8EEC00AB3EE070A00EE810A3E
:100B200081ED000A704710B50C46FFF7D5FF20464F
:100B3000BDE81040FFF7D0BFFEE70000014800F01D
:100B4000AEBD000048080020014800F0A8BD00002C
:100B5000700800201CB59BB292B2CDE900238BB285
:100B600082B20249024807F0C3F91CBD2C010020E3
:100B700048080020014801F049B80000201000207A
:100B80002DE9F05FA748A84BA84CC06CA64DA74E16
:100B9000A54F0068A449DFF89492DFF88CA2DFF833
:100BA0008CB2DFF884E2A14A483B6034183518362D
:100BB000303F09F178090AF1300A4FF4006C0BF16B
:100BC000300BAEF1180E884223D99749543926E0EC
:100BD000A84233D14FF020080AE0504535D1E04615
:100BE00006E000BF4FF4001802E000BF4FF00068BD
:100BF00011EA080F7CD08C49884253D9904205D025
:100C0000984203D0A04201D0A8422FD14FF0200C2F
:100C100045E08649A831884203D983495839096893
:100C200005E08249483188428149F8D949689042B3
:100C3000D0D09842CED0A042CCD0C9E7B042CED0DE
:100C4000B842CCD04845CAD0C7E75845CAD070454D
:100C5000C8D0DFF8D88108F190084045C2D0DFF84D
:100C6000C88108F148084045C0D1BBE7B04216D062
:100C7000B84214D0484512D0504510D0584509D03C
:100C8000704507D069499031884203D066494831A0
:100C9000884202D14FF4001C01E04FF0006C624822
:100CA0004C382AE06149A831884229D9904205D0C0
:100CB000984203D0A04201D0A84202D14FF0200CAC
:100CC00019E0B04217D0B84215D0484513D050456E
:100CD00011D0584509D0704507D054499031884209
:100CE00003D051494831884203D14FF4001C02E03F
:100CF00095E04FF0006C4C485038C0F800C052E00E
:100D00004A494831884227D9904205D0984203D0B9
:100D1000A04201D0A84202D14FF0200C18E0B0420E
:100D200016D0B84214D0484512D0504510D058457E
:100D300009D0704507D03D499031884203D03A49E7
:100D40004831884202D14FF4001C01E04FF0006CA2
:100D50003748C0F80CC026E0904205D0984203D036
:100D6000A04201D0A84202D14FF0200C18E0B042BE
:100D700016D0B84214D0484512D0504510D058452E
:100D800009D0704507D029499031884203D02649BF
:100D90004831884202D14FF4001C01E04FF0006C52
:100DA0002348C0F808C0234C207880070CD5207851
:100DB00020F002002070207840F004002070012212
:100DC00011461D4801F0A6F960781C4D80070CD52E
:100DD000607820F002006070607840F0040060707D
:100DE00001221021284601F095F9A07880070CD542
:100DF000A07820F00200A070A07840F00400A0705D
:100E000001221021284601F085F906F0A1FB207887
:100E1000400704D50A48016841F001010160BDE8BE
:100E2000F09F0000480C002058640240106002400F
:100E3000006002404C00002000040240000002401C
:100E4000103C0140014800F0E1BE0000801000208D
:100E5000014800F0DBBE0000600F0020016818238D
:100E6000CAB2103AB2FBF3F2054B6FF30901032A41
:100E70009B5CC36500D9091D816508467047000069
:100E80008089000810B5014600208B698A6A4FF0FE
:100E9000C07453B1B3F5005F15D072B1012A0CD004
:100EA000022A0AD0032A09D104E01AB1012A06D085
:100EB000022A03D1C96AC90100D5012010BDC96A3F
:100EC000A142FAD010BD002AF7D0012AF2D0022A9E
:100ED000F3D0032AF3D010BD7047012001F032B8DF
:100EE000082001F02FB8102001F02CB8202001F0CC
:100EF00029B870472DE9F0410A4D05F11806AF6990
:100F000000F032F9044601463046FFF759F9B8427D
:100F1000F5D1844203D203481030FFF748F9204648
:100F2000BDE8F081807600202DE9FF5F8B464FF011
:100F3000805000EADB08400007259A4691464100B0
:100F400000EA990701EA5A062048FFF730F90146FE
:100F500000F03F021E48890900EB02144FF47000B4
:100F600000EA01510098084340EA08003843304342
:100F700040F0406104F10C00FFF72AF941011CD553
:100F800080F0044101F000402BF000420243226057
:100F900029F00042024362602AF00042024304F159
:100FA0000C00A260FFF725F948B10848001DFFF7C3
:100FB000FEF8012004B0BDE8F09F6D1EC4D10348C7
:100FC0000830FFF7F4F80020F4E7000084760020F2
:100FD000007200202DE9F0478146FF2901D2FF2A47
:100FE00002D30020BDE8F0870024104D20464FF0CA
:100FF000010A0AFA00F3564613EA090F0FD00B460E
:10100000B2460AE004EBD30603F00708AF5D0AFA24
:1010100008FC47EA0C07AF555B1C9342F2D9401C11
:1010200020340428E5D30120DCE70000007600200E
:101030002DE9F0473C4C88468146002525708021EB
:10104000A4F18000FFF7A0F9384B4FF6FF76182285
:10105000304641F2210700BF13F8011B80EA01204E
:101060005FF008015FEA004C06EA400000D57840D6
:10107000491EF7D1521EEFD12D4A236A0121934216
:1010800001D0226202E06288824202D06080E16187
:1010900037E0E069401CE061012832D0254B002098
:1010A00003EB0011CA68560102D522F04062CA6003
:1010B000401C4028F4D3E06901282BD000F060F8F0
:1010C0000646DEB1FE2200214846FFF783FFEF22ED
:1010D00011460F20FFF77EFFFE2211460420FFF786
:1010E00079FFFFF707FF014600231348E269FFF786
:1010F0001BFFB8F1000F01D000F020F83046BDE82A
:10110000F08765706560A5604FF480610948E5600F
:10111000FFF73AF900F034F8061E01D000F02AF883
:10112000C4E905052561CCE7807600201489000814
:101130006B27A5E10072002000FF0003084810B5EE
:10114000017809B1012010BD01210170FFF7D2FE25
:10115000014600231A460348FFF7E6FEF2E70000C7
:101160008076002001FF00030148406870470000BE
:10117000001000E00148006870470000C400002033
:101180000548016841F0807101600448016841F040
:101190000101016001207047FCED00E0001000E05B
:1011A00078B50024009490F83C20012A19D001223F
:1011B00080F83C200A6807230568092A13D9EE68DD
:1011C0000A3A02EB420293409E43EE600B788A6833
:1011D0000A3B03EB43039A400368DD682A43DA6065
:1011E00010E0022078BD2E6902EB420293409E433C
:1011F0002E610B788A6803EB43039A4003681D69EC
:101200002A431A614A681F23072A13D205686E6BA6
:10121000521E02EB820293409E436E630B790A8852
:101220005B1E92B203EB83039A4003685D6B2A4313
:101230005A6327E005680D2A12D22E6BD21F02EBEB
:10124000820293409E432E630B790A88DB1F92B281
:1012500003EB83039A4003681D6B2A431A6311E072
:10126000EE6A0D3A02EB820293409E43EE620B79E6
:101270000A880D3B92B203EB83039A400368DD6A50
:101280002A43DA62164B0568144A9D4206D10D685E
:10129000122D03D1556845F48005556005689D42BF
:1012A00018D10B68102B01D0112B13D1536843F4C4
:1012B00000035360096810290CD10A490A4A0968D9
:1012C000B1FBF2F101EB8101490000E0491E009100
:1012D0000029FBD180F83C40002078BD002301406C
:1012E00000200140C400002040420F0070B50400FF
:1012F0004FF0000503D0206C002610B107E001205C
:1013000070BD204600F01CF8666484F83C60206CD8
:10131000C00610D4206C20F4885040F002002064F5
:101320002046FFF7B3F96664206C20F0020040F01D
:101330000100206400E0012584F83C60284670BD6F
:1013400010B586B0044614216846FFF71DF8174B08
:101350002268002116489A4209D1016841F480713F
:101360000160006800F48070059006B010BD114B5C
:101370009A42FAD1026842F480620260006800F486
:10138000806005900A481438026842F0200202602A
:10139000006800F020000590181500900320CDE9AA
:1013A00001016946044800F0D9FDDEE70020014054
:1013B00044380240002201400014024090F82020EE
:1013C000012A07D0022A05D0416A41F480214162F6
:1013D00001207047006842690A434261002070475B
:1013E000F0B590F820500468A468012D05D0022DB6
:1013F00003D0416A41F4802153E014F0406F01D1E1
:10140000E5004BD5C4F30164022C03D9416A41F4D1
:10141000000146E00125A5401D608D684FF4C073B2
:101420009DB1CE6835434E6845EAC605066803EBB4
:101430000417F5514FF4C275076805EB04150E69E2
:101440007E51097D012905D009E00E88CD6845EA65
:101450004655EBE701684E5946F480764E511179B6
:10146000D2F805504FF4C67641EA0525016806EB2F
:1014700004168D511178D2F801204FF4C47541EA59
:101480000221026805EB04155151006803EB0411B9
:10149000425842F0010242500020F0BD416A41F43E
:1014A000001141620120F0BD10B590F82020012A02
:1014B00007D0022A05D0416A41F48021416201200F
:1014C00010BD3B48D0F8002242F00102C0F80022D3
:1014D000D0F8002222F47C52C0F80022D0F800227A
:1014E0004B6A42EA0322C0F800220A7D02F01F0381
:1014F00001229A40D0F81C329343C0F81C32CB69C9
:10150000B3B9D0F80C329343C0F80C328C894B68D5
:1015100064F31F434C6900EBC404C4F840320C89E7
:101520000B6864F31F434C6900EBC404C4F84432F5
:10153000CB69012B16D1D0F80C321343C0F80C3212
:101540000C884B6864F31F434C6900EBC404C4F877
:1015500040320C89CB6864F31F434C6900EBC40430
:10156000C4F844328B69002BD0F804320ED01343F8
:10157000C0F804320B69002BD0F8143208D01343A2
:10158000C0F81432096A012904D008E09343EFE758
:101590009343F5E7D0F81C121143C0F81C12D0F8A1
:1015A000001221F00101C0F80012002010BD00005F
:1015B00000640040704730B590F82040012C05D001
:1015C000022C03D0416A41F480215DE004680029C7
:1015D00055D02469A40754D04FF4D874056804EB9F
:1015E00001142D5915F00405956005682D594ED04C
:1015F000ED08556005682C5904F00204D4604FF4DE
:10160000DA74056804EB01142D5905F00F05156116
:1016100005682D59C5F30725956105682C59240CDB
:1016200054614FF4DC72046802EB0112A4581C7080
:101630000468A458240A5C700468A458240C9C70A4
:101640000468A258120EDA704FF4DE72046802EBDE
:101650000112A4581C710468A458240A5C7104681F
:10166000A458240C9C710468A258120EDA71006808
:1016700081B1016941F020010161002030BDE468C1
:10168000A8E7416A41F400114162012030BD6D0DAF
:101690001560AFE7C16841F02001C160EDE72DE9B9
:1016A000F05F0546006800244669D0F8049087681A
:1016B000D0F80CB0D0F810A0D0F81880F10748D0BE
:1016C000F90714D001218160B80703D5284600F03E
:1016D00072FA0CE0780702D54FF4006407E038078F
:1016E00002D54FF4805402E0284600F063FAF80572
:1016F00016D529684FF480708860B80503D5284650
:1017000000F05BFA0CE0780502D544F4005407E0E1
:10171000380502D544F4804402E0284600F04CFA33
:10172000F80316D529684FF480308860B80303D5D4
:10173000284600F044FA0CE0780302D544F4004453
:1017400007E0380302D544F4803402E0284600F074
:1017500035FA300707D55FEACB6004D52968102039
:1017600044F40074C86070074FF0080707D55FEABB
:101770000B7004D52868C760284600F099F9B007B7
:1017800006D52868C068800702D0284600F092F984
:10179000700607D55FEACA6004D52968102044F4B2
:1017A00080640861B00607D55FEA0A7004D528682E
:1017B0000761284600F0CEF9F00606D528680069D2
:1017C000800702D0284600F0C6F9B00308D55FEACA
:1017D000C96005D5296810204860284600F0BCF98A
:1017E000F00307D55FEA097004D5286847602846EA
:1017F00000F0E6F9300446D55FEA497040D5F005BF
:1018000004D55FEAC87001D044F00104B00504D5E6
:101810005FEA887001D544F00204700504D55FEAE0
:10182000487001D544F00404300529D518F0700F34
:1018300026D008F07000402815D006DC102809D00A
:1018400020280AD0302816D10AE050280ED060286F
:1018500011D10EE044F008040DE044F010040AE059
:1018600044F0200407E044F0400404E044F0800425
:1018700001E044F480742868816921F0700181617D
:10188000296804204860002C05D0686A20436862FB
:101890002846FFF78FFEBDE8F09F70B5040003D027
:1018A00094F8200010B104E0012070BD204600F043
:1018B00081F82068016821F00201016000F030FC2D
:1018C0000546052604E000F02BFC401B0A2811D831
:1018D000206840688007F6D42068016841F0010163
:1018E000016000F01DFC05460BE000F019FC401BF8
:1018F0000A2806D9606A40F40030606284F82060EB
:10190000D2E720684068C007EFD0207E0128206819
:1019100001683DD021F080010160607E01282068CF
:10192000016838D021F040010160A07E01282068C4
:10193000016833D021F020010160E07E0128206899
:1019400001682ED041F010010160207F012820683D
:10195000016829D021F008010160607F012820681A
:10196000016824D021F004010160D4E90201084398
:10197000D4E90412114308436168491E08432168F1
:10198000C86100206062012084F82000002070BD42
:1019900041F08001C0E741F04001C5E741F020017E
:1019A000CAE721F01001CFE741F00801D4E741F088
:1019B0000401D9E7F0B587B0044614216846FEF764
:1019C000E3FC364B3648DFF8D0E01968D4F800C0A5
:1019D000334A03250226092710300024491CF44508
:1019E00022D11960012907D1016841F0007101601D
:1019F000006800F000700590106840F0080010606A
:101A00001068CDE9005600F00800CDE90470694681
:101A10002448CDE9024500F0A1FA00220521142056
:101A200000F0F4FE142032E0DFF87CE0F44530D121
:101A3000D0F800C04CF0806CC0F800C0D0F800C0F6
:101A400001290CF0806CCDF814C0196007D1016831
:101A500041F000710160006800F0007005901068AE
:101A600040F002001060106802AB00F00200059028
:101A70006020CDE9000683E8B00069460B4800F01D
:101A80006DFA00220521402000F0C0FE402000F049
:101A9000AFFE07B0F0BD000000640040A0000020D1
:101AA00030380240000C0240006800400004024050
:101AB000704700001CB56B46234A00212348FFF7FE
:101AC0007AFD2148204C006804F1A004A0F50071C3
:101AD000013905D0012903D0022901D003290ED1F3
:101AE000401EC0B204EB4010C1694A1C3229C261D9
:101AF000694602DC05F0E8FC01E005F0EBFC124A67
:101B00006B465C3200211248FFF755FD0E485C30F1
:101B10000068A0F50071053905D0012903D002291C
:101B200001D003290BD1401EC0B204EB4010C169A3
:101B30004A1C3229C261694602DC05F0C5FC1CBDA5
:101B400005F0C8FC1CBD000044010020480800202E
:101B500070080020704770477047000070B5044659
:101B600090F82000012804D0606A40F400206062F0
:101B700018E0022084F820002068016821F00101AB
:101B8000016000F0CDFA05460EE000BF00F0C8FA93
:101B9000401B0A2808D9606A40F4003060620520C2
:101BA00084F82000012070BD20684068C007EDD196
:101BB000606270BD704770477047704770477047EC
:101BC000704710B5040002D0607910B106E0012022
:101BD00010BD00202071204600F004F80120607143
:101BE000002010BD08B500680649884208D10648A3
:101BF000016841F480510160006800F48050009059
:101C000008BD000000300240303802402DE9F843A2
:101C100004464FF00009CDF8009063484FF4165188
:101C2000A56D0068B0FBF1F72E6894F85C100820F1
:101C300000FA01F131420FD021680A6852070BD532
:101C40000A6822F004020A6094F85C108840A860D8
:101C5000606D40F00100606594F85C104FF0010881
:101C600008FA01F0304208D021684969090604D514
:101C7000A860606D40F00200606594F85C1004207C
:101C80008840304208D021680968890704D5A860D7
:101C9000606D40F00400606594F85C10102088408E
:101CA000304218D021680968090714D5A860206857
:101CB0000168490304D50068000308D5A16C07E05A
:101CC0000168C90503D4016821F008010160216C95
:101CD00009B12046884794F85C10202088403042A3
:101CE00031D021680968C9062DD5A86094F835005F
:101CF00005282068016806D0490347D5006800031D
:101D00001DD4616C1CE021F016010160206841695E
:101D100021F080014161206C08B9A06C20B12068DD
:101D2000016821F00801016094F85C103F208840B0
:101D3000A86084F8349084F83580216D1FE0E16B51
:101D400009B120468847606D00282BD0606DC00720
:101D500014D0052084F835002068016821F00101C5
:101D600001600098401C0090B84203D820680068C9
:101D7000C007F6D184F8349084F83580E16C0029EE
:101D800010D001B02046BDE8F04308470168C905FE
:101D9000D5D4016821F01001016084F8349084F8F2
:101DA0003580CCE7BDE8F883C40000202DE9F04180
:101DB000044600F0B5F906465CB1002584F83450BD
:101DC000022084F835002068016821F001010160DB
:101DD0000DE00120BDE8F08100F0A2F9801B05288C
:101DE00005D920206065032084F83500F2E72068DB
:101DF0000068C007F0D12268116820480140D4E98A
:101E000001031843D4E90336334318436369184385
:101E1000A3691843E3691843236A18430843616AB6
:101E2000042903D1D4E90B13194308431060206837
:101E30004069666A20F0070130460E4301270428F6
:101E40000CD1A06A0643E06A40B12046FFF71AF8B9
:101E500020B14020606584F83570BAE7206846619B
:101E60002046FEF7FBFF94F85C203F219140816003
:101E7000656584F835700020ACE700003F8010F005
:101E800070B5044600F04CF90546601C02D00448C9
:101E90000078044400F044F9401BA042FAD370BD1E
:101EA000B800002010B5244C10281AD0202821D0CA
:101EB00008282AD0012813D106F036FC01280FD0BB
:101EC00004F11801E06906F03DFAA069002807D086
:101ED0001A494FF080500860BFF34F8FBFF36F8FE8
:101EE00010BD607840F001006070A07840F0010003
:101EF000A07003E0207840F00100207020790028D5
:101F0000EED0BDE8104005F023BBE07840F00100C2
:101F1000E070E07810F00100E070E1D0E07820F0AF
:101F20000100E070E07840F00200E070BDE8104091
:101F3000034805F06DBC00004C00002004ED00E0FB
:101F400004070020044910B50A68024202D0086064
:101F5000FFF7A8FF10BD0000143C01402DE9F84F29
:101F600000224FF0010803254FF00F0E0B6808FA0E
:101F700002F42340A3426ED14E68012E05D0022EFA
:101F800003D0112E01D0122E12D186684FEA420CD6
:101F900005FA0CF7BE43CF6807FA0CF737438760A2
:101FA0004668A6430C79C4F300149440344344605B
:101FB000C668570005FA07FC8C6826EA0C06BC4088
:101FC0003443C4604C68022C01D0122C13D1D408C5
:101FD00000EB8404A346D4F8209054074FEAD46A57
:101FE0000EFA0AF629EA06090E6906FA0AF646EA20
:101FF0000906CBF8206006680C7926EA0C0604F086
:102000000304BC40344304604C68E40065D5364C9E
:10201000266846F480462660246822F0030604F40D
:1020200080440094314C3444A446D4F808489607C0
:10203000370F0EFA07F6B4432D4EB04201D10026F9
:1020400024E02C4EB04201D101261FE02A4EB042BE
:1020500002D102261AE040E0284EB04201D1032608
:1020600014E0274EB04201D104260FE0254EB042C5
:1020700001D105260AE0244EB04201D1062605E032
:10208000224EB04201D1072600E00826BE4026437A
:10209000CCF808681E4E34684F689C43FF0300D597
:1020A0001C4334601A4C241D26684F689E43BF03AE
:1020B00000D51E432660164E083634684F689C4390
:1020C000FF0200D51C433460114E0C3634684F6853
:1020D0009C43BF0200D51C433460521C102AFFF4FD
:1020E00045AFBDE8F88F00004438024000300140A1
:1020F000000002400004024000080240000C0240C0
:10210000001002400014024000180240001C02406F
:10211000003C01400AB1816170470904FBE70000FF
:102120000148806870470000B800002070B50400C6
:1021300025D094F83D00002520B984F83C50204675
:1021400000F04CFA242084F83D002068016821F05A
:10215000010101602068016841F4004101602068CC
:10216000016821F40041016000F01CFC4D4A6168E7
:10217000914201D84C4900E04C49884201D20120EB
:1021800070BD4B492368B0FBF1F15E6826F03F0655
:102190000E435E606368934206D94FF496735943C9
:1021A0004FF47A73B1FBF3F12368491C1E6A26F0E1
:1021B0003F06314319626168914210D84900401EC0
:1021C000B0FBF1F2521CC2F30B02042A01D204202C
:1021D00022E0B0FBF1F0401CC0F30B001CE0A26851
:1021E000F2B301EBC10303EB0116431EB3FBF6F39D
:1021F0005B1C43F480431B0549D092B301EBC10241
:1022000002EB0111401EB0FBF1F0401CC0F30B00CB
:1022100040F4804040F400402168CA694CF6FF73E6
:102220009A431043C861D4E907100143206802684B
:1022300022F0C00211430160D4E903010143206888
:10224000826848F2FF339A4311438160D4E9050163
:1022500008432168CA6822F0FF021043C86001E009
:102260000EE016E02068016841F00101016025647C
:10227000202084F83D00256384F83E50002070BD86
:1022800001EB4106431EB3FBF6F35B1CB3E70120F1
:10229000C2E701EB4101401EB0FBF1F0401CC0F36E
:1022A0000B00B7E7A086010080841E0000093D00F6
:1022B00040420F002DE9FF4F83B09A46DDE91197A8
:1022C00093460446DDF84080FFF72AFF054694F860
:1022D0003D00202870D11923012271492046009524
:1022E00001F0E2FB0028F5D194F83C00012863D00E
:1022F000012084F83C0020680168C90703D1016807
:1023000041F0010101602068016821F40061016071
:10231000222084F83D00402084F83E0000262664F8
:10232000C4F82480A4F82A90608D20855D48E0627E
:10233000CDE9007553465A462046049901F0BCFA8F
:1023400000287CD1208DD0B1012821D0022820681E
:1023500024D0416980690090208D032869D8012824
:102360002BD0514902283B464FF00002009559D02E
:102370008846204601F098FB002860D13CE02068A8
:10238000416981690091016841F40071016077E061
:102390002068016821F480610160F0E7016821F4A0
:1023A000806101602068016841F40061016020687B
:1023B00041698069009063E06FE02A463946204613
:1023C00001F0F1FB98BB20680069616A08704EE07B
:1023D0002068016841F40071016020680069616A49
:1023E0000870606A401C6062218D491E2185618DE4
:1023F000491E6185216838E02068016821F4806108
:10240000016020680069616A0870606A401C60624F
:10241000208D401E2085608D401E60853B46002239
:1024200041460095204601F03FFB00B9D0E706E0A9
:10243000FFE72A463946204601F0B5FB18B10120D6
:1024400007B0BDE8F08F20680069616A0870606AB3
:10245000401C6062218D491E2185618D491E618568
:1024600021684A69D24352070AD409690170606A37
:10247000401C6062208D401E2085608D401E60855E
:10248000208D00287FF468AF202084F83D0084F878
:102490003E6084F83C600020D2E70220D0E70000D4
:1024A000020010000000FFFF040001002DE9FF4FB3
:1024B00083B09A46DDE9119793460446DDF84080E3
:1024C000FFF72EFE054694F83D0020287FD1192302
:1024D000012240492046009501F0E6FA002876D115
:1024E00094F83C00012872D0012084F83C00206858
:1024F0000168C90703D1016841F00101016020684A
:10250000016821F400610160212084F83D00402031
:1025100084F83E0000262664C4F82480A4F82A909B
:10252000608D20852C48E062CDE9007553465A46FF
:102530002046049901F03EFA70B930E02A46394647
:10254000204601F063FB58B1206C042804D12068B8
:10255000016841F400710160012007B0BDE8F08F0F
:10256000606A216800780861606A401C6062218DA1
:10257000491E89B22185628D521E62852268536987
:10258000DB435B070BD469B100781061606A401CC3
:102590006062208D401E2085608D401E6085208DEC
:1025A0000028CBD12A463946204601F057FA0028A8
:1025B000CAD154F83D0B016841F40071016020203C
:1025C00004F81E09E67766770020C6E7FFE70220D9
:1025D000C3E70000020010000000FFFF2DE9F043F8
:1025E00087B0074614216846FDF7CEFE484C474B9E
:1025F0003A68002646481221032510344FF001089E
:102600004FF004099A4218D1026842F002020260B7
:10261000006800F00200059028028DE80301CDE972
:10262000035969463B48FFF799FC206840F40010C5
:102630002060206800F4001065E0374B9A4234D1E6
:10264000026842F0200202600068CDE9005100F00B
:102650002000CDE90490CDE9028569462F48FFF7B7
:102660007DFC206840F48000206020682D4C00F440
:10267000800005902A4820604FF060606060402034
:10268000C4E902060001C4E90406C001A661C4E968
:10269000076020466662FFF789FB08B1FEF729FC58
:1026A0007C63A76307B0BDE8F0831F4B9A42F9D162
:1026B000026842F004020260026802F0040205921D
:1026C000026842F00102026000680E4600F001005C
:1026D000059058158DE84101CDE903596946134825
:1026E000FFF73CFC4FF480708DE84101CDE90359C0
:1026F00069460F48FFF732FC206840F40000206074
:10270000206800F400000590CCE700000054004071
:1027100030380240000402400058004000140240DB
:10272000B8600240E80B0020005C00400008024056
:1027300000000240024881680278114481607047BD
:10274000B80000200B4810B5016841F40071016029
:10275000016841F480610160016841F480710160A9
:10276000032000F073F80F2000F006F800F024F8C2
:10277000002010BD003C024070B50D4D04464FF4E2
:102780007A712878B1FBF0F00A490968B1FBF0F0E2
:1027900000F0B7FC48B9102C07D200222146501E89
:1027A00000F034F800206C6070BD012070BD0000A6
:1027B000B8000020C40000200C4882B0016841F439
:1027C00080410160006800F4804000900748001FCD
:1027D000016841F0805101600068002200F08050E3
:1027E00000900F21901E02B000F010B84438024053
:1027F000002809DB00F01F02012191404009800000
:1028000000F1E020C0F8001170470000F0B40E4B5A
:102810001B680C46C3F30223C3F10705042D00D93E
:102820000425191D072901D2002300E0DB1E012623
:1028300006FA05F1491E214099409E40761E164039
:102840003143F0BC03F0DEBF0CED00E0064900F0C0
:10285000070208684FF6FF03184040EA0220034AC7
:1028600010430860704700000CED00E00000FA051E
:102870002DE9F0470E46050065D0DFF81481D8F841
:102880000000F7B200F00F00B04207D288F80070E5
:10289000D8F8000000F00F00B04254D128683D4C39
:1028A000810712D5400703D5206840F4E05020602E
:1028B0002878000703D5206840F460402060206835
:1028C000A96820F0F000084320602878C0072DD0C8
:1028D000304968680839012812D0022813D003282B
:1028E00011D00968890700292DDA216821F0030138
:1028F00001432160FFF714FC814641F2883A0EE063
:1029000009688903EFE709688901ECE7FFF708FC2C
:10291000A0EB0901514502D90320BDE8F0872068EA
:10292000696800F00C00B0EB810FEFD1D8F800100F
:10293000404601F00F01B14207D90770006800F06E
:102940000F00B04201D00120E7E72878400705D505
:102950002068E96820F4E0500843206028780007E8
:1029600006D52068296920F4604040EAC100206053
:1029700000F038F82168084AC1F30311515CC840DF
:102980000649086006480068FFF7F6FE0020C4E725
:10299000003C02400838024088890008C40000203A
:1029A000BC0000200448054900680968044AC1F3D6
:1029B0008221515CC8407047C400002008380240A2
:1029C000988900080448054900680968044AC1F369
:1029D0004231515CC8407047C400002008380240B2
:1029E00098890008154810B5006810F00C021448CA
:1029F00013D01449042A0FD0082A0ED10F4C241FDB
:102A00002268236802F03F025B0207D52068C0F30A
:102A10008810A0FB010106E0084610BD2168C1F343
:102A20008811A1FB00010023FDF764FC2168C1F3BC
:102A30000141491C4900B0FBF1F010BD08380240CB
:102A40000024F400001BB7002DE9F84F040076D0F5
:102A50002078DFF838A3CE4DC00749D0DAF800104F
:102A60005046C1F38101012908D00068C0F38100FC
:102A700002280AD1281D0068400206D52868800374
:102A800036D560680028E2D032E06068B0F5803F5B
:102A900010D0B0F5A02F286810D020F48030286026
:102AA000286820F4802028606068A0B1FFF738FB18
:102AB00006460CE0286840F48030F4E740F48020BB
:102AC0002860F7E7FFF72CFB801B642873D8286881
:102AD0008003F7D50CE0FFF723FB064605E000BFB7
:102AE000FFF71EFB801B6428F0D828688003F7D40A
:102AF0002078DFF8A08280074FF000093ED5DAF891
:102B00000010504611F00C0F09D00068C0F381008E
:102B100002280BD19D48001F0068400206D4286897
:102B2000800715D5E068012809D111E0E068B8B147
:102B30000120C8F80000FFF7F3FA064605E020E19F
:102B4000FFF7EEFA801B0228C0D828688007F7D567
:102B50002868216920F0F80040EAC10028600DE0F3
:102B6000C8F80090FFF7DCFA064604E0FFF7D8FA51
:102B7000801B02281FD828688007F7D42078000718
:102B800022D5824E844861696C3671B101210160A1
:102B9000FFF7C6FA074604E0FFF7C2FAC01B022897
:102BA00009D830688007F7D50EE0C0F80090FFF72D
:102BB000B7FA074605E082E0FFF7B2FAC01B022829
:102BC0007DD830688007F7D42078400768D5DFF8D3
:102BD000BCB100270BF1380BDBF80000C0000BD4B0
:102BE000DBF8001041F08051CBF80010DBF800005A
:102BF000012700F080500090684E3068C00510D466
:102C0000306840F480703060FFF78AFA009005E089
:102C1000FFF786FA0099401A022850D83068C0059C
:102C2000F6D55A4EA068683601280FD005283068BE
:102C300010D020F001003060306820F004003060D7
:102C4000A068B8B1FFF76CFA00900FE0306840F070
:102C50000100F4E740F004003060F7E7FFF760FAA6
:102C60000099411A41F28830814266D83068800765
:102C7000F4D50EE0FFF754FA009007E0FFF750FAA2
:102C80000099411A41F28830814256D83068800755
:102C9000F4D42FB1DBF8001021F08051CBF80010F4
:102CA000A069D0B3DAF800205146C2F38102022AAB
:102CB0004AD00228484607D0C8F8600000E03CE04F
:102CC000FFF72EFA04463BE04746C8F86000FFF7DE
:102CD00027FA064605E000BFFFF722FA801B02280C
:102CE0002BD828688001F7D4D4E907010843A16AEA
:102CF0002B4A490802EB0141626A41EA821108430A
:102D000094F82C1040EA01612048001F0160012066
:102D10003866FFF705FA044605E034E0FFF700FAED
:102D2000001B022809D828688001F7D52BE000BFD6
:102D3000FFF7F6F9001B022802D90320BDE8F88F3F
:102D400028688001F4D41EE00128F7D00868E26901
:102D500000F48001914214D1226A00F03F019142B7
:102D60000FD147F6C071626A0140914209D1A26A4F
:102D700000F44031914204D1E16A00F07060884271
:102D800001D00120DAE70020D8E70000083802402F
:102D90000038024000004742800E47420070004069
:102DA0000000FFFF70B5040005D00025A56294F86F
:102DB000510010B106E0012070BD84F8505020464B
:102DC00000F030F8022084F851002068016821F0FA
:102DD00040010160D4E901010843D4E90312114321
:102DE000084361690843218B01F400710843E169DC
:102DF0000843216A0843A16A084321680860A06962
:102E0000042101EA1040616A084321684860206893
:102E1000C16921F40061C1616565012084F8510038
:102E2000002070BD2DE9F04387B0064614216846A6
:102E3000FDF7AAFA34493068884261D13348002549
:102E4000016841F480510160006800F480500590F1
:102E50002E481438016841F002010160016801F058
:102E600002010591016841F001010160006802243E
:102E700000F001000590182001274FF003084FF0E3
:102E800005098DE8910369462148FFF767F880201E
:102E90008DE8910369461F48FFF760F81F4C1E48F4
:102EA0004FF0C067E4E8020740204FF48068A4E8D0
:102EB0002101C00244F81459A561C4E9075017481C
:102EC0006562FEF773FF08B1FEF713F8B464A663FA
:102ED000124C1148603418382060C4E90175C4E907
:102EE000035865614FF44030A561C4E9075020469E
:102EF0006562FEF75BFF08B1FDF7FBFFF464A663B4
:102F000007B0BDE8F08300000030014044380240C3
:102F1000000402400000024058640240A00C00205F
:102F20002DE9F84F044690F8500000270A9E1D46F0
:102F300092468B464FF0010901280ED0012084F8FB
:102F40005000FFF7EDF8804694F8510061680128C1
:102F50000CD0B1F5827F07D102E00220BDE8F88FE6
:102F6000A16809B9042801D00227C2E0BBF1000F13
:102F700027D0BAF1000F24D01DB394F851000428D3
:102F800002D0052084F8510000206065C4F838A004
:102F9000E587A587C4F830B0E586A586206460641F
:102FA00020680168490603D4016841F040010160CE
:102FB000E068B0F5006F606805D0E8B3012D46D039
:102FC0007FE0012795E008B1012D39D1206B216800
:102FD0000088C860206B801C2063E08E401EE08665
:102FE0002EE02068816889070FD5E18E69B1B9F1BB
:102FF000010F0AD1216B0988C160206B801C2063FE
:10300000E08E401EE0864FF0000920688168C90705
:103010000CD0E18F51B1C068A16B0880A06B801CFF
:10302000A063E08F401EE0874FF00109FFF778F8BA
:10303000A0EB0800B04200E009E001D3701C50D1C1
:10304000E08E0028CDD1E08F0028CAD13FE0206B70
:10305000216800780873206B401C2063E08E401EBE
:10306000E0862EE02068816889070FD5E18E69B17E
:10307000B9F1010F0AD1216B09780173206B401C53
:103080002063E08E401EE0864FF0000920688168D2
:10309000C9070CD0E18F51B1C068A16B0870A06B5B
:1030A000401CA063E08F401EE0874FF00109FFF74E
:1030B00037F8A0EB0800B04202D3701C01D010E03A
:1030C0007EB1E08E0028CDD1E08F0028CAD14246E3
:1030D0003146204603F062F828B1012720206065C0
:1030E00007E0032705E0A06818B92068C168806878
:1030F0000090012084F85100002084F850003846E8
:103100002CE710B5401EB0F1807F01D3012010BD27
:103110004FF0E02460610F21601703F073FB002083
:10312000A06107202061002010BD10B590F83C2060
:10313000012A22D0012280F83C20CA688C6822F43F
:10314000407222434C6822F4806222430C6822F4CD
:10315000006222430C6922F4805222434C6922F41B
:1031600000522243C969002322F480420A430168C5
:103170004A6480F83C30002010BD022010BD0000E1
:1031800070B590F83C20012A32D0012480F83C40F0
:10319000022280F83D2003685A689D6822F070067C
:1031A0000A6832435A60134B02689A4214D0B2F153
:1031B000804F11D0104B9A420ED0104B9A420BD038
:1031C0000F4B9A4208D00F4B9A4205D00E4B9A42B1
:1031D00002D00E4B9A4204D1496825F0800319436E
:1031E000916080F83D40002180F83C10084670BD99
:1031F000022070BD000001400004004000080040B3
:10320000000C004000040140004001400018004054
:1032100010B5040003D094F83D0010B107E0012080
:1032200010BD002084F83C00204600F00DF802207C
:1032300084F83D00211D206803F086F8012084F801
:103240003D00002010BD000008B51E4902681E4860
:103250008A4207D1016841F001010160006800F075
:1032600001000BE01849194B091F9A4208D1086860
:1032700040F004000860086800F00400009008BDF9
:10328000134B9A4207D1086840F0080008600868AC
:1032900000F00800F2E70F498A4207D1016841F0C7
:1032A00002010160006800F00200E7E70A498A4273
:1032B000E5D1016841F400310160006800F400309C
:1032C000DCE70000000001404438024000080040F4
:1032D000000C0040000401400044014070B5044669
:1032E00090F83C00012817D0012584F83C500220BA
:1032F00084F83D002068826822F0770222F47F4241
:1033000082600868502830D00DDC20284DD005DCC4
:1033100098B310283BD148E0022070BD302844D03B
:10332000402834D139E0602828D0702806D0B0F584
:10333000805F2CD0B0F5005F29D10AE0CB68D1E9DD
:103340000121206803F064F82068816841F077016A
:1033500009E0CB68D1E90121206803F059F8206821
:10336000816841F48041816011E0CA684968206841
:1033700003F022F95021206807E016E0CA68496886
:10338000206803F02AF96021206803F04BF884F8E4
:103390003D50002084F83C0070BDCA684968206830
:1033A00003F00AF940212068EFE722680146104641
:1033B000EBE70000F0B587B0044614216846FCF73F
:1033C000E3FF3F4B216800253E4802240122994239
:1033D00010D1016841F0100101600068694600F0F9
:1033E000100005904FF4D4408DE83100CDE9035230
:1033F000354813E0354B0326994213D1016841F05B
:10340000080101600068CDE9022600F0080005907F
:103410001814CDE9000469462D480494FEF79EFD7A
:1034200007B0F0BD2B4B994211D1016841F08001EA
:1034300001600068CDE9022400F0800005904FF49F
:10344000E050CDE90004694623480494E6E7234BA5
:103450004027994220D1016841F4807101600168E0
:1034600001F480710591016841F004010160006878
:10347000694600F004000590C0208DE83100CDE9D8
:1034800003561748FEF76AFD0097CDE90145CDE9DF
:10349000035669461348C1E7134B9942C0D10168EE
:1034A00041F02001016000680097CDE9014200F081
:1034B0002000CDE90460694603940C48AEE70000A3
:1034C0000000014030380240001002400008004077
:1034D000000C0240000C0040001C024000040140AF
:1034E0000020024000080240004401400014024055
:1034F00070B5044690F83C000D4601280DD0012619
:1035000084F83C60022084F83D0042B1042A18D0BF
:10351000082A2AD00C2A4DD139E0022070BD20683B
:1035200002F088FF2068816941F00801816120680C
:10353000816921F004018161206881692A69114350
:1035400011E0206802F0A6FF2068816941F4006163
:1035500081612068816921F48061816120688169CD
:103560002A6941EA0221816124E0206802F0C8FF53
:103570002068C16941F00801C1612068C16921F07A
:103580000401C1612068C1692A69114311E0206802
:1035900002F0EAFF2068C16941F40061C16120685E
:1035A000C16921F48061C1612068C1692A6941EA69
:1035B0000221C16184F83D60002084F83C0070BDA8
:1035C00010B5040003D094F83D0010B107E00120CD
:1035D00010BD002084F83C00204600F00CF80220CA
:1035E00084F83D00211D206802F0AEFE012084F821
:1035F0003D00002010BD704770B5040004D094F861
:103600003900002510B106E0012070BD84F8385063
:10361000204600F023F8242084F839002068C1688F
:1036200021F40051C160204602F0EAFF20680169E0
:1036300021F4904101612068416921F02A01416132
:103640002068C16841F40051C160E563202084F81E
:10365000390084F83A00002070BD00002DE9F04FD9
:1036600087B0044614216846FCF78EFE7B48DFF8DD
:10367000E8811438D4F800C0784B022701210322D6
:10368000002506154FF0070BC44549D1D3F800C0FB
:103690004CF0100CC3F800C01B6803F01003059336
:1036A000036843F002030360036803F00203059319
:1036B000036843F00103036000688A4600F00100DC
:1036C000059080208DE88104CDE9032B9146D846F2
:1036D00069466348FEF742FC70108DE88104CDE92D
:1036E000039869465F48FEF739FC604F5E4807F172
:1036F0000808386070047860402088E861007D61C7
:103700008002BD61C7E9075038467D62FEF74EFB77
:1037100008B1FDF7EEFB2763BC6307B0BDE8F08F8F
:10372000DFF84C814FF40039C4453CD14B4B1B1F93
:10373000D3F800C04CF4802CC3F800C01B6803F41D
:1037400080230593036843F004030360006802AB21
:1037500000F00400059083E806084FF44060CDE9CE
:10376000000769464348FEF7F9FB404F424860377F
:1037700038604FF00060C7E90105C7E903567D6175
:10378000BD61C7E9075938467D62FEF70FFB08B1F6
:10379000FDF7AFFB6763002205212720BC63FFF71D
:1037A00035F8272055E0DFF8D480C445B5D1D3F8EB
:1037B00000C04CF0200CC3F800C01B6803F02003CD
:1037C0000593036843F0400303600068CDE90212EB
:1037D00000F0400005904FF48440CDE90007082038
:1037E000049069462648FEF7B9FB204F1E48C037B3
:1037F000903838604FF02068C7E90185C7E9035663
:103800007D61BD61C7E9075938467D62FEF7CEFA92
:1038100008B1FDF76EFB6763BC631348194F183896
:10382000E7E80208402061C7800247F81459BD61EB
:10383000C7E9075013487D62FEF7B8FA08B1FDF7F3
:1038400058FB2763002205214720BC63FEF7DEFFFB
:103850004720FEF7CDFF60E70010014044380240EA
:103860000004024000000240B8640240600F0020E3
:103870000048004000080240286002400014014057
:103880000018024080100020FEE701684A69D24318
:1038900052050FD46FF480624A61002140F8301F56
:1038A000202242738173026942F0040202610173B3
:1038B00001207047002070472DE9F84F044600684A
:1038C00089460B9D01689846174641F48061016066
:1038D0002068016841F48071016000954FF0011B80
:1038E0000022594620460A9B00F0DEF84FF4007A89
:1038F00040B120680068C00501D5C4F840A003208D
:10390000BDE8F88F216809F0FE0008612B462849C0
:1039100020460A9A00F0FCF8F0BB206841698069F3
:1039200000902A4620460A9900F070F940B1206CB8
:1039300004283AD12068016841F40071016034E044
:10394000FEB2B8F1010F09D02168380A08612A4691
:1039500020460A9900F05AF90028E8D1206806614B
:103960002A4620460A9900F051F90028DFD1206844
:10397000016841F48071016000950022594620469B
:103980000A9B00F091F80028B3D1216809F0FF00EC
:1039900040F00100086100E007E02B4604492046A2
:1039A0000A9A00F0B5F80028AAD00120A8E7000084
:1039B000020001002DE9F843044600680D46DDE9E8
:1039C000089701689846164641F4807101604B469D
:1039D00000224FF001112046009700F065F848B131
:1039E00020680068C00502D54FF4007020640320F1
:1039F000BDE8F883216805F0FE0008613B464A46B1
:103A00001549204600F084F888B92068416980692A
:103A100000903A464946204600F0F8F848B1206C3C
:103A2000042804D12068016841F40071016001207C
:103A3000DEE7F5B2B8F1010F09D02168300A08615C
:103A40003A464946204600F0E1F80028E7D12068D0
:103A500005610020CCE700000200010070B51646A9
:103A60000D4604460DE02046FFF70FFF08B1012088
:103A700070BD681C05D0FEF753FB801BA84207D819
:103A800035B120684069C0434007ECD4002070BDC8
:103A9000002044F8300F20216173A073216941F0A8
:103AA000200121612073E2E72DE9F0471E46904690
:103AB0000D460446C1F30747DDF8209008E0701C6E
:103AC00006D0FEF72DFBA0EB0900B0420FD876B16F
:103AD0002068012F18D0806925EA00000004000C3E
:103AE00014D000214145EAD00020BDE8F087002035
:103AF00044F8300F20216173A073216941F0200147
:103B0000216120730120F0E74069E5E70121E9E741
:103B10002DE9F0479A4691460E46044600254FF09F
:103B20002008C1F3074725E020684069C0434005ED
:103B300014D42068016841F40071016021686FF4B9
:103B400080604861256384F83D8084F83E50206C95
:103B500040F00400206484F83C501FE0B9F1FF3FBE
:103B600008D0FEF7DDFAA0EB0A0149450CD8B9F1FF
:103B7000000F09D02068012F13D0806926EA0000C9
:103B80000004000C0BD0CFE744F8305F84F80D80C0
:103B9000A573206940F02000206125730120BDE855
:103BA000F0874069EAE72DE9F041002590460E468E
:103BB0000446202717E04069C043C0060CD454F8DF
:103BC000301B6FF01000486144F810596777A577F3
:103BD000206A2062257717E0FEF7A2FAA0EB080022
:103BE000B04208D83EB120684169C9434906E2D4D1
:103BF0000020BDE8F08144F8305F6773A573206949
:103C000040F02000206125730120F2E770B51646D0
:103C10000D4604460DE02046FFF737FE08B10120AF
:103C200070BD681C05D0FEF77BFA801BA84207D840
:103C300035B120684069C0430006ECD4002070BD57
:103C4000002044F8300F20216173A073216941F0F6
:103C5000200121612073E2E7072000E0642003F0E7
:103C600042FEFCF757FE0028F8D102E0642003F082
:103C70003AFE03F08DFD0028F8D1434AA2F1100569
:103C8000101D9246291D8146FCF75CFEDFED3F0AC0
:103C90009FED3F0A3F4A002105F1340001F070F822
:103CA00005F124073A1D291DA5F12800FCF782FD26
:103CB000002003F04FFE04F0F5FC374C3749E0617B
:103CC0001020C8610846FFF76DF808B1FDF711F93B
:103CD000314908222C31A1F1080002F0E7F9012056
:103CE0002071294E4FF0FF38283E4146012004F054
:103CF0003BF90128F9D196ED000A84ED050A96ED0D
:103D0000010A84ED040A96ED020A84ED030A207884
:103D1000400708D5207820F0040020701E4849464E
:103D20002D30FCF7C7FD607840070AD5607820F099
:103D300004006070144A291D1032A2F12A00FCF719
:103D400073FDA07840070CD5A07820F00400A07087
:103D5000114851462230FCF7CFFE95ED040A03F0DE
:103D60007BFC09483B1D2A1D49469FED0D0A38384A
:103D7000FCF730FD044B321D203BA3F10801A1F1FB
:103D8000100003F041FBB0E7EC06002000808945FD
:103D900000A08C45088900084C000020480C002039
:103DA0006F12833A7FB50024154800940194029461
:103DB0001249039401604FF40031C0E90114046119
:103DC000047680F820400F49C0E90A140125C56136
:103DD000C46080F830404561FDF788FA08B1FDF70E
:103DE00088F81020CDE90005694602940448FDF7E3
:103DF000D7F9002801D0FDF77CF87FBD00200140F5
:103E0000B80700200100000F7FB50024154800947A
:103E1000019402941249039401604FF40031C0E907
:103E200001140461047680F820400F49C0E90A14A7
:103E30000125C561C46080F830404561FDF756FA40
:103E400008B1FDF756F80820CDE90005694602944F
:103E50000448FDF7A5F9002801D0FDF74AF87FBD19
:103E600000220140000800200100000F0F4810B59B
:103E70000D4901600321416000214FF4102281604F
:103E8000C0E903124FF40012426101764176817657
:103E9000C17601774177FDF700FD002803D0BDE82A
:103EA0001040FDF726B810BD00640040480800200F
:103EB0000F4810B50D4901600321416000214FF406
:103EC00010228160C0E903124FF4001242610176B2
:103ED00041768176C17601774177FDF7DEFC0028D7
:103EE00003D0BDE81040FDF704B810BD00680040E5
:103EF00070080020074910B5054808600846FDF71E
:103F000060FE002803D0BDE81040FCF7F2BF10BDF2
:103F100000300240A4000020254808B5016841F4A3
:103F200000110160016801F400110091016841F481
:103F3000800101600068002200F4800000900521EB
:103F40000C20FEF763FC0C20FEF752FC002205213A
:103F50002F20FEF75BFC2F20FEF74AFC00220521F4
:103F60003920FEF753FC3920FEF742FC00220521E0
:103F70003A20FEF74BFC3A20FEF73AFC00220521DE
:103F80003B20FEF743FC3B20FEF732FC00220521DC
:103F90004520FEF73BFC4520FEF72AFC00220521C8
:103FA0004620FEF733FCBDE808404620FEF720BC63
:103FB0003038024010B596B01C2211496846FCF713
:103FC000CAF90021684603F09AFC0E4C0C491C22E9
:103FD000A0601C3107A8FCF7BEF9002107A803F078
:103FE0008EFC074960601C2238310EA8FCF7B3F93B
:103FF00000210EA803F083FC206016B010BD000065
:104000002C890008AC0000202DE9F04186B0142175
:104010006846FCF7B9F95A48016841F002010160AD
:10402000016801F002010591016841F04001016061
:10403000016801F040010591016841F00101016052
:10404000016801F001010591016841F0080101607A
:10405000016801F008010591016841F00401016067
:10406000016801F004010591016841F4807101606B
:10407000016801F480710591016841F0200101603F
:10408000016801F020010591016841F080010160A3
:10409000016801F080010591016841F010010160A3
:1040A0000068384F00F0100005900122402138468A
:1040B000FEF730F8344E012210213046FEF72AF880
:1040C000DFF8C880012211464046FEF723F801249C
:1040D0004020CDE900040294694638460394FDF778
:1040E0003DFF082000902A48CDE901046946384682
:1040F000FDF734FF1020CDE9000402256946304663
:10410000CDE90245FDF72AFF224E3020CDE9000619
:10411000694602942048FDF721FFCDE90046694633
:1041200038460294FDF71AFF009469464046019410
:10413000CDE90245FDF712FF062100220846FEF7F1
:1041400065FB0620FEF754FB002205210920FEF73F
:104150005DFB0920FEF74CFB002205210A20FEF73B
:1041600055FB0A20FEF744FB002205211720FEF72D
:104170004DFB1720FEF73CFB06B0BDE8F0810000C8
:1041800030380240001802400000024000040240A3
:104190000000211000001110000802400D4810B569
:1041A0000B4901600C49416000214FF4804281605D
:1041B000C0E9031241618161C1610162FDF7B6FF8F
:1041C000002803D0BDE81040FCF793BE10BD0000EE
:1041D00000540040EC0A0020801A06000D4810B57B
:1041E0000B4901600C49416000214FF4804281601D
:1041F000C0E9031241618161C1610162FDF796FF6F
:10420000002803D0BDE81040FCF773BE10BD0000CD
:1042100000580040400B0020801A06000D4810B5E1
:104220000B4901600C49416000214FF480428160DC
:10423000C0E9031241618161C1610162FDF776FF4E
:10424000002803D0BDE81040FCF753BE10BD0000AD
:10425000005C0040940B0020801A0600104810B546
:104260000E4901604FF48271416000210222816099
:10427000C0E9031201224261520282613822C0E980
:104280000721416281620A21C162FEF78BFD00288D
:1042900003D0BDE81040FCF72CBE10BD003001403B
:1042A000480C002010B588B01C216846FCF76CF85B
:1042B0001648154900240160A721C0E9011440F205
:1042C000E731C0E903148461FEF7A2FF08B1FCF7EF
:1042D00010FE0E48FFF774F908B1FCF70AFE6020E3
:1042E00000904FF4FA70CDE90104002269460748B6
:1042F0000494FFF7FDF808B1FCF7FBFD0348FFF756
:1043000059F808B010BD000000440140600E0020C4
:1043100010B596B000240F94109411941294139435
:104320001C2168461494FCF72FF8202107A8FCF7FD
:104330002BF8354833490160A721C0E9011444F640
:104340001F61C0E9031444618461FEF761FF08B195
:10435000FCF7CFFD4FF480500F900FA92A48FEF7CD
:10436000BDFF08B1FCF7C5FD2748FFF729F908B1E3
:10437000FCF7BFFD139413A923481494FEF700FF24
:1043800008B1FCF7B6FD602000904FF4FA60CDE96B
:104390000104039404940594002269461A48069483
:1043A000FFF7A6F808B1FCF7A4FD042269461648F9
:1043B000FFF79EF808B1FCF79CFD082269461248F9
:1043C000FFF796F808B1FCF794FD0C2269460E48F9
:1043D000FFF78EF808B1FCF78CFD07940894099458
:1043E0004FF400500A94CDE90B4007A906480E94FB
:1043F000FEF79BFE08B1FCF77CFD0348FEF7DAFFF1
:1044000016B010BD00000140600D002010B58EB048
:1044100000240794089409940A940B941C2168467C
:104420000C94FBF7B1FF1E481C490160A721C0E9AD
:1044300001144FF6FF71C0E903148461FEF7E8FE32
:1044400008B1FCF756FD4FF48050079007A91448B7
:10445000FEF744FF08B1FCF74CFD1148FFF7B0F838
:1044600008B1FCF746FD0B940BA90D480C94FEF720
:1044700087FE08B1FCF73DFD6020CDE90004029401
:104480000822694606480494FFF732F808B1FCF7A1
:1044900030FD0348FEF78EFF0EB010BD000800404F
:1044A000A00D002010B58EB0002407940894099444
:1044B0000A940B941C2168460C94FBF765FF28486E
:1044C00026490160A721C0E9011440F2E731C0E9A3
:1044D00003148461FEF79CFE08B1FCF70AFD4FF45B
:1044E0008050079007A91E48FEF7F8FE08B1FCF7B8
:1044F00000FD1B48FFF764F808B1FCF7FAFC0B94C9
:104500000BA917480C94FEF73BFE08B1FCF7F1FC31
:104510006020CDE90004029400226946104804940A
:10452000FEF7E6FF08B1FCF7E4FC4FF4FA700190E7
:10453000042269460A48FEF7DBFF08B1FCF7D9FC04
:10454000082269460648FEF7D3FF08B1FCF7D1FC04
:104550000348FEF72FFF0EB010BD0000000C004016
:10456000E00D002010B596B000240F941094119423
:10457000129413941C2168461494FBF705FF202124
:1045800007A8FBF701FF31482F490160A721C0E9C7
:10459000011444F61F61C0E9031444618461FEF70D
:1045A00037FE08B1FCF7A5FC4FF480500F900FA91F
:1045B0002648FEF793FE08B1FCF79BFC2348FEF764
:1045C000FFFF08B1FCF795FC139413A91F4814943E
:1045D000FEF7D6FD08B1FCF78CFC602000904FF48C
:1045E000FA60CDE90104039404940594002269461D
:1045F00016480694FEF77CFF08B1FCF77AFC04220B
:1046000069461248FEF774FF08B1FCF772FC0822F5
:1046100069460E48FEF76CFF08B1FCF76AFC079488
:10462000089409944FF400500A94CDE90B4007A96F
:1046300006480E94FEF779FD08B1FCF75AFC0348D2
:10464000FEF7B8FE16B010BD00040140200E002099
:104650000C4810B50A4901604FF4E1314160002176
:1046600081600C22C160C0E904128161C161FEF762
:10467000C3FF002803D0BDE81040FCF73ABC10BDD2
:1046800000100140A00E00200C4810B50A4901603E
:104690000B494160002181600C22C160C0E9041215
:1046A0008161C161FEF7A8FF002803D0BDE810407A
:1046B000FCF71FBC10BD000000480040E00E0020C9
:1046C000A08601000C4810B50A4901604FF4E131A1
:1046D0004160002181600C22C160C0E90412816147
:1046E000C161FEF789FF002803D0BDE81040FCF748
:1046F00000BC10BD00140140200F002010B5B5EE25
:10470000C03A2DED108BF0EE419AB0EE60AAF0EEBB
:1047100040AAF1EE10FA84B0044616D1F5EEC03A84
:10472000F1EE10FA11D1B5EEC04AF1EE10FA0CD14B
:1047300004B0B0EE691AF0EE4A0AB0EE6A0ABDECB7
:10474000108BBDE8104000F083B9F5EEC01AF1EE11
:1047500010FA09D1B5EEC02AF1EE10FA04D1F5EE47
:10476000C02AF1EE10FA7CD021EEA10A02EE020A74
:1047700002EEA20A02F0AEFF21EE80FA62EE00EA3B
:1047800022EE80EA23EE030A03EEA30A04EE040AF3
:1047900002F0A0FFD4ED000A23EE009A63EE808AB7
:1047A00060EEA01A24EE008AF0EE00FACDED031AB6
:1047B00094ED010A94ED021AD4ED031A20EE80DA8A
:1047C00060EE81CA20EEA12A61EE01DA60EE002AD5
:1047D00060EE010A20EE21CAB6EE000A21EEA1BA6F
:1047E00030EE6D0A61EE21BA3CEE2C1A70EE4B1AD7
:1047F000CDED021A21EE890A70EEC21A70EE820A1D
:10480000CDED011A08EEA10A60EE890A08EE010A50
:10481000B6EE001A71EE621A20EE2F0A31EECB1AB4
:10482000CDED001A20EE000A48EE810A3BEECD1ACB
:1048300048EE010A60EEAF0A00EEA00A10EE100A80
:10484000FBF7B4FD41EC100B02F0AAF951EC100B90
:10485000FBF7BFFD3CEE6C0A00EE900A20EE091A51
:1048600000E08EE07BEE8D1AF6EE002A3CEE8C4ADC
:104870003DEE2B2A08EEA11ADDED001A704931EE4B
:10488000ED3ADDED031A71EEE21A08EE031A71EE4D
:104890008B3ADDED021A21EE2F1A61EEA02ADDED32
:1048A000011A61EEA01A64EE200A41EE002A41EEE0
:1048B000021A41EE030A2EEEA31A0EEE421A28EE59
:1048C000A03A2FEE022A08EE613A0EEEC02A31EE2F
:1048D000031A2EEE003A29EE210AD1ED011A0FEE4D
:1048E000633A68EE223A08EEE20AF5EEC01A49EEA3
:1048F000603A32EE000A73EE230AF1EE10FA2CDD74
:10490000D1ED011A91ED022A61EE812ADFED4D1AF7
:1049100002EEA12A81ED022A91ED012A62EE202AFF
:1049200091ED032A02EEA12A81ED032A91ED012ADD
:1049300062EE002A91ED042A02EEA12A81ED042AFA
:10494000D1ED021A7AEEA1AAD1ED031A3AEE21AA0C
:10495000D1ED041A79EEA19A07E0DFED3B1AC1ED23
:10496000021AC1ED031AC1ED041AD1ED001A41EE8D
:1049700081AA91ED001A01EE20AAD1ED000A40EEC5
:10498000809A9FED320A94ED011A94ED022A6AEEA4
:10499000800A2AEE003A69EE802A94ED030A61EE5D
:1049A000603AD4ED001A42EE433A40EE623A73EEBA
:1049B000A14A61EEA03AC4ED004A42EE223A40EE2E
:1049C000433A33EE814A61EE833A61EEA21A84EDF6
:1049D000014A41EE623A41EE031A40EE203A42EEBD
:1049E000601A73EE823A71EE800A24EEA40AC4EDD6
:1049F000023AC4ED030A04EE040A03EEA30A00EE31
:104A0000A00A02F067FED4ED000A60EE800AC4ED51
:104A1000000AD4ED010A60EE800AC4ED010AD4ED6B
:104A2000020A60EE800AC4ED020AD4ED030A20EE09
:104A3000800A84ED030A04B0BDEC108B10BD0000A9
:104A40008C0000206F12833A000000006F12033ABE
:104A5000F5EEC01AB0EE413AF0EE603AB0EE404AE0
:104A6000F1EE10FA00B5024609D1B5EEC02AF1EE1A
:104A700010FA04D1F5EEC02AF1EE10FA78D021EE4A
:104A8000A10A02EE020A02EEA20A02F023FE21EEC1
:104A9000805A62EE004A92ED011AD2ED030A22EE2C
:104AA000800AD2ED002A21EE202AD2ED021A22EE4F
:104AB000811A5C4802EEE12A01EEA01AF6EE001A15
:104AC00052EEA21A40EEA01A60EE020A64EEA12A8B
:104AD00045EE610A40EE412A25EE010A90ED011AE9
:104AE00004EEC20AB5EEC01AF1EE10FA2CDD90ED1C
:104AF000011AD0ED021A21EE222A9FED4B1A42EE46
:104B0000011AC0ED021AD0ED011A21EEA02AD0ED53
:104B1000031A42EE011AC0ED031AD0ED011A21EE7C
:104B2000802AD0ED041A42EE011AC0ED041A90ED6D
:104B3000021A34EE014A90ED031A73EE813A90EDB9
:104B4000041A33EE013A07E09FED381A80ED021A9D
:104B500080ED031A80ED041A90ED001A01EE224A4E
:104B600090ED001A41EE203AD0ED000A00EE803AB6
:104B70009FED2F0AD2ED021A24EE002A63EE802A5E
:104B800023EE001A92EC020A92ED033A60EEC23A6A
:104B900041EEE23A43EE413A73EE804A60EE023A69
:104BA000C2ED004A41EE813A43EE623A33EEA04A4A
:104BB00060EE223A20EE010A82ED014A40EEC13A4F
:104BC00000EEA20A43EE023A01EEC20A73EEA13AE7
:104BD00070EE030A24EEA40AC2ED023AC2ED030A03
:104BE00004EE040A03EEA30A00EEA00A02F072FD2E
:104BF000D2ED000A60EE800AC2ED000AD2ED010A91
:104C000060EE800AC2ED010AD2ED020A60EE800A6F
:104C1000C2ED020AD2ED030A20EE800A82ED030AF9
:104C200000BD00008C0000206F12833A00000000DD
:104C30006F12033AFEE770479FED502AA0B1D0ED06
:104C4000101AC0ED111A90ED0F1A80ED101AC0ED78
:104C5000060A80ED070A30EEC00A80ED0F0A0178DF
:104C600029B101293BD086E0B0EE420A7047D0ED71
:104C7000010A60EE801AC0ED091AD0ED0A0A90ED23
:104C8000022A42EE000A30EE410AC0ED0A0A90ED17
:104C90000D2A80ED0E2A90ED0C2A80ED0D2A80ED74
:104CA0000C0A90ED031A21EE001A80ED0B1A90ED1C
:104CB000050AF4EEC00AF1EE10FA09DCB1EE400A82
:104CC000F4EEC00AF1EE10FA02D390ED0A0A01E008
:104CD00080ED0A0A31EE800A30EE010A39E010EE6A
:104CE000101AB1F1804F06DC10EE101AB1F1404FEE
:104CF00001D880ED0F2A90ED0F0A90ED012A70EE99
:104D0000410A60EE820AC0ED090A90ED022A22EE05
:104D1000002A80ED0A2AD0ED0D2A70EE820AC0ED3D
:104D20000E2AD0ED0C2AC0ED0D2AF0EE002A01EE7D
:104D3000620A30EE210A80ED0C0A90ED031A21EE92
:104D4000000A80ED0B0A30EE800AD0ED080A30EE42
:104D5000200A80ED080AD0ED040AB4EEE00AF1EE74
:104D600010FA06DCF1EE600AB4EEE00AF1EE10FA99
:104D700001D2C0ED080A90ED080A7047000000005B
:104D8000002826D0002A24D0017092ED001A80ED70
:104D9000011A92ED011A80ED021A92ED021A80EDCD
:104DA000031A80ED040A9FED0B0AC0ED050A80EDA1
:104DB0000E0A80ED0D0A80ED0C0A80ED0B0A80EDE5
:104DC0000A0A80ED090A80ED110A80ED100A80EDD3
:104DD0000F0A70470000000030B5144B1C6865696D
:104DE00045F0400565611B68DC6844F01004DC6038
:104DF0000F4B1C68256825F0010525601C68256897
:104E0000ED07F7D11D680B4CAC601C68E0601868BA
:104E10000161186842601868016841F480210160EE
:104E20001868016841F00101016030BDE00E00200A
:104E3000C00F0020044800402DE9F74FF84981B029
:104E40000868026822F001020260F64802681368EE
:104E500023F00103136003E00A6822F001020A60F4
:104E6000EF4909680A68D207F6D103E0016821F02A
:104E700001010160EB4800680168C907F6D1EA4802
:104E8000EA4AEB4BD0F84C90E84CE94DE74EE84F3E
:104E9000DFF898E3DFF894C3D9F80000E449483A12
:104EA000603318341835303E78374FF4006A0CF10F
:104EB000300C704535D9884205D0904203D09842D5
:104EC00001D0A04201D1202026E0A84205D0B04266
:104ED00003D0B84201D0604501D150461CE0DFF854
:104EE000508308F13008404511D0DFF84083A8F125
:104EF000180840450BD0DFF8388308F1900840458A
:104F000005D0DFF8288308F14808404502D14FF466
:104F1000001001E04FF00060DFF81083A8F14C08AA
:104F20003AE0DFF80C8308F1A808404537D98842F9
:104F300005D0904203D0984201D0A04201D1202058
:104F400026E0A84205D0B04203D0B84201D0604567
:104F500001D150461CE0DFF8D88208F13008404506
:104F600011D0DFF8C882A8F1180840450BD0DFF84F
:104F7000C08208F19008404505D0DFF8B08208F102
:104F80004808404502D14FF4001001E04FF00060A6
:104F9000DFF89882A8F15008C8F8000074E0DFF844
:104FA000908208F14808404537D9884205D09042A0
:104FB00003D0984201D0A04201D1202026E0A8428F
:104FC00005D0B04203D0B84201D0604501D150466F
:104FD0001CE0DFF85C8208F13008404511D0DFF8B2
:104FE0004C82A8F1180840450BD0DFF8448208F144
:104FF0009008404505D0DFF8348208F14808404564
:1050000002D14FF4001001E04FF00060DFF8208281
:10501000A8F11008C8F80C0036E0884205D090428C
:1050200003D0984201D0A04201D1202026E0A8421E
:1050300005D0B04203D0B84201D0604501D15046FE
:105040001CE0DFF8EC8108F13008404511D0DFF8B2
:10505000DC81A8F1180840450BD0DFF8D48108F1B5
:105060009008404505D0DFF8C48108F14808404564
:1050700002D14FF4001001E04FF00060DFF8B08182
:10508000A8F11008C8F80800D9F800004FF4806BA8
:10509000704535D9884205D0904203D0984201D05E
:1050A000A04201D1102026E0A84205D0B04203D092
:1050B000B84201D0604501D158461CE0DFF870814C
:1050C00008F13008404511D0DFF86081A8F11808D8
:1050D00040450BD0DFF8588108F19008404505D0D5
:1050E000DFF8488108F14808404502D14FF48010AC
:1050F00001E04FF08060DFF83481A8F14C083AE01D
:10510000DFF82C8108F1A808404537D9884205D03E
:10511000904203D0984201D0A04201D1102026E055
:10512000A84205D0B04203D0B84201D0604501D1B9
:1051300058461CE0DFF8F88008F13008404511D0EF
:10514000DFF8E880A8F1180840450BD0DFF8E080D0
:1051500008F19008404505D0DFF8D08008F14808F4
:10516000404502D14FF4801001E04FF08060DFF83D
:10517000BC80A8F15008C8F800007AE0DFF8B080E1
:1051800008F14808404537D9884205D0904203D0FD
:10519000984201D0A04201D1102026E0A84205D0BB
:1051A000B04203D0B84201D0604501D158461CE05E
:1051B000DFF87C8008F13008404511D0DFF86C80C2
:1051C000A8F1180840450BD0DFF8648008F190087A
:1051D000404505D0DFF8548008F14808404502D129
:1051E0004FF4801001E04FF08060DFF84480A8F1B8
:1051F0001008C8F80C003CE0884205D0904203D06B
:10520000984201D0A04201D110202CE0A84205D044
:10521000B04203D0B84201D060450BD1584622E0DD
:10522000000D0020A00C0020480C00205864024013
:1052300010600240DFF8688940450FD0DFF86489CC
:1052400040450BD0DFF8588908F16008404505D08B
:10525000DFF8508908F16008404502D14FF4801012
:1052600001E04FF08060DFF83889A8F14008C8F805
:105270000800D9F80000704532D9884205D0904224
:1052800003D0984201D0A04201D1082023E0A842D7
:1052900005D0B04203D0B84201D0604502D14FF4EE
:1052A000007018E0DFF8F88840450FD0DFF8F48888
:1052B00040450BD0DFF8E88808F16008404505D08C
:1052C000DFF8E08808F16008404502D14FF4002083
:1052D00001E04FF00070DFF8CC88A8F1340837E027
:1052E000DFF8BC8808F17808404534D9884205D0F9
:1052F000904203D0984201D0A04201D1082023E07F
:10530000A84205D0B04203D0B84201D0604502D1D6
:105310004FF4007018E0DFF8888840450FD0DFF8C0
:10532000848840450BD0DFF8788808F16008404554
:1053300005D0DFF8708808F16008404502D14FF4CD
:10534000002001E04FF00070DFF85888A8F138081D
:10535000C8F800006EE0DFF8488808F118084045FA
:1053600034D9884205D0904203D0984201D0A0425F
:1053700001D1082023E0A84205D0B04203D0B842B2
:1053800001D0604502D14FF4007018E0DFF81088BA
:1053900040450FD0DFF80C8840450BD0DFF800887F
:1053A00008F16008404505D0DFF8F88708F160088B
:1053B000404502D14FF4002001E04FF00070DFF8CB
:1053C000E087A8F14008C8F80C0033E0884205D017
:1053D000904203D0984201D0A04201D1082023E09E
:1053E000A84205D0B04203D0B84201D0604502D1F6
:1053F0004FF4007018E0DFF8A88740450FD0DFF8C1
:10540000A48740450BD0DFF8988708F16008404535
:1054100005D0DFF8908708F16008404502D14FF4CD
:10542000002001E04FF00070DFF87487A8F1400819
:10543000C8F80800DFF86C87D9F8000008F11808F0
:105440004FF4807E404531D9884205D0904203D048
:10545000984201D0A04201D1042022E0A84205D008
:10546000B04203D0B84201D0604501D1704618E087
:10547000DFF82C8740450FD0DFF8288740450BD058
:10548000DFF81C8708F16008404505D0DFF8148775
:1054900008F16008404502D14FF4802001E04FF050
:1054A0008070DFF80087A8F1340836E0DFF8F08676
:1054B00008F17808404533D9884205D0904203D09E
:1054C000984201D0A04201D1042022E0A84205D098
:1054D000B04203D0B84201D0604501D1704618E017
:1054E000DFF8BC8640450FD0DFF8B88640450BD0CA
:1054F000DFF8AC8608F16008404505D0DFF8A486E7
:1055000008F16008404502D14FF4802001E04FF0DF
:105510008070DFF89086A8F13808C8F800006CE0C9
:10552000DFF87C8608F11808404533D9884205D059
:10553000904203D0984201D0A04201D1042022E041
:10554000A84205D0B04203D0B84201D0604501D195
:10555000704618E0DFF8488640450FD0DFF84486F3
:1055600040450BD0DFF8388608F16008404505D08B
:10557000DFF8308608F16008404502D14FF4802002
:1055800001E04FF08070DFF81886A8F14008C8F8F5
:105590000C0032E0884205D0904203D0984201D0FE
:1055A000A04201D1042022E0A84205D0B04203D09D
:1055B000B84201D0604501D1704618E0DFF8E085BF
:1055C00040450FD0DFF8DC8540450BD0DFF8D085B3
:1055D00008F16008404505D0DFF8C88508F160088B
:1055E000404502D14FF4802001E04FF08070DFF899
:1055F000B085A8F14008C8F80800DFF8A885D9F8F8
:10560000000008F118084FF48039404530D988422D
:1056100005D0904203D0984201D0A04201D1012090
:1056200021E0A84205D0B04203D0B84201D0604585
:1056300001D1402017E0DFF8688540450FD0DFF842
:10564000648540450BD0DFF8588508F16008404577
:1056500005D0DFF8508508F16008404501D1484683
:1056600001E04FF48000DFF83C85A8F1340835E014
:10567000DFF82C8508F17808404532D9884205D0FA
:10568000904203D0984201D0A04201D1012021E0F4
:10569000A84205D0B04203D0B84201D0604501D144
:1056A000402017E0DFF8F88440450FD0DFF8F4849D
:1056B00040450BD0DFF8E88408F16008404505D08C
:1056C000DFF8E08408F16008404501D1484601E078
:1056D0004FF48000DFF8CC84A8F13808C8F8000047
:1056E0006AE0DFF8BC8408F11808404532D98842E6
:1056F00005D0904203D0984201D0A04201D10120B0
:1057000021E0A84205D0B04203D0B84201D06045A4
:1057100001D1402017E0DFF8888440450FD0DFF842
:10572000848440450BD0DFF8788408F16008404558
:1057300005D0DFF8708408F16008404501D1484683
:1057400001E04FF48000DFF85884A8F14008C8F861
:105750000C0031E0884205D0904203D0984201D03D
:10576000A04201D1012021E0A84205D0B04203D0DF
:10577000B84201D0604501D1402017E0DFF8208415
:1057800040450FD0DFF81C8440450BD0DFF8108473
:1057900008F16008404505D0DFF8088408F160088A
:1057A000404501D1484601E04FF48000DFF8F08326
:1057B000A8F14008C8F80800FB48DFF8E883806CCF
:1057C000009008F118080068404531D9884205D09A
:1057D000904203D0984201D0A04201D1202022E083
:1057E000A84205D0B04203D0B84201D0604501D1F3
:1057F000504618E0DFF8A88340450FD0DFF8A483B7
:1058000040450BD0DFF8988308F16008404505D08B
:10581000DFF8908308F16008404502D14FF4001092
:1058200001E04FF00060DFF87C83A8F1340836E037
:10583000DFF86C8308F17808404533D9884205D0F9
:10584000904203D0984201D0A04201D1202022E012
:10585000A84205D0B04203D0B84201D0604501D182
:10586000504618E0DFF8388340450FD0DFF8348326
:1058700040450BD0DFF8288308F16008404505D08B
:10588000DFF8208308F16008404502D14FF4001092
:1058900001E04FF00060DFF80C83A8F13808C8F889
:1058A00000006CE0DFF8F88208F11808404533D9B1
:1058B000884205D0904203D0984201D0A04201D145
:1058C000202022E0A84205D0B04203D0B84201D047
:1058D000604501D1504618E0DFF8C48240450FD042
:1058E000DFF8C08240450BD0DFF8B48208F16008D1
:1058F000404505D0DFF8AC8208F16008404502D190
:105900004FF4001001E04FF00060DFF89482A8F13E
:105910004008C8F80C0032E0884205D0904203D01D
:10592000984201D0A04201D1202022E0A84205D017
:10593000B04203D0B84201D0604501D1504618E0D2
:10594000DFF85C8240450FD0DFF8588240450BD02D
:10595000DFF84C8208F16008404505D0DFF844824A
:1059600008F16008404502D14FF4001001E04FF00B
:105970000060DFF82C82A8F14008C8F80800009801
:10598000DFF820A200680AF1180A504531D9884290
:1059900005D0904203D0984201D0A04201D11020FE
:1059A00022E0A84205D0B04203D0B84201D0604501
:1059B00001D1584618E0DFF8E88140450FD0DFF804
:1059C000E48140450BD0DFF8D88108F160084045FC
:1059D00005D0DFF8D08108F16008404502D14FF4CE
:1059E000801001E04FF08060DFF8B881A8F1340842
:1059F00036E0DFF8AC8108F17808404533D98842B9
:105A000005D0904203D0984201D0A04201D110208D
:105A100022E0A84205D0B04203D0B84201D0604590
:105A200001D1584618E0DFF8788140450FD0DFF803
:105A3000748140450BD0DFF8688108F1600840456B
:105A400005D0DFF8608108F16008404502D14FF4CD
:105A5000801001E04FF08060DFF84881A8F138083D
:105A6000C8F800006CE0DFF8388108F118084045FC
:105A700033D9884205D0904203D0984201D0A04249
:105A800001D1102022E0A84205D0B04203D0B84294
:105A900001D0604501D1584618E0DFF80481404547
:105AA0000FD0DFF8008140450BD0DFF8F48008F11B
:105AB0006008404505D0DFF8EC8008F160084045FB
:105AC00002D14FF4801001E04FF08060DFF8D08009
:105AD000A8F14008C8F80C0032E0884205D0904296
