:020000040800F2
:10000000207400205D020008E72F0008A1260008E8
:10001000E52F0008B504000829360008000000009C
:100020000000000000000000000000009D0100082A
:100030009105000800000000F90100089131000856
:1000400077020008770200087702000877020008AC
:10005000770200087702000893050008770200087D
:1000600077020008990500089F050008770200083C
:10007000770200087702000877020008770200087C
:10008000770200087702000877020008770200086C
:10009000B90400087702000877020008A5050008E7
:1000A000770200087702000877020008770200084C
:1000B000770200087702000877020008770200083C
:1000C000770200087702000877020008770200082C
:1000D000770200087702000877020008770200081C
:1000E000770200087702000877020008770200080C
:1000F00077020008770200087702000877020008FC
:1001000077020008770200087702000877020008EB
:1001100077020008770200087702000877020008DB
:1001200077020008F104000877020008770200084F
:1001300077020008770200087702000877020008BB
:10014000C50400087702000877020008770200085B
:1001500077020008FD04000809050008770200087E
:10016000770200087702000877020008770200088B
:1001700077020008770200087702000800000000FC
:100180007702000877020008DFF80CD000F0ECF8E6
:1001900000480047A1380008207400202C4B196843
:1001A0000868B0E8F04F80F30988BFF36F8F4FF015
:1001B000000080F3118870470000000008480068C4
:1001C000006880F308884FF0000080F3148862B65E
:1001D00061B6BFF34F8FBFF36F8F00DF00BF00BF6B
:1001E00008ED00E0DFF80C00016841F470010160E7
:1001F000704700BF88ED00E0EFF30980BFF36F8F19
:10020000134B1A681EF0100F08BF20ED108A20E96A
:10021000F04F106009B44FF0500080F31188BFF325
:100220004F8FBFF36F8F03F0C3FF4FF0000080F3D9
:10023000118809BC19680868B0E8F04F1EF0100F6B
:1002400008BFB0EC108A80F30988BFF36F8F704746
:1002500038000020EFF30580704700000648804713
:1002600006480047FEE7FEE7FEE7FEE7FEE7FEE79B
:10027000FEE7FEE7FEE7FEE72D32000889010008F1
:100280002DE9F05F0546002092469B4688460646CB
:10029000814640241BE0284641464746224600F05E
:1002A00053F853465A46C01A914110D31146184686
:1002B000224600F03AF82D1A67EB01084F46224615
:1002C0000120002100F031F817EB00094E41201EFB
:1002D000A4F10104DFDC484631462A464346BDE826
:1002E000F09F40EA01039B0703D009E008C9121FF1
:1002F00008C0042AFAD203E011F8013B00F8013BE0
:10030000521EF9D27047D2B201E000F8012B491E0B
:10031000FBD270470022F6E710B513460A460446A2
:100320001946FFF7F0FF204610BD202A04DB203AD3
:1003300000FA02F1002070479140C2F1200320FA38
:1003400003F3194390407047202A04DB203A21FA36
:1003500002F00021704721FA02F3D040C2F12002DE
:100360009140084319467047064C074D06E0E06887
:1003700040F0010394E8070098471034AC42F6D3EC
:10038000FFF706FF0C4600082C460008464910B54A
:100390004A6822F440324A604A6843681A434A6015
:1003A00001684A6822F480724A6001684A680369F9
:1003B00042EA03224A6001684A6822F040724A60B9
:1003C00001684A6883681A434A6001688A6822F4AF
:1003D00000628A6001688A68C3681A438A60816A19
:1003E0006FF07062D14201688A6822F070628A60A0
:1003F00001688A680CD0836A1A438A6001688A6837
:1004000022F040528A6001688A68C36A1A4301E098
:1004100022F040528A6001688A6822F002028A60F3
:1004200001688A68037E42EA43028A6090F82010DD
:10043000002901684A680FD042F400624A600168EE
:100440004A6822F460424A6001684A68174C436A6D
:1004500004EB43331A4301E022F400624A6001686E
:10046000CA6A22F47002CA620168CA6A838B104C9D
:1004700004EB03531A43CA6201688A6822F40072CB
:100480008A6001688A6890F8303042EA43228A60C4
:1004900001688A6822F480628A6001688A6840691B
:1004A00042EA8020886010BD0023014000E0FFFF89
:1004B0000000F0FFFEE70000014800F0F6BA00007F
:1004C00094060020014800F0F0BA0000BC060020AD
:1004D0001CB59BB292B2CDE900238BB282B2024925
:1004E000024803F07BFC1CBD880400209406002019
:1004F000014800F06BBD00006C0E0020014800F0C8
:1005000065BD0000CC0E0020014800F05FBD00007A
:10051000AC0D002001681823CAB2103AB2FBF3F206
:10052000054B6FF30901032A9B5CC36500D9091DC4
:100530008165084670470000D445000810B50146A3
:1005400000208B698A6A4FF0C07453B1B3F5005F25
:1005500015D072B1012A0CD0022A0AD0032A09D17F
:1005600004E01AB1012A06D0022A03D1C96AC901DE
:1005700000D5012010BDC96AA142FAD010BD002AE1
:10058000F7D0012AF2D0022AF3D0032AF3D010BD0B
:100590007047012000F068BE082000F065BE102002
:1005A00000F062BE202000F05FBE704778B50024E6
:1005B000009490F83C20012A19D0012280F83C20B8
:1005C0000A6807230568092A13D9EE680A3A02EB7C
:1005D000420293409E43EE600B788A680A3B03EB2D
:1005E00043039A400368DD682A43DA6010E0022082
:1005F00078BD2E6902EB420293409E432E610B7838
:100600008A6803EB43039A4003681D692A431A6111
:100610004A681F23072A13D205686E6B521E02EB2D
:10062000820293409E436E630B790A885B1E92B2EE
:1006300003EB83039A4003685D6B2A435A6327E008
:1006400005680D2A12D22E6BD21F02EB8202934054
:100650009E432E630B790A88DB1F92B203EB830360
:100660009A4003681D6B2A431A6311E0EE6A0D3A43
:1006700002EB820293409E43EE620B790A880D3BA7
:1006800092B203EB83039A400368DD6A2A43DA627D
:10069000164B0568144A9D4206D10D68122D03D1F0
:1006A000556845F48005556005689D4218D10B6872
:1006B000102B01D0112B13D1536843F40003536066
:1006C000096810290CD10A490A4A0968B1FBF2F1FC
:1006D00001EB8101490000E0491E00910029FBD196
:1006E00080F83C40002078BD0023014000200140FC
:1006F0003400002040420F0070B504004FF00005A8
:1007000003D0206C002610B107E0012070BD204608
:1007100000F01CF8666484F83C60206CC00610D4BD
:10072000206C20F4885040F0020020642046FFF73F
:100730002DFE6664206C20F0020040F00100206471
:1007400000E0012584F83C60284670BD10B586B0F5
:10075000044614216846FFF7DDFD174B226800218F
:1007600016489A4209D1016841F48071016000681D
:1007700000F48070059006B010BD114B9A42FAD17A
:10078000026842F480620260006800F480600590B4
:100790000A481438026842F020020260006800F043
:1007A00020000590181500900320CDE9010169464D
:1007B000044800F065FDDEE70020014044380240B7
:1007C000002201400014024090F82020012A07D0A6
:1007D000022A05D0416A41F480214162012070471C
:1007E000006842690A43426100207047F0B590F802
:1007F00020500468A468012D05D0022D03D0416A61
:1008000041F4802153E014F0406F01D1E5004BD555
:10081000C4F30164022C03D9416A41F4000146E0AB
:100820000125A5401D608D684FF4C0739DB1CE6851
:1008300035434E6845EAC605066803EB0417F551D3
:100840004FF4C275076805EB04150E697E51097DEA
:10085000012905D009E00E88CD6845EA4655EBE749
:1008600001684E5946F480764E511179D2F8055000
:100870004FF4C67641EA0525016806EB04168D5152
:100880001178D2F801204FF4C47541EA02210268C0
:1008900005EB04155151006803EB0411425842F076
:1008A000010242500020F0BD416A41F40011416252
:1008B0000120F0BD10B590F82020012A07D0022AAF
:1008C00005D0416A41F480214162012010BD3B48BE
:1008D000D0F8002242F00102C0F80022D0F8002235
:1008E00022F47C52C0F80022D0F800224B6A42EA7F
:1008F0000322C0F800220A7D02F01F0301229A4061
:10090000D0F81C329343C0F81C32CB69B3B9D0F88D
:100910000C329343C0F80C328C894B6864F31F434C
:100920004C6900EBC404C4F840320C890B6864F3D2
:100930001F434C6900EBC404C4F84432CB69012B5B
:1009400016D1D0F80C321343C0F80C320C884B6827
:1009500064F31F434C6900EBC404C4F840320C89B3
:10096000CB6864F31F434C6900EBC404C4F8443201
:100970008B69002BD0F804320ED01343C0F8043238
:100980000B69002BD0F8143208D01343C0F814328E
:10099000096A012904D008E09343EFE79343F5E7A0
:1009A000D0F81C121143C0F81C12D0F8001221F02C
:1009B0000101C0F80012002010BD000000640040DA
:1009C000704730B590F82040012C05D0022C03D0A0
:1009D000416A41F480215DE00468002955D0246912
:1009E000A40754D04FF4D874056804EB01142D59B2
:1009F00015F00405956005682D594ED0ED08556039
:100A000005682C5904F00204D4604FF4DA740568C8
:100A100004EB01142D5905F00F05156105682D59DA
:100A2000C5F30725956105682C59240C54614FF4D2
:100A3000DC72046802EB0112A4581C700468A4580C
:100A4000240A5C700468A458240C9C700468A258A2
:100A5000120EDA704FF4DE72046802EB0112A45831
:100A60001C710468A458240A5C710468A458240CFE
:100A70009C710468A258120EDA71006881B1016994
:100A800041F020010161002030BDE468A8E7416A1F
:100A900041F400114162012030BD6D0D1560AFE7DA
:100AA000C16841F02001C160EDE72DE9F05F054626
:100AB000006800244669D0F804908768D0F80CB02C
:100AC000D0F810A0D0F81880F10748D0F90714D05A
:100AD00001218160B80703D5284600F04CFA0CE0EC
:100AE000780702D54FF4006407E0380702D54FF4C9
:100AF000805402E0284600F03DFAF80516D5296832
:100B00004FF480708860B80503D5284600F035FAA8
:100B10000CE0780502D544F4005407E0380502D50E
:100B200044F4804402E0284600F026FAF80316D583
:100B300029684FF480308860B80303D5284600F058
:100B40001EFA0CE0780302D544F4004407E03803B1
:100B500002D544F4803402E0284600F00FFA300752
:100B600007D55FEACB6004D52968102044F40074EF
:100B7000C86070074FF0080707D55FEA0B7004D50F
:100B80002868C760284600F099F9B00706D528689C
:100B9000C068800702D0284600F092F9700607D599
:100BA0005FEACA6004D52968102044F480640861B3
:100BB000B00607D55FEA0A7004D5286807612846A1
:100BC00000F0A8F9F00606D528680069800702D071
:100BD000284600F0A0F9B00308D55FEAC96005D542
:100BE000296810204860284600F096F9F00307D5E0
:100BF0005FEA097004D528684760284600F0C0F90C
:100C0000300446D55FEA497040D5F00504D55FEA67
:100C1000C87001D044F00104B00504D55FEA8870C3
:100C200001D544F00204700504D55FEA487001D58F
:100C300044F00404300529D518F0700F26D008F0D0
:100C40007000402815D006DC102809D020280AD0D2
:100C5000302816D10AE050280ED0602811D10EE0BD
:100C600044F008040DE044F010040AE044F02004CD
:100C700007E044F0400404E044F0800401E044F460
:100C800080742868816921F07001816129680420DD
:100C90004860002C05D0686A204368622846FFF748
:100CA0008FFEBDE8F09F70B5040003D094F82000DB
:100CB00010B104E0012070BD204600F081F82068EA
:100CC000016821F00201016000F0BCFB0546052629
:100CD00004E000F0B7FB401B0A2811D820684068E8
:100CE0008007F6D42068016841F00101016000F03E
:100CF000A9FB05460BE000F0A5FB401B0A2806D91E
:100D0000606A40F40030606284F82060D2E72068B6
:100D10004068C007EFD0207E0128206801683DD0E0
:100D200021F080010160607E01282068016838D0D0
:100D300021F040010160A07E01282068016833D0C5
:100D400021F020010160E07E0128206801682ED09A
:100D500041F010010160207F01282068016829D03E
:100D600021F008010160607F01282068016824D01B
:100D700021F004010160D4E902010843D4E904121E
:100D8000114308436168491E08432168C861002077
:100D90006062012084F82000002070BD41F08001D5
:100DA000C0E741F04001C5E741F02001CAE721F06A
:100DB0001001CFE741F00801D4E741F00401D9E781
:100DC000F0B587B0044614216846FFF7A3FA364B06
:100DD0003648DFF8D0E01968D4F800C0334A03255C
:100DE0000226092710300024491CF44522D119603D
:100DF000012907D1016841F000710160006800F02D
:100E000000700590106840F0080010601068CDE98F
:100E1000005600F00800CDE9047069462448CDE989
:100E2000024500F02DFA00220521142000F0ECFC10
:100E3000142032E0DFF87CE0F44530D1D0F800C077
:100E40004CF0806CC0F800C0D0F800C001290CF054
:100E5000806CCDF814C0196007D1016841F00071B1
:100E60000160006800F000700590106840F002001A
:100E70001060106802AB00F0020005906020CDE920
:100E8000000683E8B00069460B4800F0F9F900223B
:100E90000521402000F0B8FC402000F0A7FC07B07E
:100EA000F0BD00000064004018000020303802400F
:100EB000000C02400068004000040240704700003F
:100EC0001CB56B46114A00211148FFF77AFD0F4807
:100ED0000068A0F50071053905D0012903D0022969
:100EE00001D003290DD1401FC1B20848843000EB66
:100EF0004110C1694A1C3229C261694602DC02F014
:100F00008BFC1CBD02F08EFC1CBD0000A004002068
:100F100094060020704770477047000070B5044683
:100F200090F82000012804D0606A40F4002060623C
:100F300018E0022084F820002068016821F00101F7
:100F4000016000F07FFA05460EE000BF00F07AFA7B
:100F5000401B0A2808D9606A40F40030606205200E
:100F600084F82000012070BD20684068C007EDD1E2
:100F7000606270BD70477047704770477047704738
:100F8000704710B5040002D0607910B106E001206E
:100F900010BD00202071204600F004F8012060718F
:100FA000002010BD08B500680649884208D10648EF
:100FB000016841F480510160006800F480500090A5
:100FC00008BD000000300240303802402DE9F843EF
:100FD00004464FF00009CDF8009063484FF41651D5
:100FE000A56D0068B0FBF1F72E6894F85C1008203E
:100FF00000FA01F131420FD021680A6852070BD57F
:101000000A6822F004020A6094F85C108840A86024
:10101000606D40F00100606594F85C104FF00108CD
:1010200008FA01F0304208D021684969090604D560
:10103000A860606D40F00200606594F85C100420C8
:101040008840304208D021680968890704D5A86023
:10105000606D40F00400606594F85C1010208840DA
:10106000304218D021680968090714D5A8602068A3
:101070000168490304D50068000308D5A16C07E0A6
:101080000168C90503D4016821F008010160216CE1
:1010900009B12046884794F85C10202088403042EF
:1010A00031D021680968C9062DD5A86094F83500AB
:1010B00005282068016806D0490347D50068000369
:1010C0001DD4616C1CE021F01601016020684169AB
:1010D00021F080014161206C08B9A06C20B120682A
:1010E000016821F00801016094F85C103F208840FD
:1010F000A86084F8349084F83580216D1FE0E16B9E
:1011000009B120468847606D00282BD0606DC0076C
:1011100014D0052084F835002068016821F0010111
:1011200001600098401C0090B84203D82068006815
:10113000C007F6D184F8349084F83580E16C00293A
:1011400010D001B02046BDE8F04308470168C9054A
:10115000D5D4016821F01001016084F8349084F83E
:101160003580CCE7BDE8F883340000202DE9F0415C
:10117000044600F067F906465CB1002584F8345057
:10118000022084F835002068016821F00101016027
:101190000DE00120BDE8F08100F054F9801B052826
:1011A00005D920206065032084F83500F2E7206827
:1011B0000068C007F0D12268116820480140D4E9D6
:1011C00001031843D4E903363343184363691843D2
:1011D000A3691843E3691843236A18430843616A03
:1011E000042903D1D4E90B13194308431060206884
:1011F0004069666A20F0070130460E430127042843
:101200000CD1A06A0643E06A40B12046FFF796F988
:1012100020B14020606584F83570BAE720684661E7
:101220002046FFF777F994F85C203F2191408160D8
:10123000656584F835700020ACE700003F8010F051
:1012400070B5044600F0FEF80546601C02D0044864
:101250000078044400F0F6F8401BA042FAD370BDB9
:101260002800002070470000044910B50A680242B7
:1012700002D00860FFF7F6FF10BD0000143C0140EB
:101280002DE9F84F00224FF0010803254FF00F0E13
:101290000B6808FA02F42340A3426ED14E68012E77
:1012A00005D0022E03D0112E01D0122E12D1866845
:1012B0004FEA420C05FA0CF7BE43CF6807FA0CF769
:1012C000374387604668A6430C79C4F30014944002
:1012D00034434460C668570005FA07FC8C6826EA68
:1012E0000C06BC403443C4604C68022C01D0122C64
:1012F00013D1D40800EB8404A346D4F820905407FB
:101300004FEAD46A0EFA0AF629EA06090E6906FAC5
:101310000AF646EA0906CBF8206006680C7926EA48
:101320000C0604F00304BC40344304604C68E40041
:1013300065D5364C266846F480462660246822F03F
:10134000030604F480440094314C3444A446D4F899
:1013500008489607370F0EFA07F6B4432D4EB042F1
:1013600001D1002624E02C4EB04201D101261FE01D
:101370002A4EB04202D102261AE040E0284EB04286
:1013800001D1032614E0274EB04201D104260FE01C
:10139000254EB04201D105260AE0244EB04201D1CB
:1013A000062605E0224EB04201D1072600E00826BD
:1013B000BE402643CCF808681E4E34684F689C43F4
:1013C000FF0300D51C4334601A4C241D26684F6867
:1013D0009E43BF0300D51E432660164E0836346870
:1013E0004F689C43FF0200D51C433460114E0C36FD
:1013F00034684F689C43BF0200D51C433460521CC4
:10140000102AFFF445AFBDE8F88F000044380240D1
:101410000030014000000240000402400008024089
:10142000000C02400010024000140240001802406C
:10143000001C0240003C01400AB181617047090470
:10144000FBE700000148806870470000280000208A
:1014500070B5040025D094F83D00002520B984F82B
:101460003C50204600F0B8F8242084F83D00206865
:10147000016821F0010101602068016841F4004128
:1014800001602068016821F40041016000F088FAE1
:101490004D4A6168914201D84C4900E04C4988426C
:1014A00001D2012070BD4B492368B0FBF1F15E68A9
:1014B00026F03F060E435E606368934206D94FF400
:1014C000967359434FF47A73B1FBF3F12368491CC7
:1014D0001E6A26F03F06314319626168914210D8B6
:1014E0004900401EB0FBF1F2521CC2F30B02042A69
:1014F00001D2042022E0B0FBF1F0401CC0F30B004D
:101500001CE0A268F2B301EBC10303EB0116431E1A
:10151000B3FBF6F35B1C43F480431B0549D092B345
:1015200001EBC10202EB0111401EB0FBF1F0401CC7
:10153000C0F30B0040F4804040F400402168CA69C9
:101540004CF6FF739A431043C861D4E90710014376
:101550002068026822F0C00211430160D4E903014F
:1015600001432068826848F2FF339A431143816047
:10157000D4E9050108432168CA6822F0FF0210433C
:10158000C86001E00EE016E02068016841F001014A
:1015900001602564202084F83D00256384F83E50D6
:1015A000002070BD01EB4106431EB3FBF6F35B1C4C
:1015B000B3E70120C2E701EB4101401EB0FBF1F0AF
:1015C000401CC0F30B00B7E7A086010080841E001A
:1015D00000093D0040420F002DE9F04387B0074667
:1015E00014216846FEF796FE484C474B3A680026A1
:1015F00046481221032510344FF001084FF004092A
:101600009A4218D1026842F002020260006800F0BB
:101610000200059028028DE80301CDE903596946CF
:101620003B48FFF72DFE206840F400102060206842
:1016300000F4001065E0374B9A4234D1026842F062
:10164000200202600068CDE9005100F02000CDE9E1
:101650000490CDE9028569462F48FFF711FE206806
:1016600040F48000206020682D4C00F4800005903C
:101670002A4820604FF0606060604020C4E90206A4
:101680000001C4E90406C001A661C4E90760204660
:101690006662FFF76BFD08B1FEF787FF7C63A76307
:1016A00007B0BDE8F0831F4B9A42F9D1026842F0BF
:1016B00004020260026802F004020592026842F02D
:1016C0000102026000680E4600F001000590581506
:1016D0008DE84101CDE9035969461348FFF7D0FD74
:1016E0004FF480708DE84101CDE9035969460F48F8
:1016F000FFF7C6FD206840F400002060206800F479
:1017000000000590CCE70000005400403038024053
:10171000000402400058004000140240B86002403B
:10172000340A0020005C0040000802400000024033
:1017300002488168027811448160704728000020C7
:101740000B4810B5016841F400710160016841F473
:1017500080610160016841F480710160032000F044
:1017600073F80F2000F006F800F024F8002010BDF8
:10177000003C024070B50D4D04464FF47A71287854
:10178000B1FBF0F00A490968B1FBF0F000F0C6FBCC
:1017900048B9102C07D200222146501E00F034F820
:1017A00000206C6070BD012070BD0000280000208A
:1017B000340000200C4882B0016841F4804101608F
:1017C000006800F4804000900748001F016841F065
:1017D000805101600068002200F0805000900F21CD
:1017E000901E02B000F010B844380240002809DB17
:1017F00000F01F02012191404009800000F1E0202B
:10180000C0F8001170470000F0B40E4B1B680C4686
:10181000C3F30223C3F10705042D00D90425191DC4
:10182000072901D2002300E0DB1E012606FA05F19C
:10183000491E214099409E40761E16403143F0BC1F
:1018400001F0F3BE0CED00E0064900F00702086865
:101850004FF6FF03184040EA0220034A1043086095
:10186000704700000CED00E00000FA052DE9F0479C
:101870000E46050065D0DFF81481D8F80000F7B2F5
:1018800000F00F00B04207D288F80070D8F80000CE
:1018900000F00F00B04254D128683D4C810712D5AA
:1018A000400703D5206840F4E05020602878000706
:1018B00003D5206840F4604020602068A96820F0CB
:1018C000F000084320602878C0072DD030496868B0
:1018D0000839012812D0022813D0032811D0096832
:1018E000890700292DDA216821F0030101432160D5
:1018F000FFF7A8FD814641F2883A0EE009688903A6
:10190000EFE709688901ECE7FFF79CFDA0EB09010F
:10191000514502D90320BDE8F0872068696800F0CE
:101920000C00B0EB810FEFD1D8F80010404601F069
:101930000F01B14207D90770006800F00F00B042F4
:1019400001D00120E7E72878400705D52068E9683D
:1019500020F4E050084320602878000706D520686E
:10196000296920F4604040EAC100206000F038F8A6
:101970002168084AC1F30311515CC8400649086058
:1019800006480068FFF7F6FE0020C4E7003C02406E
:1019900008380240DC450008340000202C000020FC
:1019A0000448054900680968044AC1F38221515C72
:1019B000C84070473400002008380240EC45000859
:1019C0000448054900680968044AC1F34231515C82
:1019D000C84070473400002008380240EC45000839
:1019E000154810B5006810F00C02144813D01449C3
:1019F000042A0FD0082A0ED10F4C241F2268236816
:101A000002F03F025B0207D52068C0F38810A0FBFC
:101A1000010106E0084610BD2168C1F38811A1FB51
:101A200000010023FEF72CFC2168C1F30141491C91
:101A30004900B0FBF1F010BD083802400024F4006A
:101A4000001BB7002DE9F84F040076D02078DFF8AE
:101A500038A3CE4DC00749D0DAF800105046C1F384
:101A60008101012908D00068C0F3810002280AD151
:101A7000281D0068400206D52868800336D56068B6
:101A80000028E2D032E06068B0F5803F10D0B0F5B9
:101A9000A02F286810D020F480302860286820F417
:101AA000802028606068A0B1FFF7CCFC06460CE0FF
:101AB000286840F48030F4E740F480202860F7E79D
:101AC000FFF7C0FC801B642873D828688003F7D513
:101AD0000CE0FFF7B7FC064605E000BFFFF7B2FCDD
:101AE000801B6428F0D828688003F7D42078DFF8BA
:101AF000A08280074FF000093ED5DAF8001050466A
:101B000011F00C0F09D00068C0F3810002280BD13E
:101B10009D48001F0068400206D42868800715D53C
:101B2000E068012809D111E0E068B8B10120C8F8E7
:101B30000000FFF787FC064605E020E1FFF782FC86
:101B4000801B0228C0D828688007F7D5286821693B
:101B500020F0F80040EAC10028600DE0C8F80090CD
:101B6000FFF770FC064604E0FFF76CFC801B0228C0
:101B70001FD828688007F7D42078000722D5824E26
:101B8000844861696C3671B101210160FFF75AFC2C
:101B9000074604E0FFF756FCC01B022809D830684E
:101BA0008007F7D50EE0C0F80090FFF74BFC074622
:101BB00005E082E0FFF746FCC01B02287DD83068B4
:101BC0008007F7D42078400768D5DFF8BCB100273C
:101BD0000BF1380BDBF80000C0000BD4DBF8001071
:101BE00041F08051CBF80010DBF80000012700F035
:101BF00080500090684E3068C00510D4306840F4C2
:101C000080703060FFF71EFC009005E0FFF71AFCC3
:101C10000099401A022850D83068C005F6D55A4EAF
:101C2000A068683601280FD00528306810D020F051
:101C300001003060306820F004003060A068B8B166
:101C4000FFF700FC00900FE0306840F00100F4E77F
:101C500040F004003060F7E7FFF7F4FB0099411A09
:101C600041F28830814266D830688007F4D50EE0B2
:101C7000FFF7E8FB009007E0FFF7E4FB0099411A4B
:101C800041F28830814256D830688007F4D42FB1B1
:101C9000DBF8001021F08051CBF80010A069D0B320
:101CA000DAF800205146C2F38102022A4AD0022803
:101CB000484607D0C8F8600000E03CE0FFF7C2FBF0
:101CC00004463BE04746C8F86000FFF7BBFB06460A
:101CD00005E000BFFFF7B6FB801B02282BD8286861
:101CE0008001F7D4D4E907010843A16A2B4A4908C7
:101CF00002EB0141626A41EA8211084394F82C1018
:101D000040EA01612048001F016001203866FFF7AA
:101D100099FB044605E034E0FFF794FB001B022822
:101D200009D828688001F7D52BE000BFFFF78AFBB0
:101D3000001B022802D90320BDE8F88F2868800123
:101D4000F4D41EE00128F7D00868E26900F48001AD
:101D5000914214D1226A00F03F0191420FD147F61F
:101D6000C071626A0140914209D1A26A00F4403117
:101D7000914204D1E16A00F07060884201D00120F4
:101D8000DAE70020D8E700000838024000380240B7
:101D900000004742800E4742007000400000FFFFF5
:101DA00070B5040005D00025A56294F8510010B16B
:101DB00006E0012070BD84F85050204600F030F855
:101DC000022084F851002068016821F04001016080
:101DD000D4E901010843D4E90312114308436169BE
:101DE0000843218B01F400710843E1690843216A2B
:101DF0000843A16A084321680860A069042101EA38
:101E00001040616A0843216848602068C16921F474
:101E10000061C1616565012084F85100002070BD3A
:101E20002DE9F04387B0064614216846FEF772FAA2
:101E300034493068884261D133480025016841F453
:101E400080510160006800F4805005902E481438DD
:101E5000016841F002010160016801F00201059191
:101E6000016841F0010101600068022400F00100F6
:101E70000590182001274FF003084FF005098DE861
:101E8000910369462148FFF7FBF980208DE8910313
:101E900069461F48FFF7F4F91F4C1E484FF0C06712
:101EA000E4E8020740204FF48068A4E82101C00262
:101EB00044F81459A561C4E9075017486562FFF753
:101EC00055F908B1FEF771FBB464A663124C1148D2
:101ED000603418382060C4E90175C4E903586561AD
:101EE0004FF44030A561C4E9075020466562FFF712
:101EF0003DF908B1FEF759FBF464A66307B0BDE8ED
:101F0000F0830000003001404438024000040240E9
:101F10000000024058640240EC0A002010B5401E48
:101F2000B0F1807F01D3012010BD4FF0E02460614B
:101F30000F21601701F079FB0020A06107202061CC
:101F4000002010BD10B590F83C20012A22D00122BB
:101F500080F83C20CA688C6822F4407222434C68A6
:101F600022F4806222430C6822F4006222430C694E
:101F700022F4805222434C6922F400522243C96960
:101F8000002322F480420A4301684A6480F83C300E
:101F9000002010BD022010BD70B590F83C20012A31
:101FA00032D0012480F83C40022280F83D200368B2
:101FB0005A689D6822F070060A6832435A60134BD3
:101FC00002689A4214D0B2F1804F11D0104B9A425D
:101FD0000ED0104B9A420BD00F4B9A4208D00F4BA9
:101FE0009A4205D00E4B9A4202D00E4B9A4204D12F
:101FF000496825F080031943916080F83D40002135
:1020000080F83C10084670BD022070BD0000014001
:102010000004004000080040000C004000040140A3
:10202000004001400018004010B5040003D094F8AF
:102030003D0010B107E0012010BD002084F83C00F5
:10204000204600F00DF8022084F83D00211D206894
:1020500001F0FAF8012084F83D00002010BD0000D6
:1020600008B51E4902681E488A4207D1016841F03E
:1020700001010160006800F001000BE01849194BF4
:10208000091F9A4208D1086840F0040008600868F7
:1020900000F00400009008BD134B9A4207D1086875
:1020A00040F008000860086800F00800F2E70F49F7
:1020B0008A4207D1016841F002010160006800F026
:1020C0000200E7E70A498A42E5D1016841F400319C
:1020D0000160006800F40030DCE70000000001400F
:1020E0004438024000080040000C00400004014059
:1020F0000044014070B5044690F83C00012817D018
:10210000012584F83C50022084F83D002068826854
:1021100022F0770222F47F4282600868502830D093
:102120000DDC20284DD005DC98B310283BD148E0C9
:10213000022070BD302844D0402834D139E06028D6
:1021400028D0702806D0B0F5805F2CD0B0F5005FA5
:1021500029D10AE0CB68D1E90121206801F0D8F843
:102160002068816841F0770109E0CB68D1E901215D
:10217000206801F0CDF82068816841F480418160D9
:1021800011E0CA684968206801F096F9502120687A
:1021900007E016E0CA684968206801F09EF96021EE
:1021A000206801F0BFF884F83D50002084F83C001E
:1021B00070BDCA684968206801F07EF94021206836
:1021C000EFE7226801461046EBE70000F0B587B064
:1021D000044614216846FEF79DF83F4B2168002510
:1021E0003E4802240122994210D1016841F01001B9
:1021F00001600068694600F0100005904FF4D4407B
:102200008DE83100CDE90352354813E0354B032604
:10221000994213D1016841F0080101600068CDE9DD
:10222000022600F0080005901814CDE90004694664
:102230002D480494FFF724F807B0F0BD2B4B9942CA
:1022400011D1016841F0800101600068CDE90224EC
:1022500000F0800005904FF4E050CDE9000469469D
:1022600023480494E6E7234B4027994220D1016894
:1022700041F480710160016801F480710591016889
:1022800041F0040101600068694600F00400059017
:10229000C0208DE83100CDE903561748FEF7F0FF66
:1022A0000097CDE90145CDE9035669461348C1E7DA
:1022B000134B9942C0D1016841F0200101600068D0
:1022C0000097CDE9014200F02000CDE904606946A5
:1022D00003940C48AEE70000000001403038024093
:1022E0000010024000080040000C0240000C0040BA
:1022F000001C02400004014000200240000802408F
:10230000004401400014024070B5044690F83C00BF
:102310000D4601280DD0012684F83C60022084F887
:102320003D0042B1042A18D0082A2AD00C2A4DD1E7
:1023300039E0022070BD206800F0FCFF2068816950
:1023400041F0080181612068816921F00401816107
:10235000206881692A69114311E0206801F01AF8A8
:102360002068816941F4006181612068816921F4FC
:1023700080618161206881692A6941EA0221816165
:1023800024E0206801F03CF82068C16941F00801B0
:10239000C1612068C16921F00401C1612068C1697F
:1023A0002A69114311E0206801F05EF82068C169D4
:1023B00041F40061C1612068C16921F48061C1619B
:1023C0002068C1692A6941EA0221C16184F83D603F
:1023D000002084F83C0070BD10B5040003D094F8D0
:1023E0003D0010B107E0012010BD002084F83C0042
:1023F000204600F00CF8022084F83D00211D2068E2
:1024000000F022FF012084F83D00002010BD70473D
:1024100070B5040004D094F83900002510B106E02E
:10242000012070BD84F83850204600F023F82420A5
:1024300084F839002068C16821F40051C160204649
:1024400001F05EF82068016921F490410161206883
:10245000416921F02A0141612068C16841F40051BD
:10246000C160E563202084F8390084F83A00002038
:1024700070BD00002DE9F04F87B004461421684676
:10248000FDF748FF7B48DFF8E8811438D4F800C036
:10249000784B022701210322002506154FF0070B78
:1024A000C44549D1D3F800C04CF0100CC3F800C0AB
:1024B0001B6803F010030593036843F002030360F5
:1024C000036803F002030593036843F0010303600C
:1024D00000688A4600F00100059080208DE88104A4
:1024E000CDE9032B9146D84669466348FEF7C8FEFE
:1024F00070108DE88104CDE9039869465F48FEF7C6
:10250000BFFE604F5E4807F10808386070047860CD
:10251000402088E861007D618002BD61C7E9075005
:1025200038467D62FEF722FE08B1FEF73EF82763CB
:10253000BC6307B0BDE8F08FDFF84C814FF4003981
:10254000C4453CD14B4B1B1FD3F800C04CF4802C2E
:10255000C3F800C01B6803F480230593036843F0AD
:1025600004030360006802AB00F00400059083E8F8
:1025700006084FF44060CDE9000769464348FEF77E
:102580007FFE404F4248603738604FF00060C7E937
:102590000105C7E903567D61BD61C7E907593846A2
:1025A0007D62FEF7E3FD08B1FDF7FFFF67630022E0
:1025B00005212720BC63FFF727F9272055E0DFF826
:1025C000D480C445B5D1D3F800C04CF0200CC3F87A
:1025D00000C01B6803F020030593036843F0400329
:1025E00003600068CDE9021200F0400005904FF44E
:1025F0008440CDE900070820049069462648FEF78C
:102600003FFE204F1E48C037903838604FF020689A
:10261000C7E90185C7E903567D61BD61C7E907596F
:1026200038467D62FEF7A2FD08B1FDF7BEFF676385
:10263000BC631348194F1838E7E80208402061C707
:10264000800247F81459BD61C7E9075013487D62FD
:10265000FEF78CFD08B1FDF7A8FF276300220521D6
:102660004720BC63FFF7D0F84720FFF7BFF860E7CB
:1026700000100140443802400004024000000240C3
:10268000B8640240AC0D0020004800400008024041
:10269000286002400014014000180240CC0E0020C7
:1026A000FEE700007FB500241548009401940294D1
:1026B0001249039401604FF40031C0E90114046130
:1026C000047680F820400F49C0E90A140125C5614D
:1026D000C46080F830404561FEF70EF808B1FDF7A0
:1026E00064FF1020CDE90005694602940448FDF717
:1026F0005DFF002801D0FDF758FF7FBD002001409D
:10270000040600200100000F7FB500241548009446
:10271000019402941249039401604FF40031C0E91E
:1027200001140461047680F820400F49C0E90A14BE
:102730000125C561C46080F830404561FDF7DCFFCC
:1027400008B1FDF732FF0820CDE900056946029483
:102750000448FDF72BFF002801D0FDF726FF7FBDC1
:10276000002201404C0600200100000F0F4810B568
:102770000D4901600321416000214FF41022816066
:10278000C0E903124FF4001242610176417681766E
:10279000C17601774177FEF786FA002803D0BDE8BD
:1027A0001040FDF702BF10BD0064004094060020F9
:1027B0000F4810B50D4901600321416000214FF41D
:1027C00010228160C0E903124FF4001242610176C9
:1027D00041768176C17601774177FEF764FA002869
:1027E00003D0BDE81040FDF7E0BE10BD006800401A
:1027F000BC060020074910B5054808600846FEF7EA
:10280000C0FB002803D0BDE81040FDF7CEBE10BDD0
:10281000003002401C000020254808B5016841F442
:1028200000110160016801F400110091016841F498
:10283000800101600068002200F480000090052102
:102840000C20FEF7E1FF0C20FEF7D0FF002205214F
:102850002F20FEF7D9FF2F20FEF7C8FF0022052109
:102860003920FEF7D1FF3920FEF7C0FF00220521F5
:102870003A20FEF7C9FF3A20FEF7B8FF00220521F3
:102880003B20FEF7C1FF3B20FEF7B0FF00220521F1
:102890004520FEF7B9FF4520FEF7A8FF00220521DD
:1028A0004620FEF7B1FFBDE808404620FEF79EBF78
:1028B0003038024010B58EB01C220B496846FDF737
:1028C00010FD0021684601F02EF8084C06491C2234
:1028D00020601C3107A8FDF704FD002107A801F0C6
:1028E00022F820600EB010BD9C4500082400002096
:1028F0002DE9F04186B014216846FDF70BFD5A48DA
:10290000016841F002010160016801F002010591D6
:10291000016841F040010160016801F0400105914A
:10292000016841F001010160016801F001010591B8
:10293000016841F008010160016801F0080105919A
:10294000016841F004010160016801F00401059192
:10295000016841F480710160016801F480710591A2
:10296000016841F020010160016801F0200105913A
:10297000016841F080010160016801F0800105916A
:10298000016841F0100101600068384F00F010004C
:102990000590012240213846FEF74EFD344E0122BB
:1029A00010213046FEF748FDDFF8C88001221146AD
:1029B0004046FEF741FD01244020CDE90004029489
:1029C000694638460394FEF75BFC082000902A48CD
:1029D000CDE9010469463846FEF752FC1020CDE9E6
:1029E0000004022569463046CDE90245FEF748FC61
:1029F000224E3020CDE90006694602942048FEF7B9
:102A00003FFCCDE90046694638460294FEF738FCA3
:102A10000094694640460194CDE90245FEF730FC3A
:102A2000062100220846FEF7EFFE0620FEF7DEFE36
:102A3000002205210920FEF7E7FE0920FEF7D6FE59
:102A4000002205210A20FEF7DFFE0A20FEF7CEFE57
:102A5000002205211720FEF7D7FE1720FEF7C6FE3D
:102A600006B0BDE8F0810000303802400018024096
:102A7000000002400004024000002110000011107C
:102A8000000802400D4810B50B4901600C49416037
:102A900000214FF480428160C0E9031241618161ED
:102AA000C1610162FEF7D4FC002803D0BDE81040EC
:102AB000FDF77BBD10BD0000005400403809002028
:102AC000801A06000D4810B50B4901600C494160A1
:102AD00000214FF480428160C0E9031241618161AD
:102AE000C1610162FEF7B4FC002803D0BDE81040CC
:102AF000FDF75BBD10BD0000005800408C090020B0
:102B0000801A06000D4810B50B4901600C49416060
:102B100000214FF480428160C0E90312416181616C
:102B2000C1610162FEF794FC002803D0BDE81040AB
:102B3000FDF73BBD10BD0000005C0040E009002037
:102B4000801A0600104810B50E4901604FF48271DA
:102B50004160002102228160C0E90312012242612A
:102B6000520282613822C0E90721416281620A2152
:102B7000C162FFF715F9002803D0BDE81040FDF74A
:102B800014BD10BD00300140940A002010B588B07B
:102B90001C216846FDF7BEFB16481549002401605C
:102BA000A721C0E9011440F2E731C0E903148461B0
:102BB000FFF73AFA08B1FDF7F8FC0E48FFF70CFCF6
:102BC00008B1FDF7F2FC602000904FF4FA70CDE9F7
:102BD00001040022694607480494FFF795FB08B1F9
:102BE000FDF7E3FC0348FFF7F1FA08B010BD000061
:102BF00000440140AC0C002010B596B000240F94A6
:102C000010941194129413941C2168461494FDF7A7
:102C100081FB202107A8FDF77DFB35483349016082
:102C2000A721C0E9011444F61F61C0E903144461FF
:102C30008461FFF7F9F908B1FDF7B7FC4FF4805054
:102C40000F900FA92A48FFF755FA08B1FDF7ADFC20
:102C50002748FFF7C1FB08B1FDF7A7FC139413A9A0
:102C600023481494FFF798F908B1FDF79EFC602003
:102C700000904FF4FA60CDE90104039404940594A4
:102C8000002269461A480694FFF73EFB08B1FDF79B
:102C90008CFC042269461648FFF736FB08B1FDF7A5
:102CA00084FC082269461248FFF72EFB08B1FDF7A5
:102CB0007CFC0C2269460E48FFF726FB08B1FDF7A5
:102CC00074FC0794089409944FF400500A94CDE9D9
:102CD0000B4007A906480E94FFF734F908B1FDF739
:102CE00064FC0348FFF772FA16B010BD0000014003
:102CF000AC0B002010B58EB0002407940894099402
:102D00000A940B941C2168460C94FDF703FB1E48A3
:102D10001C490160A721C0E901144FF6FF71C0E909
:102D200003148461FFF780F908B1FDF73EFC4FF40E
:102D30008050079007A91448FFF7DCF908B1FDF7A8
:102D400034FC1148FFF748FB08B1FDF72EFC0B944B
:102D50000BA90D480C94FFF71FF908B1FDF725FCEE
:102D60006020CDE9000402940822694606480494D4
:102D7000FFF7CAFA08B1FDF718FC0348FFF726FA77
:102D80000EB010BD00080040EC0B002010B58EB056
:102D900000240794089409940A940B941C21684613
:102DA0000C94FDF7B7FA284826490160A721C0E92D
:102DB000011440F2E731C0E903148461FFF734F9EC
:102DC00008B1FDF7F2FB4FF48050079007A91E48A9
:102DD000FFF790F908B1FDF7E8FB1B48FFF7FCFA95
:102DE00008B1FDF7E2FB0B940BA917480C94FFF711
:102DF000D3F808B1FDF7D9FB6020CDE900040294B7
:102E00000022694610480494FFF77EFA08B1FDF7E6
:102E1000CCFB4FF4FA700190042269460A48FFF790
:102E200073FA08B1FDF7C1FB082269460648FFF7AF
:102E30006BFA08B1FDF7B9FB0348FFF7C7F90EB00D
:102E400010BD0000000C00402C0C002010B596B006
:102E500000240F9410941194129413941C2168462A
:102E60001494FDF757FA202107A8FDF753FA3148CB
:102E70002F490160A721C0E9011444F61F61C0E990
:102E8000031444618461FFF7CFF808B1FDF78DFBAF
:102E90004FF480500F900FA92648FFF72BF908B187
:102EA000FDF783FB2348FFF797FA08B1FDF77DFB99
:102EB000139413A91F481494FFF76EF808B1FDF797
:102EC00074FB602000904FF4FA60CDE90104039494
:102ED000049405940022694616480694FFF714FAF4
:102EE00008B1FDF762FB042269461248FFF70CFAAD
:102EF00008B1FDF75AFB082269460E48FFF704FAAD
:102F000008B1FDF752FB0794089409944FF4005060
:102F10000A94CDE90B4007A906480E94FFF712F872
:102F200008B1FDF742FB0348FFF750F916B010BD9A
:102F3000000401406C0C00200C4810B50A490160E7
:102F40004FF4E1314160002181600C22C160C0E991
:102F500004128161C161FFF75BFA002803D0BDE86C
:102F60001040FDF722BB10BD00100140EC0C00200A
:102F70000C4810B50A4901600B494160002181608D
:102F80000C22C160C0E904128161C161FFF740FAFF
:102F9000002803D0BDE81040FDF707BB10BD0000BE
:102FA000004800402C0D0020A08601000C4810B500
:102FB0000A4901604FF4E1314160002181600C2237
:102FC000C160C0E904128161C161FFF721FA0028E4
:102FD00003D0BDE81040FDF7E8BA10BD0014014071
:102FE0006C0D0020FEE770479FED502AA0B1D0ED98
:102FF000101AC0ED111A90ED0F1A80ED101AC0EDE5
:10300000060A80ED070A30EEC00A80ED0F0A01784B
:1030100029B101293BD086E0B0EE420A7047D0EDDD
:10302000010A60EE801AC0ED091AD0ED0A0A90ED8F
:10303000022A42EE000A30EE410AC0ED0A0A90ED83
:103040000D2A80ED0E2A90ED0C2A80ED0D2A80EDE0
:103050000C0A90ED031A21EE001A80ED0B1A90ED88
:10306000050AF4EEC00AF1EE10FA09DCB1EE400AEE
:10307000F4EEC00AF1EE10FA02D390ED0A0A01E074
:1030800080ED0A0A31EE800A30EE010A39E010EED6
:10309000101AB1F1804F06DC10EE101AB1F1404F5A
:1030A00001D880ED0F2A90ED0F0A90ED012A70EE05
:1030B000410A60EE820AC0ED090A90ED022A22EE72
:1030C000002A80ED0A2AD0ED0D2A70EE820AC0EDAA
:1030D0000E2AD0ED0C2AC0ED0D2AF0EE002A01EEEA
:1030E000620A30EE210A80ED0C0A90ED031A21EEFF
:1030F000000A80ED0B0A30EE800AD0ED080A30EEAF
:10310000200A80ED080AD0ED040AB4EEE00AF1EEE0
:1031100010FA06DCF1EE600AB4EEE00AF1EE10FA05
:1031200001D2C0ED080A90ED080A704700000000C7
:10313000002826D0002A24D0017092ED001A80EDDC
:10314000011A92ED011A80ED021A92ED021A80ED39
:10315000031A80ED040A9FED0B0AC0ED050A80ED0D
:103160000E0A80ED0D0A80ED0C0A80ED0B0A80ED51
:103170000A0A80ED090A80ED110A80ED100A80ED3F
:103180000F0A704700000000012000F0C0FBFBE7C1
:1031900010B5FEF7CDFA01F021F9012803D0BDE802
:1031A000104001F0ADB810BD30B593B03021684685
:1031B000FDF7B0F814210CA8FDF7ACF8194800256C
:1031C000016841F080510160006800F0805011906A
:1031D0001548016841F4804101600068022400F450
:1031E0008040119001200090000401908001CDE901
:1031F000064006200890A820CDE9090404200B9081
:103200006846FEF71FFC0CA90F2081E831004FF43F
:10321000A0500F90E002109005210CA8FEF726FBAD
:1032200013B030BD403802400070004005480168CE
:1032300041F47001016003494FF00060803908607B
:103240007047000088ED00E0F0B50268254C264D7F
:10325000264E274F274B4FF0804CA04209D06045A7
:1032600007D0A84205D0B04203D0B84201D098425E
:1032700004D122F0700E4A6842EA0E02A0421BD02E
:10328000604519D0A84217D0B04215D0B84213D02B
:10329000984211D0184DA8420ED0184DA8420BD01C
:1032A000174DA84208D0174DA84205D0164DA84288
:1032B00002D0164DA84203D122F44075CA682A43B1
:1032C0004D6922F080022A4302608A68C2620A685D
:1032D0008262A04201D0984201D1096901630121B3
:1032E0004161F0BD000001400004004000080040C2
:1032F000000C004000040140004001400044014037
:103300000048014000180040001C00400020004020
:1033100010B5846842EA032224F47F440A4322431E
:10332000826010BD826822F070020A4342F00701F9
:1033300081607047F0B5026A22F001020262036AFE
:1033400042688469124E24F073050C682C4323F004
:1033500002058B682B430D4DA84201D0B04205D128
:1033600023F00807CB683B4323F00403A84201D0B5
:10337000B04205D14D6922F4407215438A692A434F
:1033800042608461496841630362F0BD000001400E
:1033900000040140F0B5026A22F010020262026AE3
:1033A000436884690D6824F4E64444EA05248D6882
:1033B00022F0200242EA05120F4D104EA84201D021
:1033C000B04206D1CF6822F0800242EA071222F012
:1033D0004002A84201D0B04207D14D6923F44063B6
:1033E00043EA85038D6943EA850343608461496844
:1033F00081630262F0BD0000000001400004014052
:10340000F0B5026A22F480720262026A4368C469FB
:1034100022F4007224F073050C68124E2C438D6860
:1034200042EA05220E4DA84201D0B04206D1CF6833
:1034300022F4006242EA072222F48062A84201D00C
:10344000B04207D14D6923F4405343EA05138D6917
:1034500043EA05134360C4614968C1630262F0BD79
:10346000000001400004014030B5026A22F480529D
:103470000262046A4268C3690D6823F4E64343EAC2
:1034800005238D6824F4005444EA0534084DA8420D
:1034900002D0084DA84204D14D6922F4804242EA8C
:1034A00085124260C36149680164046230BD000056
:1034B000000001400004014010B5036A046A24F0D2
:1034C00001040462846924F0F00444EA021423F045
:1034D0000A020A438461026210BD10B5036A23F038
:1034E000100303628369046A23F4704343EA0232DF
:1034F00024F0A00343EA01118261016210BD0000C3
:103500002DE9F041044600680169E26821F4405168
:10351000114301612169A068E269084361691143AF
:1035200008432168CA6849F20C639A430243CA609F
:1035300020684169A26921F4407111434161E06949
:10354000192764253226B0F5004F354A35492068E1
:103550004FF0000806D0884201D0904236D1FEF7E5
:103560002FFA35E0884201D0904202D1FEF728FAC6
:1035700001E0FEF715FA61684A18A0FB070148EB65
:103580000803FCF77DFE0146B0FBF5F00201B1FB3C
:10359000F5F06FF01803584301EB800006EBC00014
:1035A000B0FBF5F000F0F80002EB4002B1FBF5F0E3
:1035B000584301EB800006EBC000B0FBF5F000F0D3
:1035C0000700216810448860BDE8F081FEF7E8F943
:1035D00061688B0F8A00A0FB0701FCF751FE0146D2
:1035E000B0FBF5F06FF01802504301EB800006EBE2
:1035F0000010B0FBF5F000F0F002B1FBF5F002EBCB
:103600000012B1FBF5F06FF01803584301EB800096
:1036100006EB0010B0FBF5F000F00F00D1E7000062
:103620000014014000100140FEE70907090E0028C0
:1036300004DB00F1E02080F80014704700F00F0078
:1036400000F1E02080F8141D704702E008C8121F46
:1036500008C1002AFAD170477047002001E001C17B
:10366000121F002AFBD170472DE9F04106462DEDCF
:10367000028B00259FED138A05EBC50006EB800445
:10368000F0EE480AC4ED050A06EBC00794ED030A04
:1036900007F53470FFF7A8FC84ED060AF0EE400A47
:1036A00094ED020A07F5D870FFF79EFCBDEEC00A44
:1036B0006D1C042D10EE100A2084DDDBBDEC028BA6
:1036C000BDE8F0810080BB4530B400283ED0002129
:1036D0009FED1F0A01EBC103491C50F82340042948
:1036E000B4F9062000EE902A00EB830200EBC3033E
:1036F000F8EEE00AC2ED040AB4F9025000EE905A66
:10370000F8EEE00AC2ED020AD3ED780A60EE800A14
:10371000C2ED010AD4ED040AF8EEE00AC2ED030A94
:10372000D8DB0C4990ED020A81ED020A90ED060A01
:1037300081ED030A90ED030A81ED000A90ED050A80
:10374000054881ED010A30BCFFF78EBF30BC7047E1
:103750006F12033B00000020980000202DED048B29
:1037600040F2651000F0C0FC204E9FED218ADFED95
:10377000218A9FED219ADFED219A0024E0B200F02A
:1037800043F8014604EBC40006EBC00546F82010E0
:1037900005F5D870F0EE480AB0EE680A184A002124
:1037A000FFF7C6FC164A05F53470F0EE490AB0EE94
:1037B000690A0C320021FFF7BBFC641C042CDDDB22
:1037C0003046FFF781FF0F4C0848FFF77DFF0023CD
:1037D0001A461946C820FCF77BFE022000F084FC44
:1037E000002000F02BFB2061EEE700009800002095
:1037F0000080BB450060EA46000000000000C343B3
:103800008445000800000020024900F0030001EB9D
:103810004010704724050020098849BA418101837E
:103820007047000070B5B0F90A408481C288828078
:10383000B0F902300380026942610A8852BA4281BB
:103840004D886DBA2DB245808E8876BAC68089794A
:10385000017212490E78012E09D001230B70131B3F
:10386000B0F90E10B3F5805F09DD491E0BE00026AC
:103870000E70E91801EBD17149104180EFE713F5A3
:10388000805F01DA491CC181B0F90E1002EB4131B1
:10389000B0F91820891A016170BD000014000020E1
:1038A000FDF74EFFFFF780FCFFF722F8FEF7B4FFAD
:1038B000FEF75CFFFEF77CFFFFF75AFBFEF7F2FE18
:1038C000FEF722FFFEF796FFFFF71CF9FFF73AF924
:1038D000FFF792F9FFF70EFAFFF758FAFFF7B6FA7B
:1038E000FFF754F9FFF728FBFFF760FBFFF7EAF853
:1038F000FFF7C8F800F00CFBFEF7DCFF00F00EF855
:10390000FEE701460020842900D0C81C704710B58E
:1039100000B9012000F0E8FB002010BD10B500F058
:1039200009FC002010BD7FB50D4604464169B0F981
:10393000080081B1A16971B1FFF7E3FFD4E9051275
:103940008DE80700D4E900102B46226900F01BFD2A
:10395000039004B070BDFFF7D4FF03A9CDE90001C7
:10396000208A2B4682B2D4E9001000F0DFFC012847
:1039700001D00020EDE70398EBE700002DE9F041CE
:103980001A4C0F46054666692168002081F85200EE
:103990002068001D00F03EFA38B9206890F82C101D
:1039A00001208840A1698143A161681C07D137B11A
:1039B0002168BDE8F0410E48091D00F015BB2068E4
:1039C0003544B5424560216805D2A068BDE8F041A4
:1039D000091D00F0F1BA6068091D00F0EDFA206BD6
:1039E000854200D22563BDE8F08100003800002048
:1039F000081000202DE9F041054600F001FB2E4C97
:103A00002069401C206120682C4F10B1E06940B350
:103A10002DE025602069012829D1002606EB8600CB
:103A200007EB800000F0BAFA761C072EF6D3234885
:103A30008C3000F0B3FA2148A03000F0AFFA1F48F4
:103A4000B43000F0ABFA1D48C83000F0A7FA1B48AC
:103A5000DC3000F0A3FA19488C3060601430A060AC
:103A600005E02068E96AC06A884200D82560E06AFB
:103A7000401CE062E96A0120A26988401043A0610D
:103A800001EB810007EB8000291D00F0ADFA00F08A
:103A9000D7FAE06900280CD02068E96AC06A884239
:103AA00007D207494FF080500860BFF34F8FBFF334
:103AB0006F8FBDE8F0810000380000202C0F00203F
:103AC00004ED00E010B5044690F8510058B101280B
:103AD0000CD002280FD0502080F31188BFF34F8FF5
:103AE000BFF36F8FFEE7206B00F0BEFA2046BDE803
:103AF000104000F0B9BA10BD10484FF4C041420761
:103B000006D0C01D0D4920F00700411AC1F5C04183
:103B10000B4A00230144C2E900030839103A21F09E
:103B2000070111604B600B600B1AC0E90013936032
:103B30004FF000405360D060704700001C10002020
:103B400084000020144E154CA6F1C8074FF0805891
:103B5000DFF84C9012E000BF00F052FAF068C56840
:103B6000281D00F057F92069401E2061E068401EC2
:103B7000E06000F065FA2846FFF7A4FFE06800283F
:103B8000EAD138680128F9D9C9F80080BFF34F8F0E
:103B9000BFF36F8FF2E70000F40F00203800002021
:103BA00004ED00E02DE9F0470E46DDE909841746F3
:103BB000824691009946089DA522206BFCF7A3FB45
:103BC0006FF00301206B01EB8701084420F0070729
:103BD000780707D0502080F31188BFF34F8FBFF3D1
:103BE0006F8FFEE72218315C82F83410315C11B11E
:103BF000401C1028F6D3002684F84360072D00D31C
:103C00000625E562C4E91156201D00F0D2F904F141
:103C1000180000F0CEF92461C5F107006462A061CC
:103C2000E66484F8506084F852604A46514638464B
:103C300000F0BEF82060B8F1000F01D0C8F80040D5
:103C4000BDE8F08730B5114900E011460A688242AC
:103C5000FBD34B685C18844203D140681844486029
:103C6000084643681C18944209D1084C103C24684B
:103C7000A24209D052681A4442600A68126802607F
:103C8000814200D0086030BD0460F9E78400002064
:103C900006484168096829B14168C968C968496826
:103CA000016370474FF0FF31FAE700003800002051
:103CB00008484068401C4FF0500080F3118804D041
:103CC000BFF34F8FBFF36F8FFEE7BFF34F8FBFF38D
:103CD0006F8FFEE78C0000202DE9F041054600279C
:103CE00000F05EFA314E306808B9FFF705FFF06862
:103CF00005424BD1C5B3083568070ED005F0070063
:103D0000C0F108000544680707D0502080F31188EF
:103D1000BFF34F8FBFF36F8FFEE72DB370688542FF
:103D200034D82248103001460C6801E020460C4689
:103D30006168A94202D221680029F7D131688C421A
:103D400024D007682168016060680837411B10298A
:103D50000FD96019420708D0502080F31188BFF3B3
:103D60004F8FBFF36F8FFEE710E041606560FFF794
:103D700069FF61687068401A7060B268904200D252
:103D8000B060F06801430020C4E9000100F098FB36
:103D9000780707D0502080F31188BFF34F8FBFF30F
:103DA0006F8FFEE73846BDE8F08100007400002008
:103DB00010B5031F4FF080741C601B1F21F0010120
:103DC0001960191F044B0B6014390A60091F6FF04A
:103DD000020244380A6010BDB13C00087CB5160AE6
:103DE0008DF800608DF801201A0ADDE906548DF87F
:103DF00002202A0A8DF804208DF80550220A8DF839
:103E000006208DF803308DF8074008236A4600F03D
:103E10006CF87CBDD0E9013201699A60D0E90123D8
:103E20005A604A68824201D182684A600022026177
:103E30000868401E086008687047000008B9064816
:103E400000680021006B01E0401C491C0278A52A93
:103E5000FAD0C1F38F007047380000202DE9FF4FE2
:103E600087B09C468846DDE91601DDE914230DF193
:103E70006C0E9EE8F00ECDE900016146404600F070
:103E80002CF88DE8F00E0DF1600E09989EE80E00FA
:103E900000F014F809990798FCF70CFD02E0642083
:103EA000FDF7CEF90798FDF739F80028F7D1079804
:103EB0000BB00221BDE8F04FFCF786BC70B5049E44
:103EC000069D0A9C80E84E000021C0E9041581612E
:103ED0000121C161C0E9081470BD30B5DDE90345B9
:103EE00080E83E000121017530BDF8B515460C464D
:103EF00006460B6102E00A20FDF7A2F96B462A464E
:103F000021463046FCF772FC0028F4D1F8BD0000D1
:103F1000F0B58FB000240125079408940827CDE957
:103F20000247CDE90A450E26144ACDE90C560694FF
:103F3000099405940494009440F2FF13A2F1340113
:103F40000F480194FFF78AFFCDE908460794CDE9B1
:103F500002471B20CDE90A45084ACDE90C500694DA
:103F600005944032049400946B02A2F1180101946C
:103F70000448FFF773FF0FB0F0BD0000BC04002041
:103F800094060020BC060020034B036003F154009C
:103F90000860802010607047E406002000F10801EE
:103FA0004FF0FF32C0E90112C160016100210160E0
:103FB000704700210161704730B50B685A1C02D070
:103FC00000F1080202E0026904E022465468256814
:103FD0009D42FAD953684B6099608A6051600861CC
:103FE0000168491C016030BD42684A6093688B607B
:103FF00093685960916008610168491C01607047CD
:10400000502080F31188BFF34F8FBFF36F8F0A49A1
:104010004868401C486001280CD10848006810F02E
:10402000FF0F07D0502080F31188BFF34F8FBFF3ED
:104030006F8FFEE7704700008C00002004ED00E069
:104040000849486828B1401E486001D180F31188B2
:104050007047502080F31188BFF34F8FBFF36F8FED
:10406000FEE700008C00002070B5002827D0144D1A
:10407000A0F108046168E868014207D1502080F38C
:104080001188BFF34F8FBFF36F8FFEE722683AB1FD
:10409000502080F31188BFF34F8FBFF36F8FFEE77F
:1040A0008143616000F07CF860686968084468607A
:1040B0002046FFF7C7FDBDE8704000F001BA70BDB3
:1040C000740000204FF0E02000210161816105496A
:1040D0004FF47A720968B1FBF2F1491E4161072180
:1040E000016170473400002010B5020014D00F4861
:1040F000806B38B1502080F31188BFF34F8FBFF32E
:104100006F8FFEE700F04CF800211046FFF736FCF9
:1041100000F0D6F9002807D105494FF0805008601B
:10412000BFF34F8FBFF36F8F10BD0000380000202A
:1041300004ED00E010B586B00024039405AA04A99C
:1041400003A80494FFF720FFDDE903010094CDE903
:10415000011000230EA11048059A00F014F90F4930
:104160000028486311D0502080F31188BFF34F8F8F
:10417000BFF36F8F4FF0FF3008630120C8614C61BF
:1041800006B0BDE8104000F041B806B010BD000018
:1041900049444C4500000000453B00083800002021
:1041A0000248816B491C8163704700003800002081
:1041B0001448816B11B101214162704700214162B5
:1041C0008169B1FA81F1C1F11F0101EB81020E4950
:1041D00051F822306BB101EB820101F108034A680A
:1041E00052684A609A4201D152684A60D1680160BF
:1041F0007047502080F31188BFF34F8FBFF36F8F4C
:10420000FEE70000380000202C0F00201CB53748C6
:104210000168374A914207D1502080F31188BFF3DB
:104220004F8FBFF36F8FFEE700683149491E884208
:1042300007D1502080F31188BFF34F8FBFF36F8FEA
:10424000FEE72C4908780190FF20087008788DF867
:1042500000009DF800009DF8002000F0F000904262
:1042600007D0502080F31188BFF34F8FBFF36F8FBB
:10427000FEE79DF80000204B00F05000187007206A
:10428000986005E09DF8002052008DF80020401E47
:104290009DF800201206F5D49860032807D050201E
:1042A00080F31188BFF34F8FBFF36F8FFEE74FF49A
:1042B00040709860019808700C482030016841F403
:1042C00070010160016841F070410160FFF7FAFE82
:1042D00000205860FBF786FF0848016841F0404124
:1042E0000160FBF76BFF00201CBD000000ED00E04B
:1042F00071C20F4100E400E08C00002034EF00E0C8
:1043000010B5502080F31188BFF34F8FBFF36F8F2C
:1043100000F072F818B104494FF080500860002096
:1043200080F3118810BD000004ED00E02DE9FF5F6F
:104330008346DDE90E87994616468A469000FFF7C8
:10434000CBFC05001CD05420FFF7C6FC040014D0A1
:104350000020256384F85100CDE90240CDE90087B3
:104360004B46324651465846FFF71CFC2046FFF7A5
:1043700041FB012004B0BDE8F09F2846FFF774FE22
:104380004FF0FF30F6E7F0B585B0DDE90B640A9D2C
:10439000A6B1DCB1542700972663022684F8516049
:1043A000002604AFCDE90246CDE90057FFF7FAFB3E
:1043B0002046FFF71FFB049805B0F0BD502080F3A6
:1043C0001188BFF34F8FBFF36F8FFEE7502080F34C
:1043D0001188BFF34F8FBFF36F8FFEE70548C169A8
:1043E00019B1806B18B1002070470120704702207E
:1043F00070470000380000202DE9F0412E4C0027C6
:10440000A06B40B1206A401C2062606A00B10127A5
:104410003846BDE8F0816669761C666113D1606834
:10442000006838B1502080F31188BFF34F8FBFF37D
:104430006F8FFEE76068A1686160A060A06A401CA1
:10444000A062FFF725FC206BDFF87080864209D35D
:104450006068006880B16068C068C5686868864246
:104460000DD220632068C06A00EB800158F821005B
:104470000128CAD90127C8E74FF0FF30F1E7281D0E
:10448000FFF7C8FCA86A18B105F11800FFF7C2FCD5
:10449000E86A0121A26981401143A16100EB80011A
:1044A00008EB8100291DFFF79FFDE86A2168C96AB2
:1044B0008842CDD30127CBE7380000202C0F002005
:1044C0002DE9F0472C4D00242746A86B38B1FFF7A3
:1044D00097FDA86B401EA863A86B40B146E0502032
:1044E00080F31188BFF34F8FBFF36F8FFEE7296909
:1044F000224E0120D1B3A6F1B40980463068E8B15C
:10450000F068C46804F11800FFF784FC201DFFF771
:1045100081FCE06AAA6908FA00F11143A96100EB85
:10452000800109EB8100211DFFF75EFDE06A29682B
:10453000C96A8842E2D3C5F82480DFE70CB1FFF7EF
:10454000A7FB2C6A44B14646FFF756FF00B16E62E6
:10455000641EF9D100202862686A38B10849012731
:1045600038070860BFF34F8FBFF36F8FFFF768FD09
:104570003846BDE8F087000038000020E00F00203A
:1045800004ED00E00000C841CDCC4C3D0AD7233CEF
:104590000000A040000000000000803F004600082E
:1045A00089310008000000000000000080000000C9
:1045B0000000000000000000F44500085D3700081E
:1045C00000000000000000000002000000000000E9
:1045D0000000000000061016000610160000000083
:1045E00000000000010203040607080900000000A3
:1045F00001020304636861737369735461736B0030
:1046000064656661756C745461736B002C460008B8
:1046100000000020980000004A360008C446000848
:1046200098000020887300005A360008000000003F
:10463000000000000000000000000000000000007A
:10464000000000000000000000000000000000006A
:104650000000000001000000100000000000000049
:104660000024F40000000000000000000000000032
:10467000000000000000000000000000000000003A
:10468000000000000000000000000000000000002A
:10469000000000000000000000000000000000001A
:1046A000000000000000000000000000000000000A
:1046B000000000000000000000000000AAAAAAAA52
:0446C00000000000F6
:040000050800018965
:00000001FF
