:020000040800F2
:10000000C867002081020008DF2E0008B928000818
:10001000DD2E000807040008494D0008000000001C
:10002000000000000000000000000000C101000806
:1000300059050008000000001D0200087930000882
:100040009B0200089B0200089B0200089B0200081C
:100050009B0200089B0200089B0200089B0200080C
:100060009B0200089B0200089B0200089B020008FC
:10007000AD0400089B020008B90400089B020008B8
:100080009B0200089B0200089B0200089B020008DC
:10009000090400089B0200089B0200089B0200085C
:1000A0009B0200089B0200089B0200089B020008BC
:1000B0009B0200089B0200089B0200089B020008AC
:1000C0009B0200089B0200089B0200089B0200089C
:1000D0009B020008553600089B02000861360008A4
:1000E0009B0200089B0200089B0200089B0200087C
:1000F0009B020008453100089B0200089B02000893
:100100009B0200089B0200089B0200089B0200085B
:100110009B0200089B0200089B0200089B0200084B
:100120009B0200089B020008C5040008D1040008D7
:100130009B0200089B0200089B0200089B0200082B
:10014000150400089B0200089B020008E12E00082D
:100150009B0200089B0200089B0200086D36000805
:100160009B0200089B0200089B0200089B020008FB
:100170009B0200089B0200089B0200080000000090
:100180009B0200089B0200089B0200089B020008DB
:100190009B0200089B0200089B0200089B020008CB
:1001A00000000000000000009B020008DFF80CD0F7
:1001B00000F0ECF800480047D94D0008C86700205F
:1001C0002C4B19680868B0E8F04F80F30988BFF33A
:1001D0006F8F4FF0000080F311887047000000001F
:1001E00008480068006880F308884FF0000080F33A
:1001F000148862B661B6BFF34F8FBFF36F8F00DF15
:1002000000BF00BF08ED00E0DFF80C00016841F41A
:1002100070010160704700BF88ED00E0EFF30980D6
:10022000BFF36F8F134B1A681EF0100F08BF20ED3D
:10023000108A20E9F04F106009B44FF0500080F3AD
:100240001188BFF34F8FBFF36F8F05F0A9F94FF0FF
:10025000000080F3118809BC19680868B0E8F04F05
:100260001EF0100F08BFB0EC108A80F30988BFF3AE
:100270006F8F704778000020EFF305807047000013
:100280000648804706480047FEE7FEE7FEE7FEE730
:10029000FEE7FEE7FEE7FEE7FEE7FEE7293100089E
:1002A000AD0100082DE9F05F0546002092469B460F
:1002B00088460646814640241BE02846414647467C
:1002C000224600F053F853465A46C01A914110D3C3
:1002D00011461846224600F03AF82D1A67EB01083D
:1002E0004F4622460120002100F031F817EB0009AB
:1002F0004E41201EA4F10104DFDC484631462A4667
:100300004346BDE8F09F40EA01039B0703D009E0A4
:1003100008C9121F08C0042AFAD203E011F8013BF1
:1003200000F8013B521EF9D27047D2B201E000F84A
:10033000012B491EFBD270470022F6E710B5134689
:100340000A4604461946FFF7F0FF204610BD202A52
:1003500004DB203A00FA02F1002070479140C2F11C
:10036000200320FA03F3194390407047202A04DB4E
:10037000203A21FA02F00021704721FA02F3D0401E
:10038000C2F120029140084319467047064C074DC0
:1003900006E0E06840F0010394E807009847103455
:1003A000AC42F6D3FFF706FF7459000894590008D1
:1003B00070B58C1810F8015B15F0070301D110F827
:1003C000013B2A1106D110F8012B03E010F8016B54
:1003D00001F8016B5B1EF9D12B0705D40023521ED7
:1003E0000DD401F8013BFAE710F8013BCB1A921C3F
:1003F00003E013F8015B01F8015B521EF9D5A1423D
:10040000D8D3002070BDFEE7014800F0A8B8000076
:10041000F4010020014800F0A2B800001C020020F6
:10042000002070470020704710B50022044905489D
:1004300003F016FA0449034803F00CFA002010BD3B
:1004400094180020F00700209410002030B50C46CE
:100450000A6899B0054601466846FFF754FF2088B0
:1004600081B2684600F00CF82946044803F0F2F91E
:10047000024803F0D3F919B0002030BDF007002086
:10048000094A10B5D2F89022D2F814220AB10120FC
:1004900010BD0A460146044803F0E2F9BDE81040E9
:1004A000014803F03BBA0000F0070020014800F0CB
:1004B0007DBA000030070020014800F077BA000044
:1004C00090070020014800F071BA0000D00600201B
:1004D000014800F06BBA0000F00400200168182306
:1004E000CAB2103AB2FBF3F2054B6FF30901032ACB
:1004F0009B5CC36500D9091D8165084670470000F3
:100500004859000810B5014600208B698A6A4FF0EF
:10051000C07453B1B3F5005F15D072B1012A0CD08D
:10052000022A0AD0032A09D104E01AB1012A06D00E
:10053000022A03D1C96AC90100D5012010BDC96AC8
:10054000A142FAD010BD002AF7D0012AF2D0022A27
:10055000F3D0032AF3D010BD7047704770472DE9E0
:10056000F05F0546006800244669D0F8049087686B
:10057000D0F80CB0D0F810A0D0F81880F10748D00F
:10058000F90714D001218160B80703D5284600F08F
:10059000F5F90CE0780702D54FF4006407E038075E
:1005A00002D54FF4805402E0284600F0E6F9F80541
:1005B00016D529684FF480708860B80503D52846A1
:1005C00000F0DEF90CE0780502D544F4005407E0B1
:1005D000380502D544F4804402E0284600F0CFF903
:1005E000F80316D529684FF480308860B80303D526
:1005F000284600F0C7F90CE0780302D544F4004423
:1006000007E0380302D544F4803402E0284600F0C5
:10061000B8F9300707D55FEACB6004D52968102008
:1006200044F40074C86070074FF0080707D55FEA0C
:100630000B7004D52868C760284600F099F9B00708
:1006400006D52868C068800702D0284600F091F9D6
:10065000700607D55FEACA6004D52968102044F403
:1006600080640861B00607D55FEA0A7004D528687F
:100670000761284600F07EF9F00606D52868006973
:10068000800702D0284600F076F9B00308D55FEA6B
:10069000C96005D5296810204860284600F06CF92B
:1006A000F00307D55FEA097004D52868476028463B
:1006B00000F069F9300446D55FEA497040D5F0058D
:1006C00004D55FEAC87001D044F00104B00504D538
:1006D0005FEA887001D544F00204700504D55FEA32
:1006E000487001D544F00404300529D518F0700F86
:1006F00026D008F07000402815D006DC102809D05C
:1007000020280AD0302816D10AE050280ED06028C0
:1007100011D10EE044F008040DE044F010040AE0AA
:1007200044F0200407E044F0400404E044F0800476
:1007300001E044F480742868816921F070018161CE
:10074000296804204860002C05D0686A204368624C
:100750002846FFF703FFBDE8F09F70B5040003D003
:1007600094F8200010B104E0012070BD204600F094
:1007700081F82068016821F00201016000F052FB5D
:100780000546052604E000F04DFB401B0A2811D861
:10079000206840688007F6D42068016841F00101B4
:1007A000016000F03FFB05460BE000F03BFB401B07
:1007B0000A2806D9606A40F40030606284F820603C
:1007C000D2E720684068C007EFD0207E012820686B
:1007D00001683DD021F080010160607E0128206821
:1007E000016838D021F040010160A07E0128206816
:1007F000016833D021F020010160E07E01282068EB
:1008000001682ED041F010010160207F012820688E
:10081000016829D021F008010160607F012820686B
:10082000016824D021F004010160D4E902010843E9
:10083000D4E90412114308436168491E0843216842
:10084000C86100206062012084F82000002070BD93
:1008500041F08001C0E741F04001C5E741F02001CF
:10086000CAE721F01001CFE741F00801D4E741F0D9
:100870000401D9E7F0B587B0044614216846FFF7B4
:100880005BFD364B3648DFF8D0E01968D4F800C07D
:10089000334A03250226092710300024491CF44559
:1008A00022D11960012907D1016841F0007101606E
:1008B000006800F000700590106840F008001060BB
:1008C0001068CDE9005600F00800CDE904706946D3
:1008D0002448CDE9024500F0B5F900220521142095
:1008E00000F02CFB142033E0DFF87CE0F44531D13C
:1008F000D0F800C04CF0806CC0F800C0D0F800C048
:1009000001290CF0806CCDF814C0196007D1016882
:1009100041F000710160006800F0007005901068FF
:1009200040F002001060106802AB00F00200059079
:100930004FF44050CDE9000683E8B00069460B480B
:1009400000F080F900220521402000F0F7FA402055
:1009500000F0E6FA07B0F0BD00640040000000209F
:1009600030380240000C02400068004000040240A1
:1009700070477047704770477047704770477047BF
:10098000704770477047704790F83510022903D0C0
:100990008021416501207047052180F835100068ED
:1009A000016821F001010160002070472DE9F84342
:1009B00004464FF00009CDF8009063484FF41651FB
:1009C000A56D0068B0FBF1F72E6894F85C10082064
:1009D00000FA01F131420FD021680A6852070BD5A5
:1009E0000A6822F004020A6094F85C108840A8604B
:1009F000606D40F00100606594F85C104FF00108F4
:100A000008FA01F0304208D021684969090604D586
:100A1000A860606D40F00200606594F85C100420EE
:100A20008840304208D021680968890704D5A86049
:100A3000606D40F00400606594F85C101020884000
:100A4000304218D021680968090714D5A8602068C9
:100A50000168490304D50068000308D5A16C07E0CC
:100A60000168C90503D4016821F008010160216C07
:100A700009B12046884794F85C1020208840304215
:100A800031D021680968C9062DD5A86094F83500D1
:100A900005282068016806D0490347D5006800038F
:100AA0001DD4616C1CE021F01601016020684169D1
:100AB00021F080014161206C08B9A06C20B1206850
:100AC000016821F00801016094F85C103F20884023
:100AD000A86084F8349084F83580216D1FE0E16BC4
:100AE00009B120468847606D00282BD0606DC00793
:100AF00014D0052084F835002068016821F0010138
:100B000001600098401C0090B84203D8206800683B
:100B1000C007F6D184F8349084F83580E16C002960
:100B200010D001B02046BDE8F04308470168C90570
:100B3000D5D4016821F01001016084F8349084F864
:100B40003580CCE7BDE8F883740000202DE9F04142
:100B5000044600F067F906465CB1002584F834507D
:100B6000022084F835002068016821F0010101604D
:100B70000DE00120BDE8F08100F054F9801B05284C
:100B800005D920206065032084F83500F2E720684D
:100B90000068C007F0D12268116820480140D4E9FC
:100BA00001031843D4E903363343184363691843F8
:100BB000A3691843E3691843236A18430843616A29
:100BC000042903D1D4E90B131943084310602068AA
:100BD0004069666A20F0070130460E430127042869
:100BE0000CD1A06A0643E06A40B12046FFF78AFCB8
:100BF00020B14020606584F83570BAE7206846610E
:100C00002046FFF76BFC94F85C203F219140816007
:100C1000656584F835700020ACE700003F8010F077
:100C200070B5044600F0FEF80546601C02D004488A
:100C30000078044400F0F6F8401BA042FAD370BDDF
:100C4000680000202DE9F84F00224FF0010803252D
:100C50004FF00F0E0B6808FA02F42340A3426ED146
:100C60004E68012E05D0022E03D0112E01D0122E77
:100C700012D186684FEA420C05FA0CF7BE43CF68E2
:100C800007FA0CF7374387604668A6430C79C4F32C
:100C90000014944034434460C668570005FA07FCCA
:100CA0008C6826EA0C06BC403443C4604C68022CB5
:100CB00001D0122C13D1D40800EB8404A346D4F83D
:100CC000209054074FEAD46A0EFA0AF629EA060978
:100CD0000E6906FA0AF646EA0906CBF820600468AF
:100CE0000E7924EA0C0406F00306BE402643066093
:100CF0004C68E4006FD53B4C266846F4804626607D
:100D0000246822F0030604F480440094364C3444F2
:100D1000A446D4F808489607360F0EFA06F7BC43E7
:100D2000324FB84201D100272EE0314FB84201D1F5
:100D3000012729E02F4FB84202D1022724E04AE0E0
:100D40002D4FB84201D103271EE02C4FB84201D1EC
:100D5000042719E02A4FB84201D1052714E0294F92
:100D6000B84201D106270FE0274FB84201D107272B
:100D70000AE0264FB84201D1082705E0244FB842C7
:100D800001D1092700E00A27B7402743CCF80878AB
:100D9000204E34684F689C43FF0300D51C433460E9
:100DA0001C4E361D34684F689C43BF0300D51C435E
:100DB0003460184E083634684F689C43FF0200D5F3
:100DC0001C433460134E0C3634684F689C43BF029A
:100DD00000D51C433460521C102AFFF43BAFBDE821
:100DE000F88F00004438024000300140000002400B
:100DF0000004024000080240000C024000100240C3
:100E00000014024000180240001C02400020024072
:100E100000240240003C01400AB18161704709048E
:100E2000FBE7000001488068704700006800002070
:100E30000248816802781144816070476800002090
:100E40000B4810B5016841F400710160016841F47C
:100E500080610160016841F480710160032000F04D
:100E60008DF8002000F006F800F03EF8002010BDDC
:100E7000003C024010B5014688B000222D2000F051
:100E80005DF82D2000F04CF813480024016841F46F
:100E900080710160006805A900F4807006906846C2
:100EA00000F0C6FD00F0EAFD0C494000B0FBF1F196
:100EB0000C480B4A491E026040F2E732C0E90324A5
:100EC000C0E9011401F0E0F810B1012008B010BD34
:100ED000044801F025F9F9E74038024040420F008C
:100EE00000200040942000200C4882B0016841F4AA
:100EF00080410160006800F4804000900748001FB6
:100F0000016841F0805101600068002200F08050CB
:100F100000900F21901E02B000F010B8443802403B
:100F2000002809DB00F01F020121914040098000E8
:100F300000F1E020C0F8001170470000F0B40E4B43
:100F40001B680C46C3F30223C3F10705042D00D927
:100F50000425191D072901D2002300E0DB1E01260C
:100F600006FA05F1491E214099409E40761E164022
:100F70003143F0BC03F0E9BE0CED00E0064900F09F
:100F8000070208684FF6FF03184040EA0220034AB0
:100F900010430860704700000CED00E00000FA0507
:100FA00070470068416200207047F0B50368586AD6
:100FB00039B19C6A4FF4827600EB144400204D1E38
:100FC0000AE040EA024098620FE006EB8007DF5932
:100FD000401C04EB1744C0B2A842F6D344EA0240D6
:100FE0004FF4807202EB810158500020F0BDD0F820
:100FF000040402F0E6BEC1EBC10200EB8202D0F8AD
:101000000404926C02F039BEC1EBC10200EB820213
:10101000D0F80404D2F8082202F092BED0F80404FA
:1010200002F0D1BE70B504460B0601F00F00C0EB14
:10103000C00104EB81014FF001024FF0000503D520
:1010400081F83D203C3103E081F8FD5101F5FE714E
:10105000087094F8BC03012808D084F8BC232068E9
:1010600003F028FA84F8BC53002070BD022070BD44
:1010700070B5044601F00F006268904201D901206A
:1010800070BD0B0601F00F01C1EBC10104EB810142
:101090004FF001024FF0000503D581F83D203C31AF
:1010A00003E081F8FD5101F5FE718D70087094F830
:1010B000BC03012808D084F8BC23206803F0D6FBC9
:1010C00084F8BC53002070BD022070BD01F00F01F8
:1010D000C1EBC10100EB8100D0F8140270472DE98B
:1010E000F04104460F0601F00F00C0EBC00104EB15
:1010F00081014FF001064FF0000503D581F83D60F6
:101100003C3103E081F8FD5101F5FE7108708A6001
:10111000CB704A7802B1C880022B00D10D7194F8CF
:10112000BC03012809D084F8BC63206803F012F9DD
:10113000284684F8BC53BDE8F0810220FBE770B577
:101140000C4601F00F05C5EBC50100EB8101C1F8AC
:101150001032C1F808220023C1F8143281F8FD31A1
:1011600081F8FC51036901F5FE71012B00D10A6180
:101170002207027C006803D003F0D0FB002070BD82
:1011800003F0BCFAFAE770B504460D4601F00F0013
:101190006168884201D9012070BD29064FF0000620
:1011A0004FF0010207D5C0EBC00104EB810181F8CB
:1011B0003D203C3107E0C5EBC50104EB810181F81E
:1011C000FD6101F5FE718A70087094F8BC03012876
:1011D00007D084F8BC23206803F074FB280702D0F2
:1011E00007E0022070BD217C04F57172206803F0D5
:1011F00011FB84F8BC63002070BD70B50C4601F093
:101200000F05C5EBC50100EB81010B658A64002366
:101210004B65012381F83D3001F83C5F0369012BE8
:1012200000D10A612207027C006803D003F076FB3C
:10123000002070BD03F062FAFAE700002DE9FC5FC0
:1012400005680446284603F092FC00287ED12068F9
:1012500003F0B9FC002879D0206803F0B4FC8007C3
:1012600004D52068416901F002014161206803F062
:10127000AAFC010304F571704FF0010A4FF0080B4E
:10128000009075D50026206803F07CFC0746DFF847
:1012900008946BE0F80767D0F1B2206803F08BFC8C
:1012A0008046C00707D005EB4611C1F808AB3146B0
:1012B000204601F01BFE5FEA087032D52068016C01
:1012C00000EB46100191D0F8081B2269012A019A0F
:1012D0000FD0F24B9A4214D1090403D54FF40041C8
:1012E000C0F8081B204600F0C9FA206901280FD079
:1012F00013E04A4505D9090403D54FF40041C0F86D
:10130000081B204600F0BAFA01984845EDD804E0E1
:1013100020680121009A03F07DFA05EB4611C1F81F
:1013200008BB5FEAC86004D505EB46111020C1F880
:10133000080B5FEA88600ED52069012804D1206877
:101340000121009A03F066FA202100E0A1E105EBFB
:101350004610C0F8081B5FEA884005D505EB46102B
:101360004FF40051C0F8081B7F08761C002F91D164
:10137000206803F028FC40034FF000095FD5206887
:1013800003F0F9FB0746002657E0F80753D0F1B207
:10139000206803F0FEFB8046C00726D006F00F024F
:1013A0000AFA02F0D5F834288243C5F8342805EB50
:1013B0004610C0F808A92069012807D1C6EBC6006D
:1013C00004EB8000D0E9112111448164F1B2204680
:1013D000FFF711FE2069012807D136B9206D20B929
:1013E00020680121009A03F015FA5FEA087003D51E
:1013F00005EB4611C1F808B95FEAC86004D505EBF2
:1014000046111020C1F808095FEA486004D505EBD1
:1014100046104021C0F808195FEA887004D505EB32
:1014200046100221C0F808195FEA086003D531466A
:10143000204601F0C9FD7F08761C002FA5D1206849
:1014400003F0C1FB002811DAD5F8040820F00100F0
:10145000C5F8040894F8F40301282BD0204600F0C6
:10146000F1F92068416901F000414161206803F011
:10147000AAFB00050BD5D5F80808C00702D0204606
:1014800000F024FA2068416901F40061416120689C
:1014900003F099FBC00461D5D5F8040820F00101E0
:1014A000C5F804181021206803F042FB00214FF614
:1014B0007F321AE084F8F49300212046FFF770FD94
:1014C000CFE700BF05EB4110C0F80829D0F800397C
:1014D00023F40013C0F80039C0F8082BD0F8003B03
:1014E00023F40013C0F8003B491C60688842E9D827
:1014F000D5F81C0840F00111C5F81C18206B002815
:1015000028460DD0D0F8840840F00B00C5F88408B8
:10151000D5F8440840F00B012846C5F844180DE002
:10152000D0F8140842F22B010843C5F81408D5F886
:10153000100840F00B012846C5F81018D0F8000834
:1015400020F4FE61C5F80018217C2068009A03F0A1
:1015500061F92068416901F480514161206803F01C
:1015600032FB800415D5206802F034FF206803F0B8
:10157000F1FAE06000F07CFA0146227B206803F07B
:101580005DFB204600F048F92068416901F40051F4
:101590004161206803F017FBC00634D520688169DB
:1015A00021F0100181612F6A07F00F00C0EBC0002D
:1015B00004EB8006C7F3434006F5FE76022802D00E
:1015C000062811D01AE047F6F070074216D0C7F38C
:1015D0000A1217462846F16803F0F9FAF068384411
:1015E000F060B069384408E008222846009903F00A
:1015F000EEFAB069C7F30A110844B061216888693E
:1016000040F010008861206803F0DDFA000707D57C
:10161000204600F01BF92168486900F00800486185
:10162000206803F0D0FAC00208D50021204600F05F
:1016300037F82168486900F480104861206803F099
:10164000C2FA800208D50021204600F02DF821685A
:10165000486900F400104861206803F0B4FA4000C3
:1016600007D52046FFF7C3FC2068416901F080419F
:101670004161206803F0A7FA40070AD52068456851
:10168000680702D52046FFF7C9FC20684168294356
:101690004160BDE8FC9F00000A30544F0A31544FAE
:1016A000D0F8040402F0DEBBD0F8040402F0DCBB86
:1016B0002DE9F0418AB0040005D094F8BD032668F6
:1016C000002520B108E001200AB0BDE8F08184F8CF
:1016D000BC53204600F05EF8032084F8BD03F06B95
:1016E000C00500D42561206803F002F804F1100160
:1016F000282288466846FEF706FE94E80F0002F0AE
:1017000083FE0226C8BB0021206803F06EFA002089
:1017100001270EE0C0EBC00104EB810181F83D70B0
:1017200001F83C0FC880CD708D60CD60401CC0B208
:101730004D6161688142EDD8002011E0C0EBC0012D
:1017400004EB810181F8FD5181F8FC0181F8FF5122
:10175000C1F80452C1F80852401CC0B2C1F810527E
:1017600061688142EAD8282241466846FEF7CBFDEF
:1017700094E80F0002F0F6FE10B184F8BD63A2E712
:1017800084F8385084F8BD73206802F0DFFE002032
:101790009AE7000010B586B0044614216846FEF7AB
:1017A000CBFD2068B0F1A04F2FD11948002102686D
:1017B00042F001020260006800F0010005904FF461
:1017C000C05000900220CDE90101032003900A20BF
:1017D000049069460F48FFF735FA0D48001D01686F
:1017E00041F0800101600A481430016841F48041F1
:1017F00001600068002200F480400590052143202C
:10180000FFF79CFB4320FFF78BFB06B010BD0000E9
:10181000303802400000024070B50446C06801251F
:1018200070B1022801D0FEF798FE2946D4F80404CE
:1018300002F06BFBD4F80404BDE8704002F02BBB4F
:101840000025F2E7D0F8040402F04DBBD0F8040400
:1018500002F04FBB10B5044690F8BC0301280BD032
:10186000012084F8BC0384F83810206803F0D4F910
:10187000002084F8BC0310BD022010BDD0F8042461
:1018800000F57171104602F04CBB10B504460068BB
:1018900094F8BC13012906D0012184F8BC13A16A75
:1018A000012902D008E0022010BDA169012903D05E
:1018B000816B41F480318163206802F03BFE206837
:1018C00003F020F9002084F8BC0310BD10B50446D5
:1018D000D0F8040402F064FB2068D0F8001E41F048
:1018E0000101C0F8001E206A002804D002480168E7
:1018F00041F00601016010BD10ED00E02DE9F04758
:101900000E46050065D0DFF81481D8F80000F7B264
:1019100000F00F00B04207D288F80070D8F800003D
:1019200000F00F00B04254D128683D4C810712D519
:10193000400703D5206840F4E05020602878000775
:1019400003D5206840F4604020602068A96820F03A
:10195000F000084320602878C0072DD0304968681F
:101960000839012812D0022813D0032811D00968A1
:10197000890700292DDA216821F003010143216044
:10198000FFF750FA814641F2883A0EE00968890370
:10199000EFE709688901ECE7FFF744FAA0EB0901DA
:1019A000514502D90320BDE8F0872068696800F03E
:1019B0000C00B0EB810FEFD1D8F80010404601F0D9
:1019C0000F01B14207D90770006800F00F00B04264
:1019D00001D00120E7E72878400705D52068E968AD
:1019E00020F4E050084320602878000706D52068DE
:1019F000296920F4604040EAC100206000F05EF8F0
:101A00002168084AC1F30311515CC84006490860C7
:101A100006480068FFF72EFA0020C4E7003C0240A9
:101A20000838024050590008740000206C00002063
:101A30000F2202600C4A136803F00303436013682B
:101A400003F0F0038360136803F4E053C36012688B
:101A50004FF4E05303EAD20202610448006800F048
:101A60000F0008607047000008380240003C024048
:101A700001480068704700007400002004480549D0
:101A800000680968044AC1F38221515CC84070476C
:101A900074000020083802406059000804480549D5
:101AA00000680968044AC1F34231515CC84070477C
:101AB000740000200838024060590008154810B52D
:101AC000006810F00C02144813D01449042A0FD0F7
:101AD000082A0ED10F4C241F2268236802F03F020F
:101AE0005B0207D52068C0F38810A0FB010106E067
:101AF000084610BD2168C1F38811A1FB0001002335
:101B0000FEF7D0FB2168C1F30141491C4900B0FB3D
:101B1000F1F010BD083802400024F400001BB700AB
:101B20002DE9F84F040076D02078DFF838A3CE4DA9
:101B3000C00749D0DAF800105046C1F381010129ED
:101B400008D00068C0F3810002280AD1281D00686F
:101B5000400206D52868800336D560680028E2D0A8
:101B600032E06068B0F5803F10D0B0F5A02F286853
:101B700010D020F480302860286820F4802028606D
:101B80006068A0B1FFF74EF906460CE0286840F403
:101B90008030F4E740F480202860F7E7FFF742F94F
:101BA000801B642873D828688003F7D50CE0FFF702
:101BB00039F9064605E000BFFFF734F9801B6428B9
:101BC000F0D828688003F7D42078DFF8A082800757
:101BD0004FF000093ED5DAF80010504611F00C0F16
:101BE00009D00068C0F3810002280BD19D48001F76
:101BF0000068400206D42868800715D5E0680128EF
:101C000009D111E0E068B8B10120C8F80000FFF781
:101C100009F9064605E020E1FFF704F9801B0228D8
:101C2000C0D828688007F7D52868216920F0F80017
:101C300040EAC10028600DE0C8F80090FFF7F2F814
:101C4000064604E0FFF7EEF8801B02281FD828683C
:101C50008007F7D42078000722D5824E8448616936
:101C60006C3671B101210160FFF7DCF8074604E032
:101C7000FFF7D8F8C01B022809D830688007F7D5CD
:101C80000EE0C0F80090FFF7CDF8074605E082E0CF
:101C9000FFF7C8F8C01B02287DD830688007F7D44A
:101CA0002078400768D5DFF8BCB100270BF1380B6E
:101CB000DBF80000C0000BD4DBF8001041F08051CD
:101CC000CBF80010DBF80000012700F080500090F6
:101CD000684E3068C00510D4306840F480703060C1
:101CE000FFF7A0F8009005E0FFF79CF80099401A74
:101CF000022850D83068C005F6D55A4EA06868361C
:101D000001280FD00528306810D020F00100306085
:101D1000306820F004003060A068B8B1FFF782F8A6
:101D200000900FE0306840F00100F4E740F004005C
:101D30003060F7E7FFF776F80099411A41F28830F2
:101D4000814266D830688007F4D50EE0FFF76AF864
:101D5000009007E0FFF766F80099411A41F28830D9
:101D6000814256D830688007F4D42FB1DBF80010D8
:101D700021F08051CBF80010A069D0B3DAF8002030
:101D80005146C2F38102022A4AD00228484607D0AF
:101D9000C8F8600000E03CE0FFF744F804463BE090
:101DA0004746C8F86000FFF73DF8064605E000BF6B
:101DB000FFF738F8801B02282BD828688001F7D459
:101DC000D4E907010843A16A2B4A490802EB014103
:101DD000626A41EA8211084394F82C1040EA0161DA
:101DE0002048001F016001203866FFF71BF80446F9
:101DF00005E034E0FFF716F8001B022809D8286830
:101E00008001F7D52BE000BFFFF70CF8001B02287C
:101E100002D90320BDE8F88F28688001F4D41EE0C1
:101E20000128F7D00868E26900F48001914214D1DA
:101E3000226A00F03F0191420FD147F6C071626AF9
:101E40000140914209D1A26A00F44031914204D18B
:101E5000E16A00F07060884201D00120DAE70020DA
:101E6000D8E700000838024000380240000047422E
:101E7000800E4742007000400000FFFF70B5040074
:101E800005D00025A56294F8510010B106E00120AC
:101E900070BD84F85050204600F030F8022084F8DD
:101EA00051002068016821F040010160D4E901017E
:101EB0000843D4E903121143084361690843218BA5
:101EC00001F400710843E1690843216A0843A16AEB
:101ED000084321680860A069042101EA1040616A92
:101EE0000843216848602068C16921F40061C1612C
:101EF0006565012084F85100002070BD70B586B082
:101F0000064614216846FEF717FA204930688842D1
:101F10003AD11F480025016841F480110160006832
:101F200000F4801005901A481438016841F020012F
:101F300001600068694600F0200005904FF4607071
:101F400000900220CDE901050320039005200490B4
:101F50001048FEF777FE114C0F4820604FF080606C
:101F6000C4E901050014C4E9035065614FF4403031
:101F7000A561C4E9075020466562FEF7E7FD08B198
:101F8000FEF7EBFAF464A66306B070BD00500140A2
:101F9000443802400014024058640240F00400201B
:101FA0007047704710B590F83C20012A22D00122DA
:101FB00080F83C20CA688C6822F4407222434C6846
:101FC00022F4806222430C6822F4006222430C69EE
:101FD00022F4805222434C6922F400522243C96900
:101FE000002322F480420A4301684A6480F83C30AE
:101FF000002010BD022010BD70B590F83C20012AD1
:1020000032D0012480F83C40022280F83D20036851
:102010005A689D6822F070060A6832435A60134B72
:1020200002689A4214D0B2F1804F11D0104B9A42FC
:102030000ED0104B9A420BD00F4B9A4208D00F4B48
:102040009A4205D00E4B9A4202D00E4B9A4204D1CE
:10205000496825F080031943916080F83D400021D4
:1020600080F83C10084670BD022070BD00000140A1
:102070000004004000080040000C00400004014043
:10208000004001400018004010B5040003D094F84F
:102090003D0010B107E0012010BD002084F83C0095
:1020A000204600F00DF8022084F83D00211D206834
:1020B00001F04EF8012084F83D00002010BD000022
:1020C00008B501681248814208D11248016841F000
:1020D00001010160006800F001000BE00D480E4AAC
:1020E000001F914208D1016841F0020101600068BF
:1020F00000F00200009008BD084A9142FBD101683F
:1021000041F040010160006800F04000F2E700008B
:102110000000014044380240000400400018004024
:102120000168CA6842F00102CA600068816801F073
:102130000701062903D0016841F001010160002078
:10214000704770B5044690F83C00012817D001256F
:1021500084F83C50022084F83D002068826822F018
:10216000770222F47F4282600868502830D00DDC6C
:1021700020284DD005DC98B310283BD148E0022040
:1021800070BD302844D0402834D139E0602828D0B0
:10219000702806D0B0F5805F2CD0B0F5005F29D153
:1021A0000AE0CB68D1E90121206801F035F8206808
:1021B000816841F0770109E0CB68D1E9012120680D
:1021C00001F02AF82068816841F48041816011E0C3
:1021D000CA684968206801F0F3F85021206807E0D8
:1021E00016E0CA684968206801F0FBF860212068A1
:1021F00001F01CF884F83D50002084F83C0070BDCC
:10220000CA684968206801F0DBF840212068EFE7E0
:10221000226801461046EBE7704770B50446006837
:1022200001694FF00005C943890715D4C168C94346
:10223000890711D4E91E0161012020772068806997
:102240008007204602D0FFF7E7FF04E000F004F922
:10225000204600F086F9257720680169C9434907BF
:1022600017D4C168C943490713D46FF00401016151
:10227000022020772068806910F4407F204602D039
:10228000FFF7CAFF04E000F0E7F8204600F069F924
:10229000257720680169C943090716D4C168C94375
:1022A000090712D46FF0080101610420207720682B
:1022B000C0698007204602D0FFF7AEFF04E000F0BF
:1022C000CBF8204600F04DF9257720680169C94315
:1022D000C90617D4C168C943C90613D46FF01001E9
:1022E0000161082020772068C06910F4407F2046F3
:1022F00002D0FFF791FF04E000F0AEF8204600F0B6
:1023000030F9257720680169C943C90708D1C16838
:10231000C943C90704D1891E0161204600F022F992
:1023200020680169C943090609D4C168C94309067F
:1023300005D46FF0800101612046FFF731FE20686F
:102340000169C943490609D4C168C943490605D48E
:102350006FF040010161204600F00EF9206801692C
:10236000C94389060BD4C168C943890607D46FF0F5
:10237000200101612046BDE87040FFF712BE70BD2C
:1023800070B586B0044614216846FDF7D5FF2A4A89
:1023900021680025294802240126914222D10168A2
:1023A00041F001010160016801F00101059101683E
:1023B00041F0100101600068694600F010000590CE
:1023C0004FF440708DE83100CDE903561C48FEF70C
:1023D00039FC4FF4C0408DE83100CDE90356694621
:1023E000184811E0184A914212D1016841F00201E7
:1023F00001600068694600F00200059020208DE829
:102400003100CDE903541148FEF71CFC06B070BD45
:102410000F4A9142FAD1016841F0800101600068E1
:10242000694600F08000059040208DE851000920A9
:10243000CDE903400748E7E700000140303802409B
:10244000000002400010024000040040000402406E
:1024500000180040001C0240704770B5044690F818
:102460003C000D4601280DD0012684F83C60022076
:1024700084F83D0042B1042A18D0082A2AD00C2A38
:102480004DD139E0022070BD206800F0D7FE2068F1
:10249000816941F0080181612068816921F00401AE
:1024A0008161206881692A69114311E0206800F088
:1024B000F5FE2068816941F40061816120688169CD
:1024C00021F480618161206881692A6941EA0221E1
:1024D000816124E0206800F017FF2068C16941F0A5
:1024E0000801C1612068C16921F00401C16120684F
:1024F000C1692A69114311E0206800F039FF2068A2
:10250000C16941F40061C1612068C16921F4806141
:10251000C1612068C1692A6941EA0221C16184F868
:102520003D60002084F83C0070BD10B5040003D06D
:1025300094F83D0010B107E0012010BD002084F8A0
:102540003C00204600F00CF8022084F83D00211DDC
:10255000206800F0FDFD012084F83D00002010BD42
:102560007047704700680349884201D1FEF760BC9C
:1025700070470000002000407047704770B5026847
:1025800004461068D168536910F00F0F52D003F061
:10259000010501F490762E435FD0C20705D0CA052D
:1025A00003D5E26B42F00102E263420705D5DA0788
:1025B00003D0E26B42F00202E263820705D5DA073C
:1025C00003D0E26B42F00402E263020707D501F098
:1025D00020022A4303D0E26B42F00802E263E26B7E
:1025E000002A33D0800604D5880602D5204600F0A4
:1025F00020FF20684069E16BC0F38010090700D418
:1026000028B3204600F007FF2068416949061AD523
:10261000416921F040014161606BA0B11B49016536
:10262000606BFEF7B1F9002810D0606B016DBDE85A
:1026300070400847830610D58B060ED52046BDE8AE
:10264000704000F0F6BE2046FFF797FF70BD2046B1
:10265000FFF793FF0020E06370BD030606D50B066D
:1026600004D52046BDE8704000F0C2BF4006F3D557
:102670004806F1D5D168204621F04001D1602021E3
:1026800084F8391000F017F970BD00000734000815
:1026900070B5040004D094F83900002510B106E0AC
:1026A000012070BD84F83850204600F023F8242023
:1026B00084F839002068C16821F40051C1602046C7
:1026C00000F002FF2068016921F490410161206857
:1026D000416921F02A0141612068C16841F400513B
:1026E000C160E563202084F8390084F83A000020B6
:1026F00070BD00002DE9F04786B0064614216846FB
:10270000FDF71AFE6248DFF88481D6F800C0604900
:102710001438022201230325072700244FF0006903
:102720004FF4806AC44533D1D1F800C04CF0100C8E
:10273000C1F800C0096801F010010591016841F07D
:10274000020101600068694600F002000590C020A7
:102750008DE8AD004F48FEF775FA504D4E482860A1
:10276000C5E90194C5E9034A6C61AC61EC612C6276
:1027700028466C62FEF7EAF908B1FDF7EEFE7563D4
:10278000002205212520AE63FEF7D8FB252054E06A
:10279000DFF80C81C44555D13D49091FD1F800C06F
:1027A0004CF4802CC1F800C0096801F48021059127
:1027B000016841F0080101600068694600F0080006
:1027C00005904FF440708DE8AD003648FEF73AFAB8
:1027D000324D354860354F462860C5E90194C5E95A
:1027E000034A6C61AC61EC612C62D04628466C6295
:1027F000FEF7ACF908B1FDF7B0FE7563AE63274D87
:102800002948C0353030E5E802074020A5E811012D
:10281000224845F81449C030AC61EC612C626C620E
:10282000FEF794F908B1FDF798FE35630022052103
:102830002720AE63FEF782FB2720FEF771FB06B070
:10284000BDE8F087194CA445F9D10C6844F0200488
:102850000C60096801F020010591016841F0400118
:1028600001600068694600F0400005904FF4844024
:102870008DE82D00082004900D48FEF7E3F90022B2
:1028800005214720FEF75AFB4720D6E700100140FC
:10289000443802400004024040640240D006002058
:1028A00000480040000C0240286002400014014033
:1028B0000018024070477047FEE70000F0B50023A3
:1028C0000A24302537261F4611E000BFB4EB107FE5
:1028D00002D905EB107C01E006EB107C01F813C077
:1028E00001EB430C00015B1C8CF80170DBB29342DE
:1028F000ECD3F0BD0F4810B50D49016003214160D4
:1029000000214FF410228160C0E903124FF400123D
:102910004261017641768176C17601774177FDF794
:102920001CFF002803D0BDE81040FDF716BE10BD07
:1029300000640040F40100200F4810B50D4901600B
:102940000321416000214FF410228160C0E903128D
:102950004FF400124261017641768176C1760177AB
:102960004177FDF7FAFE002803D0BDE81040FDF7DF
:10297000F4BD10BD006800401C020020194808B5D5
:10298000016841F480010160016801F48001009157
:10299000016841F4001101600068002200F4001099
:1029A000009005210C20FEF7C9FA0C20FEF7B8FABA
:1029B000002205210E20FEF7C1FA0E20FEF7B0FA24
:1029C000002205213A20FEF7B9FA3A20FEF7A8FACC
:1029D000002205213B20FEF7B1FABDE808403B206C
:1029E000FEF79EBA3038024000B587B01C22064977
:1029F0006846FDF788FC0021684602F055FA034955
:102A0000086007B000BD00002C5900080400002039
:102A10002DE9F04F87B014216846FDF78DFC514831
:102A20000025016841F010010160016801F010010A
:102A30000591016841F002010160016801F00201A5
:102A40000591016841F040010160016801F0400119
:102A50000591016841F001010160016801F0010187
:102A60000591016841F008010160016801F0080169
:102A70000591016841F004010160016801F0040161
:102A80000591016841F080010160016801F0800159
:102A90000591016841F0200101600068DFF8C880FD
:102AA00000F020000590002240F604014046FEF7A9
:102AB000B3F9DFF8B8A042F2FE17002239465046BB
:102AC000FEF7AAF9DFF8A89000223C214846FEF75D
:102AD000A3F9DFF8A0B0002244F240015846FEF707
:102AE0009BF901240420CDE900040226CDE9024629
:102AF00069464046FEF7A6F8200200901E48CDE940
:102B0000010569461D48FEF79DF80097CDE901458E
:102B1000694650460395FEF795F83C20CDE9000440
:102B20000294694648460394FEF78CF84020CDE9AC
:102B30000004CDE9024669465846FEF783F8E002F4
:102B40008DE83100694640460395FEF77BF8A00307
:102B50008DE83100694658460395FEF773F807B0D3
:102B6000BDE8F08F303802400010024000180240EB
:102B7000001C02400014024000001110000402403A
:102B8000104810B50E4901604FF482714160002178
:102B90008160C1604FF400720161C0E9051230220A
:102BA000C0E90721416281620A21C162FFF766F92B
:102BB000002803D0BDE81040FDF7CFBC10BD0000D9
:102BC000005001409804002010B58CB000240794F8
:102BD000089409941C2168460A94FDF7ADFB1A4835
:102BE000184901605321C0E9011440F6C311C0E93E
:102BF00003148461FFF748FA08B1FDF7AEFC4FF407
:102C00008050079007A91048FFF79BFA08B1FDF71D
:102C1000A4FC0D48FFF789FC08B1FDF79EFC60207D
:102C2000CDE9000402940022694607480494FFF7A6
:102C300014FC08B1FDF791FC0348FFF7A1FB0CB0B1
:102C400010BD000000180040D005002010B596B05F
:102C500000240F9410941194129413941C2168462C
:102C60001494FDF769FB202107A8FDF765FB3548A3
:102C700033490160A721C0E9011444F62061C0E98D
:102C8000031444618461FFF7FFF908B1FDF765FCA7
:102C90004FF480500F900FA92A48FFF752FA08B15D
:102CA000FDF75BFC2748FFF740FC08B1FDF755FC3A
:102CB000139413A923481494FFF79EF908B1FDF764
:102CC0004CFC602000904FF4FA60CDE901040394BD
:102CD00004940594002269461A480694FFF7BDFB48
:102CE00008B1FDF73AFC042269461648FFF7B5FB28
:102CF00008B1FDF732FC082269461248FFF7ADFB28
:102D000008B1FDF72AFC0C2269460E48FFF7A5FB27
:102D100008B1FDF722FC0794089409944FF4005081
:102D20000A94CDE90B4007A906480E94FFF73AF93B
:102D300008B1FDF712FC0348FFF722FB16B010BDE7
:102D4000000001405005002010B58EB0002407940B
:102D5000089409940A940B941C2168460C94FDF77E
:102D6000EBFA1D481B4901605321C0E90114C460FE
:102D700004618461FFF788F908B1FDF7EEFB4FF4B9
:102D80008050079007A91448FFF7DBF908B1FDF759
:102D9000E4FB1148FFF7C9FB08B1FDF7DEFB0B941C
:102DA0000BA90D480C94FFF727F908B1FDF7D5FBE7
:102DB0006020CDE900040294042269460648049488
:102DC000FFF74BFB08B1FDF7C8FB0348FFF7D8FA44
:102DD0000EB010BD00040040900500200C4810B556
:102DE0000A4901600B494160002181600C22C160E9
:102DF000C0E904128161C161FFF74AFC002803D0D9
:102E0000BDE81040FDF7A9BB10BD00000010014057
:102E100010060020A08601000C4810B50A49016088
:102E20004FF4E1314160002181600C22C160C0E9B2
:102E300004128161C161FFF72BFC002803D0BDE8BB
:102E40001040FDF78ABB10BD00480040500600202E
:102E50000C4810B50A4901604FF4E131416000218E
:102E600081600C22C160C0E904128161C161FFF779
:102E70000FFC002803D0BDE81040FDF76EBB10BD6D
:102E8000001401409006002010B500220F491048A0
:102E900000F0CCFE08B1FDF760FB0E490C4801F0D4
:102EA000A5F808B1FDF759FB0B49094800F0CAFC29
:102EB00008B1FDF752FB064801F0EEF8002803D0F8
:102EC000BDE81040FDF749BB10BD00000800002020
:102ED000F0070020B401002058000020FEE77047F2
:102EE0000148FEF7ABB900008C0A00202DE9F04143
:102EF000044600680E46016C00EB4615D5F8080B39
:102F0000276920234FF40042012F08D02C4FB942EB
:102F10004FD1010449D500BFC5F8082B4DE0DFF8BB
:102F2000A4C05FEA007E04F5717711D5614503D92D
:102F3000000401D5C5F8082B2046FEF79FFC3A4651
:102F40000121206801F066FC0820C5F8080B34E078
:102F50005FEA806E02D5C5F8083B2EE010F0280F1E
:102F60002BD1614501D90004D6D4C6EBC60004EBD1
:102F70008000D5F8102BD0F80412C2F312028A1A7E
:102F8000C0F81422D0F808221144C0F80812F1B297
:102F90002046FEF739F886B9D4F8100268B93A46E7
:102FA0000121206801F036FC07E0800601D5C5F854
:102FB000083BF1B22046FEF727F80020BDE8F0817B
:102FC0000A31544F0A30544F2DE9F84F0E46C1EBE9
:102FD000C60100EB810481460568D4E914103C3435
:102FE000884202D90120BDE8F88F081AA168814201
:102FF00000D20846C01C870805EB46181BE000BF3E
:10300000A0EB010AA068504500D282460AF10300F5
:10301000870899F8100000901FFA8AF3F2B2284648
:10302000E16801F07FFEE16801EB0A00E060A16960
:1030300001EB0A00A061D8F8180980B2B84205D3A4
:10304000D4E90501814201D20028D9D1D4E9050192
:10305000884208D806F00F0101208840D5F83418BE
:103060008143C5F834180020BDE7FFF70DFF0120AC
:1030700001F00EFFFBE7000010B5502080F311882F
:10308000BFF34F8FBFF36F8F02F08AFB18B1044973
:103090004FF080500860002080F3118810BD0000C0
:1030A00004ED00E030B593B030216846FDF744F9F7
:1030B00014210CA8FDF740F919480025016841F0DA
:1030C00080510160006800F080501190154801683F
:1030D00041F4404101600068022400F44040119036
:1030E00001200090000401908001CDE906400620F7
:1030F0000890A820CDE9090407200B906846FEF748
:103100000FFD0CA90F2081E831004FF4A0500F9063
:10311000E002109005210CA8FEF7F0FB13B030BDC3
:1031200040380240007000400548016841F47001D9
:10313000016003494FF0006080390860704700006B
:1031400088ED00E00148FFF768B8000094200020F7
:10315000F0B50268254C264D264E274F274B4FF0E1
:10316000804CA04209D0604507D0A84205D0B042AB
:1031700003D0B84201D0984204D122F0700E4A68C0
:1031800042EA0E02A0421BD0604519D0A84217D0D7
:10319000B04215D0B84213D0984211D0184DA84271
:1031A0000ED0184DA8420BD0174DA84208D0174D8D
:1031B000A84205D0164DA84202D0164DA84203D110
:1031C00022F44075CA682A434D6922F080022A43DE
:1031D00002608A68C2620A688262A04201D0984294
:1031E00001D10969016301214161F0BD0000014085
:1031F0000004004000080040000C004000040140B2
:1032000000400140004401400048014000180040D7
:10321000001C00400020004010B5846842EA0322F0
:1032200024F47F440A432243826010BD826822F066
:1032300070020A4342F0070181607047F0B5026AEC
:1032400022F001020262036A42688469124E24F08D
:1032500073050C682C4323F002058B682B430D4D3E
:10326000A84201D0B04205D123F00807CB683B4308
:1032700023F00403A84201D0B04205D14D6922F4E5
:10328000407215438A692A434260846149684163F8
:103290000362F0BD0000014000040140F0B5026A85
:1032A00022F010020262026A436884690D6824F405
:1032B000E64444EA05248D6822F0200242EA051221
:1032C0000F4D104EA84201D0B04206D1CF6822F077
:1032D000800242EA071222F04002A84201D0B04226
:1032E00007D14D6923F4406343EA85038D6943EABE
:1032F000850343608461496881630262F0BD000018
:103300000000014000040140F0B5026A22F480721E
:103310000262026A4368C46922F4007224F07305F1
:103320000C68124E2C438D6842EA05220E4DA842CD
:1033300001D0B04206D1CF6822F4006242EA0722EF
:1033400022F48062A84201D0B04207D14D6923F433
:10335000405343EA05138D6943EA05134360C46192
:103360004968C1630262F0BD0000014000040140F1
:1033700030B5026A22F480520262046A4268C3696C
:103380000D6823F4E64343EA05238D6824F40054D2
:1033900044EA0534084DA84202D0084DA84204D1A1
:1033A0004D6922F4804242EA85124260C361496855
:1033B0000164046230BD00000000014000040140CF
:1033C00010B5036A046A24F001040462846924F0DD
:1033D000F00444EA021423F00A020A438461026200
:1033E00010BD10B5036A23F0100303628369046AF9
:1033F00023F4704343EA023224F0A00343EA0111AC
:103400008261016210BD10B5806B0021C185C1844D
:10341000FFF7B3F810BD0168CA6822F49072CA6061
:1034200001684A6922F001024A61202180F83A10BD
:10343000704710B590F83A10222901D0022010BD33
:103440008168B1F5805F11D00169002901681FD042
:10345000496801F07F03816A4A1C82620B70C18D4A
:10346000491E0904090CC18518D02BE00269816A44
:10347000002A0268526805D0D2B20A80816A491CCB
:103480008162ECE7C2F308020A80816A891CF7E7CF
:103490004A68816A4B1C83620A70E0E70168CA6867
:1034A00022F02002CA600168CA6822F48072CA60F1
:1034B00001684A6922F001024A61202180F83A102D
:1034C000FFF7F8F9002010BD2DE9F041044600682F
:1034D0000169E26821F44051114301612169A0684A
:1034E000E26908436169114308432168CA6849F2E7
:1034F0000C639A430243CA6020684169A26921F4BF
:10350000407111434161E069192764253226B0F505
:10351000004F354A354920684FF0000806D08842F0
:1035200001D0904236D1FEF7B9FA35E0884201D099
:10353000904202D1FEF7B2FA01E0FEF79FFA61680D
:103540004A18A0FB070148EB0803FCF7ABFE014655
:10355000B0FBF5F00201B1FBF5F06FF01803584332
:1035600001EB800006EBC000B0FBF5F000F0F800C6
:1035700002EB4002B1FBF5F0584301EB800006EB93
:10358000C000B0FBF5F000F007002168104488602F
:10359000BDE8F081FEF772FA61688B0F8A00A0FB2C
:1035A0000701FCF77FFE0146B0FBF5F06FF0180253
:1035B000504301EB800006EB0010B0FBF5F000F08B
:1035C000F002B1FBF5F002EB0012B1FBF5F06FF089
:1035D0001803584301EB800006EB0010B0FBF5F038
:1035E00000F00F00D1E7000000140140001001407E
:1035F00090F83910212901D0022070478168B1F577
:10360000805F016A0BD04A1C02620268097851602F
:10361000C18C491E0904090CC1840ED017E0098829
:103620000268C1F30801516001690029016A02D0F2
:10363000491C0162ECE7891CFBE70168CA6822F0BB
:103640008002CA600068C16841F04001C16000208A
:10365000704700000148FEF791BF000010060020EF
:103660000148FEF78BBF0000500600200148FEF71E
:1036700085BF0000900600202DE9F041D0F8983277
:10368000D0F89022DAB101EB810400EB840400252C
:10369000E6694EB1C1EBC10703EB87035B6CB6FB78
:1036A000F3F703FB176323B1C2F814520020BDE8FF
:1036B000F08100231A46E56100F07BFCF6E702206A
:1036C000F5E770B50546D0F8904200F087FBC4F8E6
:1036D0000C02D5F8900248B1D5F89412D4F804023F
:1036E000CA6804F503719047002070BD022070BDC8
:1036F00070B504460026812100F0B6FA00250121AC
:103700002046E56200F0B0FA82212046C4F8585104
:1037100000F0AAFA2564D4F8900248B1D4F89402D3
:1037200004F5247440688047206801F02DFB256073
:10373000304670BD10B5D0E9A44159B194F80002EB
:10374000FF2807D08B6894F8012221469847FF2074
:1037500084F80002002010BD0A2101800048704753
:10376000DC00002043210180004870472C0100202C
:103770004321018000487047E80000204321018078
:1037800000487047700100202DE9F04104460026F2
:10379000007C4FF40077012590B340230222812161
:1037A000204600F063FB4023E5620222012120460F
:1037B00000F05CFB0823032282212046C4F8585104
:1037C00000F054FB4FF40770256401F02BFBC4F8A4
:1037D0009002F8B10546D4F89402006880470020B2
:1037E000C5F81402C5F81802207CD5F8042298B157
:1037F00040230121204600F045FB3046BDE8F08122
:10380000FFE73B4602228121204600F02FFB3B468A
:10381000E562CAE70126F0E73B46EAE710B5D0F8D3
:10382000901269B1027C002AD1F8042205D040230D
:10383000012100F027FB002010BD4FF40073F7E7D3
:10384000022010BD02460220002902D00020C2F84A
:1038500094127047D0F89002C0F80412002070470C
:10386000D0F89002C0F81022C0F80812002070476B
:103870002DE9FC410546D0F8907200208DF800003B
:10388000ADF80400064608780C4610F0600121D01F
:1038900020293BD1E288AAB10006607807D5D5F887
:1038A00094128B6839469847E288394626E087F8B3
:1038B0000002A07987F80102E2883946284600F024
:1038C0006AF828E0D5F89412607800228B682146C7
:1038D000984720E0607820B10A2809D00B2815D13C
:1038E00010E095F87402032810D1022201A905E026
:1038F00095F87402032809D101226946284600F090
:1039000064F808E095F87402032804D0214628469C
:1039100000F036F802263046BDE8FC8110B5D0F83C
:103920009012A1B1D1F814220AB1012010BD0122D8
:10393000C1F81422D1F810220263B1F8102293B218
:10394000D1F80822812100F034FB002010BD0220B4
:1039500010BD10B5D0F88C2252689047002010BDE1
:10396000134610B50A46002100F08CFA002010BD65
:10397000134610B50A46002100F01BFB002010BDC5
:1039800010B50446802100F0F9FA2046BDE8104049
:10399000002100F0F3BA10B50323C0F84821C0F8A5
:1039A0006C32C0F84C2113460A46002100F06AFA36
:1039B000002010BD10B505210023C0F86C121A4676
:1039C000194600F05FFA002010BD10B50223C26155
:1039D000C0F86C32026213460A46002100F0E9FA90
:1039E000002010BD10B504210023C0F86C121A4647
:1039F000194600F0DEFA002010BD000010B50A469E
:103A0000024903A000F0E2F8004810BD940E002027
:103A100043444320436F6E666967000012200880AC
:103A2000004870472800002010B50A46024903A04C
:103A300000F0CCF8004810BD940E00204344432011
:103A4000496E746572666163650000000420088039
:103A5000004870472400002010B50A46024903A020
:103A600000F0B4F8004810BD940E002053544D6986
:103A700063726F656C656374726F6E696373000067
:103A800010B50A46024903A000F0A0F8004810BD96
:103A9000940E002053544D33322056697274756170
:103AA0006C20436F6D506F727400000010B51A20C7
:103AB00008800A480168001D0468001D0068081895
:103AC00009D008220649FEF7F9FE05490422103103
:103AD0002046FEF7F3FE0248801E10BD107AFF1F3D
:103AE0003E000020F8B5044648880D46010A082922
:103AF0004BD2DFE801F04A0409174A4A4048D4F89B
:103B00008812207C0A6832E0207C02260028D4F843
:103B10008C0205D0C16A684688470146467041E07C
:103B2000816AF8E7C0B206282FD2DFE800F0030868
:103B30000D12171CD4F88812207C4A6817E0D4F8BC
:103B40008812207C8A6812E0D4F88812207CCA6827
:103B50000DE0D4F88812207C0A6908E0D4F88812B5
:103B6000207C4A6903E0D4F88812207C8A6969467F
:103B70009047014616E0207C38B9D4F88C02416B9E
:103B800068468847F5E7207C20B129462046FFF7A4
:103B9000F7FEF8BDD4F88C02016B684688470146F1
:103BA00007204870BDF8000048B1EA8852B182424F
:103BB00000D90246ADF800202046FFF706FFE8884E
:103BC0000028E6D12046FFF70DFFF8BD70B50023B1
:103BD00000281ED00446002502E06D1CEDB2641CD6
:103BE0002678002EF9D1022404EB450414801278C3
:103BF000CA545B1C0322CA5400245B1C06E0CA544E
:103C00005B1CDAB28C54521CD3B2401C0278002ADE
:103C1000F5D170BD01004FF0000004D0012901D0A2
:103C2000022901D0022070470120704710B580B1F1
:103C3000D0F88C3213B10023C0F88C3209B1C0F82F
:103C40008812012180F87412027000F0CBF8002075
:103C500010BD022010BD10B5D0F89802FDF708FA8B
:103C6000BDE81040FFF7D6BF10B5D0F89802FDF7B9
:103C7000D9F9BDE81040FFF7CDBF2DE9F041174657
:103C8000044651B1D4F88C0242691AB194F8740216
:103C9000032851D00220BDE8F081D4F86C32002511
:103CA00004F11400022B03D0042B3AD0C3B33CE040
:103CB000D0E903639E4207D9F11AC1608AB239463E
:103CC0002046FFF755FE12E08068B0FBF3F103FBDE
:103CD000110199B9984211D3D4F8701288420DD2CB
:103CE000002211462046FFF743FEC4F8705200231D
:103CF0001A461946204600F0C5F816E0D4F88C02A2
:103D0000C16829B194F87402032801D1204688477C
:103D10008021204600F032F92046FFF74BFE04E0F8
:103D2000FFE78021204600F029F994F87802012865
:103D300004D184F8785201E0204690470020AAE799
:103D400070B51546044649B1D4F88C0282691AB19F
:103D500094F87402032830D0022070BDD4F86C129D
:103D600004F5A070032902D005291ED027E0D0E970
:103D700003218A420BD9531AC3600846834200D3F9
:103D800003469AB229462046FFF7EAFD17E0D4F829
:103D90008C02016929B194F87402032801D12046EC
:103DA00088472046FFF71EFE09E000200146C4F8C0
:103DB0006C02204600F0E2F801E020469047002027
:103DC00070BD0020704710B5012180F87412D0F842
:103DD0008C22017952689047002010BDD0F89802DB
:103DE000FDF774B910B5017839BB15490222C1F845
:103DF0000404C0F898124FF0A04008600420486006
:103E00000020C1E90320C1E9062008624862C862B7
:103E100008630846FDF74CFC08B1FCF79EFB8021C7
:103E20000748FDF7BEF8402200210548FDF7BDF820
:103E3000802201210248FDF7B8F8002010BD0000E3
:103E40008C0A00200A0601F07F01D0F89802C1EB2D
:103E5000C10100EB810002D590F83E00704790F858
:103E6000FE017047002070470020704710B51C46C7
:103E70001346D0F898022246FDF731F9BDE810400C
:103E8000FFF7C8BE10B5D0F89802FDF758F9BDE8A5
:103E90001040FFF7BFBE70B5002204464023114614
:103EA000FFF7E4FF40260125C4F8506133460022A5
:103EB00080212046C4F84451FFF7D8FF6662A5610F
:103EC00084F874520020C4F86C026060C4F87C026C
:103ED000D4F8900228B1D4F88C0200214268204620
:103EE0009047002070BD90F8751280F87412002081
:103EF000704710B590F87412032904D1D0F88C12D1
:103F0000C96901B18847002010BD017400207047C5
:103F100010B5D0F89802FDF79DFCBDE81040FFF702
:103F200079BE70B5044600F52070054600F04AF8E9
:103F30000120C4F86C02B4F88602C4F8700294F848
:103F4000800210F01F010AD001290DD0022910D0E3
:103F500000F08001204600F011F8002070BD2946D5
:103F6000204600F09EF8F8E72946204600F0CAF9FE
:103F7000F3E72946204600F01DF9EEE710B5D0F82A
:103F80009802FDF700F9BDE81040FFF743BE10B5F9
:103F9000D0F89802FDF779FCBDE81040FFF73ABE73
:103FA00090F8741280F87512042180F874120020C1
:103FB000704710B5D0F89802FDF71FF9BDE8104022
:103FC000FFF728BE0A7802704A7842708A78CB7868
:103FD00002EB032242800A794B7902EB03228280B2
:103FE0008A79C97902EB0121C1807047024600201D
:103FF00011B1C2F88C1270470220704710B5D0F88A
:104000008C2202241AB11268904700B9002420467D
:1040100010BD000070B50E461E4D8978044629700B
:10402000012931D894F8740202280BD003280FD04C
:1040300031462046FFF7A4FC29782046BDE87040B1
:10404000FFF787BCD9B10320616084F8740209E0EE
:1040500071B16068884212D0C1B22046FFF779FC86
:10406000297861602046FFF7C9FF02280CD006E0DE
:10407000022084F8740220466160FFF76AFC204643
:10408000BDE87040FFF7AEBC31462046BDE8704049
:10409000FFF776BCD800002010B5FFF778FF0020AE
:1040A00010BD2DE9F0410A78002612F0600208D018
:1040B000202A01D0402A70D1D0F88C2292689047F3
:1040C0006DE04B78002201250A2B66D2DFE803F071
:1040D000405D6557650805652C29FFF703FD5EE027
:1040E00004468888D8B9C888C8B94888802816D2B4
:1040F00000F07F0794F87402032810D084F87672D9
:1041000039462046FFF704FF2046FFF76BFC1FB13E
:10411000022084F8740242E084F874523FE02046A2
:104120003BE0FFF777FF3AE0CB88012B35D190F8E1
:104130007432012B04D0022B02D0032B2DD104E0CA
:104140008260012200F1080116E00122011D13E046
:1041500090F87422012A03D0022A01D0032A1CD12C
:10416000CA88022A19D1C560D0F87C1209B103218E
:10417000C160022200F10C01FFF727FC0FE0498823
:1041800001290CD1C0F87C5211E090F87432012B57
:1041900008D0022B06D0032B04D0FFF7F1FB3046EA
:1041A000BDE8F08149880129F9D1C0F87C22FFF7E8
:1041B00019FCF4E72DE9F0410A460446107800277F
:1041C000097910F060030AD0202B01D0402B50D188
:1041D000D4F88C0211468368204698478FE0C0F3DC
:1041E0004110012806D05078D0B301282AD00328E6
:1041F0003FD107E0D4F88C02114683682046BDE821
:10420000F041184794F87402022802D0032872D1B2
:104210000AE071B380296ED02046FFF7AFFE8021FF
:104220002046FFF7ABFE6AE0508838B931B18029EB
:1042300004D0D08810B92046FFF7A0FE2046FFF733
:10424000D1FB5CE094F874020228E2D0032852D13A
:10425000508898BB4806F1D02046FFF7FCFCEDE7FC
:10426000FFE794F874020026022803D0032842D105
:1042700012E040E009B180293DD1080601F07F003D
:1042800000EB800004EB800101D5143101E001F561
:10429000A07102220E602AE0080601F00F0000EB78
:1042A000800004EB80000AD5806920B301F07F0014
:1042B00000EB800004EB800514350BE01FE0D0F824
:1042C0004401C0B101F07F0000EB800004EB8005E9
:1042D00005F5A07541B1802906D02046FFF7B2FD53
:1042E00010B10120286000E02E60022229462046FD
:1042F000FFF76BFB03E011462046FFF741FB384612
:10430000BDE8F08170B5054608780C4610F06000F5
:1043100003D0202801D0402816D195F87402012836
:1043200003D0022801D003280ED1207901280BD810
:10433000D5F88C02826828469047E188014306D16F
:104340002846FFF74FFB02E02846FFF719FB002045
:1043500070BD000070B50A78012302F00F054E7899
:10436000AB401B4CD0F81C58012E17D045EA034334
:10437000C0F81C3800EB4210D0F8002B12040BD40C
:10438000D0F8002B0B89C978C3F30A031A4344EA17
:1043900081410A43C0F8002B002070BD9BB21D4331
:1043A000C0F81C5800EB4210D0F800391B04F3D4BD
:1043B000D0F800390D89C978C5F30A0589042B4363
:1043C00041EA82510B432343C0F80039E4E700007F
:1043D00000800010D0F800196FF30A01C0F800192E
:1043E000D0F80818C1F34101022905D1D0F800190D
:1043F00041F00301C0F80019D0F8041841F48071AD
:10440000C0F804180020704770B5044606990A9E4B
:10441000049D0D98012916D0E06840F04000E0604E
:10442000204600F02BF8A16B1EB321F48031A1636C
:10443000012D07D1A16841F00601A160A16841F0FA
:104440002001A16070BDA16B21F48031A163E168FE
:10445000094A1140E160E16821F44011E16001285E
:1044600003D1E06840F48010E060204600F006F8D8
:10447000DEE741F48031DAE7BFFFBDFF01220C49DE
:1044800002E0521C8A420BD80369002BF9DA026958
:1044900042F001020261012204E0521C8A4201D969
:1044A000032070470369DB07F7D100207047000045
:1044B000400D030030B50B784D78012203F00F0456
:1044C00002FA04F4012DD0F83C5817D025EA044430
:1044D000C0F83C48D0F81C48097801F00F018A4028
:1044E00024EA0241C0F81C1800EB4310D0F8001B6E
:1044F0000E4A1140C0F8001B002030BDA4B2A543F5
:10450000C0F83C58D0F81C48097801F00F018A40E7
:1045100091B28C43C0F81C4800EB4310D0F800194E
:10452000034A1140C0F80019E6E700000078F3EFF5
:10453000007833EC10B5D0F8041821F00201C0F86F
:1045400004180320FCF76CFB002010BD10B5D0F858
:10455000041841F00201C0F804180320FCF760FBC6
:10456000002010BD2DE9F04F0025DDE90BCB0E46F4
:104570000446DDF84090099F2846294604EB800256
:10458000C2F80411401C0F28F8D3B9F1000F2046DF
:1045900018D0006820F400122260A06B40F40022C2
:1045A000A26308468846C4F8000ED4F800182046D6
:1045B000C4F80018BCF1010F10D0D0F8001841F079
:1045C000030110E0806B40F40012A263A06B20F4A2
:1045D0000022A263A06B20F48022E1E7D0F800184B
:1045E0000BB141F00101C0F80018102100F0A0FA51
:1045F00000B10125204600F08BFA00B101254046AC
:10460000C4F81088C4F81488C4F81C8800214FF03E
:1046100000634FF090484FF67F3A14E004EB4112EC
:10462000D2F800C9BCF1000F06DA11B1C2F8008956
:1046300004E0C4F8003901E0C2F80009C2F810092A
:10464000C2F808A9491C8E42E8D8002115E000BF35
:1046500004EB4112D2F800CBBCF1000F06DA11B125
:10466000C2F8008B04E0C4F8003B01E0C2F8000B84
:10467000C2F8100BC2F808AB491C8E42E8D8D4F837
:10468000101821F480722146C4F81028012F08D197
:10469000134AC1F83028D1F83018124A1143C4F82F
:1046A0003018A0616FF0804060611FB9A06940F0D0
:1046B0001000A061A0690C490843A061BBF1000F84
:1046C00003D0A06940F00800A061B9F1010F03D147
:1046D000A06906490843A0612846BDE8F08F0000A4
:1046E000000180000300010000383C80040000400D
:1046F000816821F0010181600020704770B50D785C
:104700004E78434CEBB200EB4313012E1FD0D3F88D
:10471000100B6FF31200C3F8100BD3F8100B2040EE
:10472000C3F8100B486908B188684861D3F8100BCA
:1047300040F40020C3F8100BD3F8100B8C68C4F3BE
:1047400012042043C3F8100B012A55D058E04E69DB
:10475000002ED3F8106932D06FF31206C3F8106937
:10476000D3F810692640C3F810694E698C68A642D8
:1047700000D94C61D3F8104944F40024C3F810491F
:10478000D3F810494E69C6F312063443C3F81049F2
:10479000012A22D000EB4512D2F8003943F004433D
:1047A000C2F800394A6932B3D0F83428097801F0E8
:1047B0000F03012199400A43C0F8342826E026401F
:1047C000C3F81069D3F8104944F40024C3F8104921
:1047D000D3F810496FF31204D8E7096919B100EB57
:1047E0004512C2F8141900EB4510D0F8001941F039
:1047F0000441C0F8001909E0C86808B1C3F8140BF7
:10480000D3F8000B40F00440C3F8000B002070BD4B
:10481000FFFF07E010B5036C134CA34203D9D0F897
:10482000003B002B1EDB0023C0F8103BD0F8103BF0
:1048300043F40023C0F8103BD0F8103B43F01803BA
:10484000C0F8103BD0F8103B43F0C043C0F8103B19
:10485000012907D1C0F8142BD0F8001B41F08021AA
:10486000C0F8001B002010BD0A30544F4A780B7866
:10487000012A00EB43100BD0D0F8002B22F40012D9
:10488000C0F8002BC978032914D0022912D017E0F0
:10489000D0F8002922F40012C0F80029C9780329B1
:1048A00001D002290CD1D0F8001941F08051C0F894
:1048B000001905E0D0F8001B41F08051C0F8001B42
:1048C000002070470A784B78D1B200EB4110012BE1
:1048D00012D0D0F8001B002906DB2AB1D0F8001B4B
:1048E00021F08041C0F8001BD0F8001B41F40011FA
:1048F000C0F8001B00207047D0F80019002906DB23
:104900002AB1D0F8001921F08041C0F80019D0F880
:10491000001941F40011C0F80019EBE7F8B50C7864
:104920004F78774DE3B26FF0604600EB4313012FF1
:1049300026D0D3F8104B6FF31204C3F8104BD3F802
:10494000104B2C40C3F8104B4C69002C74D08D6870
:104950002C44641EB4FBF5F4D3F8105BA4B206EA51
:10496000C4463543C3F8105BD3F8105B8E686643CA
:10497000C6F312042543C3F8105B012A71D0A6E0E8
:104980004F691FB3D3F810796FF31207C3F810798A
:10499000D3F810792F40C3F810794F698D682F44F0
:1049A0007F1EB7FBF5F506EAC545D3F81069354318
:1049B000C3F81059D3F810594E69C6F3120635439F
:1049C000C3F81059CD78012D10D01BE0D3F8106931
:1049D0002E40C3F81069D3F8105945F40025C3F8E8
:1049E0001059D3F810596FF3120509E0D3F8105994
:1049F00025F0C045C3F81059D3F8105945F00055BB
:104A0000C3F81059012A18D000EB4413D3F8004919
:104A100044F00444C3F80049CC78012C2FD04A69F3
:104A200062B3D0F83428097801F00F0301219940CE
:104A30000A43C0F8342860E036E00A691AB100EB96
:104A40004413C3F81429C97801290FD1D0F80818E4
:104A5000C90500EB4411D1F8002903D442F00052FB
:104A600002E030E042F08052C1F8002900EB44102F
:104A7000D0F8001941F00441C0F800193DE0D0F829
:104A80000848E405D3F8004902D444F0005401E09A
:104A900044F08054C3F8004900928A8A93B20A789D
:104AA000C96800F03FF928E0D3F8104B8D68C5F3D2
:104AB00012052C43C3F8104BD3F8104B44F40024D8
:104AC000C3F8104B59E7CA680AB1C3F8142BC97868
:104AD00001290CD1D0F80808C005D3F8000B02D486
:104AE00040F0005001E040F08050C3F8000BD3F8D4
:104AF000000B40F00440C3F8000B0020F8BD00009C
:104B0000FFFF07E0816841F00101816000207047EC
:104B1000002110220261054A491C914201D903205B
:104B200070470369DB06F7D400207047400D03008F
:104B30000022202343EA811101610549521C8A4267
:104B400001D90320704703699B06F7D40020704702
:104B5000400D0300D0F8080810F0060004D0022829
:104B600003D0062801D00F2070470220704740690B
:104B700000F001007047D0F81818D0F81C08084061
:104B800080B27047D0F81818D0F81C080840000C04
:104B9000704710B5D0F81038D0F8342801F00F0461
:104BA00000EB4110E24002F00102D0F8080943EAAC
:104BB000C212104010BD00EB4111D1F8081BD0F813
:104BC0001408084070474169806908407047D21C4A
:104BD00010B59308002200F5805002E00468521CD2
:104BE00010C19A42FAD3084610BD10B5C26822F02F
:104BF000C042C260012902D029B1012010BDC168A4
:104C000041F0005102E0C16841F08041C1603220B2
:104C1000FCF706F8002010BDD0F8002822F4FE6250
:104C2000C0F80028D0F800284FF4FE6303EA011111
:104C30000A43C0F80028002070470000022A3ED135
:104C4000264A274B0A449A4201D20F2138E0254ACE
:104C5000254B0A449A4201D20E2131E0234A244BCB
:104C60000A449A4201D20D212AE0224A224B0A44E8
:104C70009A4201D20C2123E0204A214B0A449A4255
:104C800001D20B211CE01F4A1F4B0A449A4201D259
:104C90000A2115E01D4A1E4B0A449A420FD31D4AB1
:104CA0001D4B0A449A4201D2082109E01B4A1144D3
:104CB0001B4A914201D2072102E0062100E00921AE
:104CC000C26822F47052C260C2684FF4705303EAA3
:104CD00081210A43C260002070470000405327FF33
:104CE00000350C00401E1BFF40420F0000DC0BFF94
:104CF000804F1200808CF9FE20D6130060B6E5FECE
:104D000060E3160000D3CEFE40771B00C05BB3FE0D
:104D1000C091210000CA91FE20753800E05459FE70
:104D2000E09C410010B5029C64B9DB1C9C0800EBC0
:104D30000230002300F5805002E004C902605B1CD1
:104D4000A342FAD3002010BDFEE70907090E002890
:104D500004DB00F1E02080F80014704700F00F0041
:104D600000F1E02080F8141D704702E008C8121F0F
:104D700008C1002AFAD170477047002001E001C144
:104D8000121F002AFBD1704710B5002821D0114B0B
:104D90000022001F196803E0814203D80A464968CF
:104DA0000029F9D152B11368841A9C4204D10068D9
:104DB00018441060104602E0506000E0186039B1FD
:104DC00002680B1A934203D10B681A4402604968C7
:104DD000416010BDEC010020FCF732F8FEF762F9EB
:104DE000FDF716FEFDF7CAFDFDF784FDFDF7A4FDF6
:104DF000FDF7C6FEFDF72AFFFDF7A6FFFDF7E4FE6F
:104E0000FDF7ECFFFEF708F8FEF722F8FDF7ECFDE2
:104E100000F045F8FEE701460020842900D0C81CB8
:104E200070470000F0B50B30154D20F0070100244D
:104E3000144A0FE003688B420BD38B4205D95E1AEC
:104E400043184768C3E9006700E04368136002C085
:104E500004E0021D10680028ECD12046002802D191
:104E6000286808B10020F0BD064A07481060074ACC
:104E7000121A22F00702C0E9002401202860D7E7B7
:104E8000F0010020EC010020CC5D0020C863002070
:104E900010B500B9012000F01FFB002010BD10B5B7
:104EA00000F040FB002010BD7FB50D46044641696F
:104EB000B0F9080081B1A16971B1FFF7ACFFD4E985
:104EC00005128DE80700D4E900102B46226900F096
:104ED0003CFC039004B070BDFFF79DFF03A9CDE932
:104EE0000001208A2B4682B2D4E9001000F000FCB9
:104EF000012801D00020EDE70398EBE72DE9F04110
:104F0000184C0F46054666692068001D00F020FA1F
:104F100038B9206890F82C1001208840A16981439D
:104F2000A161681C07D137B12168BDE8F0410E4886
:104F3000091D00F051BA20683544B542456021682A
:104F400005D2A068BDE8F041091D00F02DBA6068E7
:104F5000091D00F029FA206B854200D22563BDE8C7
:104F6000F081000078000020B02100202DE9F04100
:104F7000054600F03DFA2E4C2069401C2061206857
:104F80002C4F10B1E06940B32DE025602069012865
:104F900029D1002606EB860007EB800000F0F6F929
:104FA000761C072EF6D323488C3000F0EFF9214809
:104FB000A03000F0EBF91F48B43000F0E7F91D48CD
:104FC000C83000F0E3F91B48DC3000F0DFF9194885
:104FD0008C3060601430A06005E02068E96AC06A27
:104FE000884200D82560E06A401CE062E96A01203E
:104FF000A26988401043A06101EB810007EB8000AB
:10500000291D00F0E9F900F013FAE06900280CD03E
:105010002068E96AC06A884207D207494FF0805089
:105020000860BFF34F8FBFF36F8FBDE8F0810000C2
:1050300078000020D420002004ED00E010B50446E4
:1050400090F8510058B101280CD002280FD0502000
:1050500080F31188BFF34F8FBFF36F8FFEE7206B94
:1050600000F0FAF92046BDE8104000F0F5B910BD97
:1050700010484FF47051420706D0C01D0D4920F072
:105080000700411AC1F570510B4A00230144C2E9DF
:1050900000030839103A21F0070111604B600B60E2
:1050A0000B1AC0E9001393604FF000405360D060CA
:1050B00070470000C4210020C4000020144E154C8D
:1050C000A6F1C8074FF08058DFF84C9012E000BFFF
:1050D00000F08EF9F068C568281D00F039F92069E4
:1050E000401E2061E068401EE06000F0A1F9284603
:1050F000FFF7A4FFE0680028EAD138680128F9D951
:10510000C9F80080BFF34F8FBFF36F8FF2E7000045
:105110009C2100207800002004ED00E02DE9F047FC
:105120000E46DDE909841746824691009946089D9E
:10513000A522206BFBF7F9F86FF00301206B01EB60
:105140008701084420F00707780707D0502080F334
:105150001188BFF34F8FBFF36F8FFEE72218315CCA
:1051600082F83410315C11B1401C1028F6D30026AF
:1051700084F84360072D00D30625E562C4E9115683
:10518000201D00F00EF904F1180000F00AF9246166
:10519000C5F107006462A061E66484F850604A4685
:1051A0005146384600F0BEF82060B8F1000F01D03B
:1051B000C8F80040BDE8F08730B5114900E011465D
:1051C0000A688242FBD34B685C18844203D1406872
:1051D00018444860084643681C18944209D1084C9A
:1051E000103C2468A24209D052681A4442600A68FE
:1051F00012680260814200D0086030BD0460F9E7A7
:10520000C400002006484168096829B14168C9689E
:10521000C9684968016370474FF0FF31FAE7000041
:105220007800002008484068401C4FF0500080F390
:10523000118804D0BFF34F8FBFF36F8FFEE7BFF32A
:105240004F8FBFF36F8FFEE7CC0000202DE9F041B8
:105250000546002700F09CF9314E306808B9FFF789
:1052600007FFF06805424BD1C5B3083568070ED07B
:1052700005F00700C0F108000544680707D050207A
:1052800080F31188BFF34F8FBFF36F8FFEE72DB30D
:105290007068854234D82248103001460C6801E01D
:1052A00020460C466168A94202D221680029F7D144
:1052B00031688C4224D00768216801606068083733
:1052C000411B10290FD96019420708D0502080F3E4
:1052D0001188BFF34F8FBFF36F8FFEE710E041607F
:1052E0006560FFF769FF61687068401A7060B268B6
:1052F000904200D2B060F06801430020C4E9000190
:1053000000F0B2FA780707D0502080F31188BFF37D
:105310004F8FBFF36F8FFEE73846BDE8F081000086
:10532000B400002010B5031F4FF080741C601B1FD9
:1053300021F001011960191F044B0B6014390A6038
:10534000091F6FF0020244380A6010BD25520008A0
:10535000D0E9013201699A60D0E901235A604A68B4
:10536000824201D182684A60002202610868401EC0
:105370000860086870470000034B036003F15400A5
:1053800008608020106070474402002000F108018E
:105390004FF0FF32C0E90112C160016100210160DC
:1053A000704700210161704730B50B685A1C02D06C
:1053B00000F1080202E0026904E022465468256810
:1053C0009D42FAD953684B6099608A6051600861C8
:1053D0000168491C016030BD42684A6093688B6077
:1053E00093685960916008610168491C01607047C9
:1053F000502080F31188BFF34F8FBFF36F8F0A499E
:105400004868401C486001280CD10848006810F02A
:10541000FF0F07D0502080F31188BFF34F8FBFF3E9
:105420006F8FFEE770470000CC00002004ED00E025
:105430000849486828B1401E486001D180F31188AE
:105440007047502080F31188BFF34F8FBFF36F8FE9
:10545000FEE70000CC00002070B5002827D0144DD6
:10546000A0F108046168E868014207D1502080F388
:105470001188BFF34F8FBFF36F8FFEE722683AB1F9
:10548000502080F31188BFF34F8FBFF36F8FFEE77B
:105490008143616000F07CF8606869680844686076
:1054A0002046FFF789FEBDE8704000F0DDB970BD11
:1054B000B40000204FF0E020002101618161054926
:1054C0004FF47A720968B1FBF2F1491E416107217C
:1054D000016170477400002010B5020014D00F481D
:1054E000806B38B1502080F31188BFF34F8FBFF32A
:1054F0006F8FFEE700F04CF800211046FFF7FEFC2E
:1055000000F0B2F9002807D105494FF0805008603B
:10551000BFF34F8FBFF36F8F10BD000078000020E6
:1055200004ED00E010B586B00024039405AA04A998
:1055300003A80494FFF720FFDDE903010094CDE9FF
:10554000011000230EA11048059A00F0FEF80F4943
:105550000028486311D0502080F31188BFF34F8F8B
:10556000BFF36F8F4FF0FF3008630120C8614C61BB
:1055700006B0BDE8104000F041B806B010BD000014
:1055800049444C4500000000BD5000087800002050
:105590000248816B491C816370470000780000203D
:1055A0001448816B11B101214162704700214162B1
:1055B0008169B1FA81F1C1F11F0101EB81020E494C
:1055C00051F822306BB101EB820101F108034A6806
:1055D00052684A609A4201D152684A60D1680160BB
:1055E0007047502080F31188BFF34F8FBFF36F8F48
:1055F000FEE7000078000020D42000201CB53748CA
:105600000168374A914207D1502080F31188BFF3D7
:105610004F8FBFF36F8FFEE700683149491E884204
:1056200007D1502080F31188BFF34F8FBFF36F8FE6
:10563000FEE72C4908780190FF20087008788DF863
:1056400000009DF800009DF8002000F0F00090425E
:1056500007D0502080F31188BFF34F8FBFF36F8FB7
:10566000FEE79DF80000204B00F050001870072066
:10567000986005E09DF8002052008DF80020401E43
:105680009DF800201206F5D49860032807D050201A
:1056900080F31188BFF34F8FBFF36F8FFEE74FF496
:1056A00040709860019808700C482030016841F4FF
:1056B00070010160016841F070410160FFF7FAFE7E
:1056C00000205860FAF7A0FD0848016841F0404109
:1056D0000160FAF785FD00201CBD000000ED00E030
:1056E00071C20F4100E400E0CC00002034EF00E084
:1056F0002DE9FF5F8346DDE90E87994616468A4607
:105700009000FFF7A3FD05001CD05420FFF79EFD7D
:10571000040014D00020256384F85100CDE9024034
:10572000CDE900874B46324651465846FFF7F6FC16
:105730002046FFF71BFC012004B0BDE8F09F28467F
:10574000FFF78AFE4FF0FF30F6E7F0B585B0DDE9F0
:105750000B640A9DA6B1DCB154270097266302268C
:1057600084F85160002604AFCDE90246CDE9005728
:10577000FFF7D4FC2046FFF7F9FB049805B0F0BD15
:10578000502080F31188BFF34F8FBFF36F8FFEE778
:10579000502080F31188BFF34F8FBFF36F8FFEE768
:1057A0002DE9F0412E4C0027A06B40B1206A401C2F
:1057B0002062606A00B101273846BDE8F081666961
:1057C000761C666113D16068006838B1502080F3A0
:1057D0001188BFF34F8FBFF36F8FFEE76068A1683A
:1057E0006160A060A06A401CA062FFF70BFD206B07
:1057F000DFF87080864209D36068006880B1606815
:10580000C068C568686886420DD220632068C06A97
:1058100000EB800158F821000128CAD90127C8E708
:105820004FF0FF30F1E7281DFFF792FDA86A18B18D
:1058300005F11800FFF78CFDE86A0121A26981409B
:105840001143A16100EB800108EB8100291DFFF7E6
:10585000C3FDE86A2168C96A8842CDD30127CBE736
:1058600078000020D42000202DE9F0472C4D0024A2
:105870002746A86B38B1FFF7BBFDA86B401EA86395
:10588000A86B40B146E0502080F31188BFF34F8FE2
:10589000BFF36F8FFEE72969224E0120D1B3A6F135
:1058A000B40980463068E8B1F068C46804F11800B3
:1058B000FFF74EFD201DFFF74BFDE06AAA6908FACD
:1058C00000F11143A96100EB800109EB8100211D6A
:1058D000FFF782FDE06A2968C96A8842E2D3C5F809
:1058E0002480DFE70CB1FFF78DFC2C6A44B14646FB
:1058F000FFF756FF00B16E62641EF9D100202862E6
:10590000686A38B10849012738070860BFF34F8F2C
:10591000BFF36F8FFFF78CFD3846BDE8F0870000BE
:10592000780000208821002004ED00E0685900087C
:105930006B30000800000000000000008000000044
:1059400000000000000000000006101600061016FF
:10595000000000000000000001020304060708091F
:10596000000000000102030464656661756C7454F4
:1059700061736B009459000800000020F4010000DE
:10598000B00300085C5A0008F4010020D465000050
:105990007A4D000881131D3A1B084D041A59041A48
:1059A00081041AAD0413FD391B08290817040309E3
:1059B0000412011402020216408304405726020119
:1059C000020301031A1A031329041B0825041A21D0
:1059D000041A4D04192F118210035924F41AAA0134
:1059E00081130A0632022A407C1C090243B71125A2
:1059F000C03209041B01020B1305241610010524F3
:105A0000011009010424020205240617010705827A
:105A100003081C100904ED320A1D07050102432C7E
:105A2000070581070938442A40072A8107112B09F5
:105A300007440A3B04441389371408F136140871EB
:105A40003842081A35101A79101AC304C11A71188D
:0C5A50001A65041A7D041A590481000034
:04000005080001AD41
:00000001FF
